:100000000C9462000C94BB090C9493090C948A0024
:100010000C948A000C948A000C948A000C94F906C3
:100020000C948A000C948A000C948A000C948A0028
:100030000C948A000C948A000C948A000C948A0018
:100040000C94E3090C948A000C948A000C948A00A6
:100050000C948A000C948A000C948A000C948A00F8
:100060000C948A000C948A000000000024002700F1
:100070002A0000000000250028002B0004040404CE
:100080000404040402020202020203030303030342
:10009000010204081020408001020408102001021F
:1000A00004081020000000080002010000030407FB
:1000B00000000000000000000000000023002600F7
:1000C0002900221A11241FBECFEFD8E0DEBFCDBF1A
:1000D00011E0A0E0B1E0E0E3FEE302C005900D9284
:1000E000AC33B107D9F722E0ACE3B1E001C01D9217
:1000F000AC37B207E1F710E0C2E6D0E004C02197C8
:10010000FE010E94B11DC136D107C9F70E942D0A18
:100110000C94161F0C9400003FB7F89480912F02A6
:1001200090913002A0913102B091320226B5A89B85
:1001300005C02F3F19F00196A11DB11D3FBFBA2F79
:10014000A92F982F8827820F911DA11DB11DBC01D9
:10015000CD0142E0660F771F881F991F4A95D1F79E
:10016000089580917002823030F4F89485E692E030
:100170000E94510901C0F89460916C0270916D0267
:1001800080916E0290916F02789408953B9A20E0DE
:1001900030E090E0AC01022E02C0559547950A94DC
:1001A000E2F740FF02C0439A01C04398459800001F
:1001B000000000000000000000000000000000003F
:1001C00000000000000000000000459A2F5F3F4F34
:1001D00028303105F9F60895449A00000000000027
:1001E000000000000000000000000000000000000F
:1001F00000000000000000000000000000000000FF
:10020000000044980C94C6002F923F924F925F9248
:100210006F927F928F929F92AF92BF92CF92DF9216
:10022000EF92FF920F931F93CF93DF93CDB7DEB77B
:100230002E970FB6F894DEBF0FBECDBF3C01B62E91
:10024000942E322E2CA0DDA01A8219821C821B82D1
:100250001E821D8218861F821A8619861C861B869E
:100260001E861D86FC01962F20E02B15C9F081917A
:100270008E3231F4233069F4915081E088A70EC0AA
:100280008A3361F4233009F022C1915081E08EA3BA
:1002900005C0263019F4915081E089A72F5FE5CF82
:1002A000983060F080E40E94EC0080EC0E94EC004A
:1002B0008E85992009F445C0816043C092E0690EA3
:1002C000711CFE0131962F0110E0F12CFB1458F542
:1002D000F301329780818E3211F08A3361F4F30199
:1002E000123009F0319780810E942008F201918339
:1002F00080831F5F1BC0113081F4F301319780812F
:100300008E3211F08A3349F4F30180810E94200873
:10031000F2019183808312E009C00E942008F2015B
:100320009183808303C0F20111821082F394FFEF66
:100330006F1A7F0A82E0480E511C97E0F912C6CF6F
:10034000B1CF0E94C60081EC0E94EC008D850E9416
:10035000C60083EC0E94EC008C85311081600E9405
:10036000C60084EC0E94EC008B850E94C60086ECDF
:100370000E94EC008A85EFA1E11181600E94C60015
:1003800087EC0E94EC00F9A58985F11180680E9434
:10039000C60089EC0E94EC008885011181600E94F2
:1003A000C6008AEC0E94EC008F81E11080680E94F8
:1003B000C6008CEC0E94EC008E819EA191118160A0
:1003C0000E94C6008DEC0E94EC00E8A58D81E11131
:1003D00080680E94C6008FEC0E94EC001B818C811B
:1003E000CC2049F081600E94C60080ED0E94EC00A4
:1003F000812F806806C00E94C60080ED0E94EC003C
:10040000812F0E94C60082ED0E94EC0019818A8132
:100410000E94C60083ED0E94EC00812F0E94C6005E
:1004200085EDAA2021F00E94EC0080E203C00E942A
:10043000EC0080E00E94C60086ED882021F00E943A
:10044000EC0084E003C00E94EC0080E00E94C60043
:1004500088ED0E94EC008FEF0E94C60089ED0E949B
:10046000EC008BA1882371F0222031F0DD2011F007
:100470008FE50BC087E509C0DD2011F08FE405C0D2
:1004800087E403C0222051F187E10E94C60088E082
:100490000E94EC008FE80E94EC00449A2E960FB662
:1004A000F894DEBF0FBECDBFDF91CF911F910F91AA
:1004B000FF90EF90DF90CF90BF90AF909F908F9084
:1004C0007F906F905F904F903F902F9008952630CF
:1004D00009F0E4CE915081E08FA3E0CEDD2011F051
:1004E0008FE0D3CF87E0D1CFCF93DF9320E030E010
:1004F00090E0482F50E067E070E0E1E0F0E0DA01E2
:10050000022E02C0B595A7950A94E2F7A0FF0AC093
:10051000DB01A21BB30BEF0102C0CC0FDD1FAA95BC
:10052000E2F79C2B2F5F3F4F2830310541F7892F91
:10053000DF91CF910895CF93DF9300D01F92CDB775
:10054000DEB72A9800000000000000000000000054
:1005500000000000000000000000000000002B83ED
:100560004A8369830E941609000000000000000011
:10057000000000000000000000000000000000007B
:1005800000002A9A6981862F0E9416094A81842FC9
:100590000E9416092B81822F0E9416092A980000BA
:1005A000000000000000000000000000000000004B
:1005B00000000000000000000F900F900F90DF91EE
:1005C000CF910895CF93FC01A0916302B091640292
:1005D00080818C93A0916302B09164028181119615
:1005E0008C93A0916302B0916402828112968C93E5
:1005F0008081863509F07BC080915502909156022A
:100600000097B9F4E0916302F09164021382E091E3
:100610006302F09164028DE48483E0916302F091BF
:10062000640281E48583E0916302F091640288E5CD
:100630001AC0883F23E09207C1F4E0916302F09171
:1006400064021382E0916302F09164028DE484837A
:10065000E0916302F091640289E48583E091630292
:10066000F09164028EE48683F1C064E570E00E943C
:100670005B1D2CE0261B43E050E033E0A5E2B3E233
:10068000C4E2211108C0E0916302F0916402E40F1A
:10069000F51F108226C0233070F480916302909180
:1006A0006402FC01E40FF51F223011F4C08301C085
:1006B000B08320E016C0233031F0822F632F0E94D8
:1006C0004F1D911106C0822F632F0E944F1D911163
:1006D00008C0E0916302F0916402E40FF51FA0836B
:1006E00023504F5F5F4F4730510559F6AFC0E0913F
:1006F0006302F0916402823419F58091590290915D
:100700005A02880F892F881F990B9195882331F100
:10071000813041F1823051F1833061F1843099F1BF
:100720008530D1F1863009F443C0873009F048C0E4
:1007300081E38383E0916302F091640284E33FC02C
:10074000843509F049C080915D0290915E0223E0FA
:10075000969587952A95E1F7811102C013821EC0F4
:10076000813011F4138226C0823011F41382E2CF5B
:10077000833039F41382E0916302F091640286E3DE
:100780001EC0843039F41382E0916302F091640258
:1007900088E315C0853041F481E38383E0916302EF
:1007A000F091640280E30BC0863011F0873041F491
:1007B00081E38383E0916302F091640282E38483A6
:1007C000E0916302F091640284E68583E091630224
:1007D000F091640282E447CF8335C1F480914F02E7
:1007E0001382E0916302F0916402882311F08FE498
:1007F00019C08FE48483E0916302F091640286E47F
:100800008583E0916302F09164022DCF8134F1F48D
:10081000809150021382E0916302F0916402882378
:1008200041F089E48483E0916302F09164028EE4F4
:1008300007C086E48483E0916302F09164028DE452
:100840008583E0916302F0916402168280916302D5
:1008500090916402CF910895EF92FF921F93CF93EE
:10086000DF931F92CDB7DEB710914602110F1092A1
:100870004802109247028FEF810F90E00E94F01A19
:10088000E82EF12CFE2CEE24F0924802E092470272
:10089000812F90E00E94F01AE82AC7018C559642F9
:1008A0008330984028F4F0924802E092470206C054
:1008B0008CE596E29093480280934702109147029C
:1008C000809148020E947402482F812F49830E9420
:1008D0007402682F21E4498184E10E949B0228E28E
:1008E00048EA67E584E90F90DF91CF911F91FF906F
:1008F000EF900C949B028F929F92AF92BF92CF92F7
:10090000DF92EF92FF920F931F93CF93DF93FC013F
:10091000C081D18120913F0230914002C217D3079C
:100920000CF04BC09E01220F331FE0913D02F0916D
:100930003E02E20FF31F80809180C170DD27F1E05D
:10094000CF27209719F404E610E002C00CE91FEF4E
:100950007A015B016C01040F151FB801C4010E94EC
:10096000DC07892B99F40E0D1F1DB801C4010E94EC
:10097000DC07892B71F4B8016E0D7F1DC4010E9444
:10098000DC07892BE9F023E030E005C021E030E00E
:1009900002C022E030E0F50180819181019682174A
:1009A00093073CF0F50111821082F601808191815C
:1009B000019691838083CE0105C081E090E002C062
:1009C0008FEF9FEFDF91CF911F910F91FF90EF90ED
:1009D000DF90CF90BF90AF909F908F90089583301D
:1009E00081F028F4813099F08230A1F008958730A9
:1009F000A9F08830B9F08430D1F4809180008F7DE7
:100A000003C0809180008F7780938000089584B523
:100A10008F7702C084B58F7D84BD08958091B0002A
:100A20008F7703C08091B0008F7D8093B0000895D0
:100A30001F93CF93DF93282F30E0F901EC55FF4F40
:100A40008491F901E057FF4FD491F901E458FF4F29
:100A5000C491CC23C9F0162F81110E94EF04EC2F12
:100A6000F0E0EE0FFF1FEE58FF4FA591B4918FB746
:100A7000F894111105C09C91ED2FE095E92302C077
:100A8000EC91ED2BEC938FBFDF91CF911F910895E7
:100A90000F931F93CF93DF938C01C0E0D0E0C80188
:100AA0000C2E02C0880F991F0A94E2F791FF02C032
:100AB00061E001C060E085E00E94180561E084E02B
:100AC0000E941805C930D10521F461E085E00E943B
:100AD000180560E084E00E9418052196CA30D1050F
:100AE000F1F660E085E0DF91CF911F910F910C94BA
:100AF0001805CF93DF93EC0180916102909162021F
:100B00008C179D0724F481E08093500205C0C8171C
:100B1000D90714F41092500280915002882329F0D2
:100B2000109252021092510206C080E091E0909320
:100B300052028093510280915102909152020E9480
:100B400048052091550230915602C9018160909369
:100B50005202809351020E944805D0936202C093D2
:100B60006102DF91CF910895CF93DF93EC018091E3
:100B70005F02909160028C179D0724F481E08093BE
:100B80004F0205C0C817D90714F410924F02809184
:100B90004F02882319F080E291E002C080E091E0EA
:100BA000909352028093510280915102909152028F
:100BB0000E9448052091550230915602C90181607A
:100BC00090935202809351020E944805D093600294
:100BD000C0935F02DF91CF9108950F931F93CF933E
:100BE000DF938C01809153029091540280179107FA
:100BF000D4F420915502309156022930310518F075
:100C0000E90160971EC028303105C9F581E090E008
:100C100090935202809351020E944805109256020E
:100C2000109255022DC00817190754F5209155024E
:100C300030915602C9010897803F934078F4E9014A
:100C40006096CE01816090935202809351020E947F
:100C50004805D0935602C093550212C0232B79F455
:100C600089E090E090935202809351020E944805DF
:100C700088E090E0909356028093550201C00000F6
:100C80001093540200935302DF91CF911F910F9163
:100C90000895CF93DF9390E0FC01E057FF4F24913C
:100CA000FC01E458FF4F8491882361F190E0880FA4
:100CB000991FFC01E859FF4FC591D491FC01EE58F2
:100CC000FF4FA591B491611109C09FB7F894888135
:100CD000209582238883EC912E230BC0623061F42F
:100CE0009FB7F8943881822F809583238883EC9175
:100CF0002E2B2C939FBF06C08FB7F894E8812E2B24
:100D000028838FBFDF91CF9108958F929F92AF92EA
:100D1000BF92CF92DF92EF92FF926B017C010E9413
:100D20008C004B015C01C114D104E104F104F1F029
:100D30000E948C00DC01CB0188199909AA09BB0922
:100D4000883E9340A105B10570F321E0C21AD10895
:100D5000E108F10888EE880E83E0981EA11CB11C02
:100D6000C114D104E104F10419F7DDCFFF90EF9035
:100D7000DF90CF90BF90AF909F908F9008951F937A
:100D8000CF93DF93C6E0D1E088ED0E94EC0018819C
:100D90008981229681600E94C60089ED0E94EC0044
:100DA000812F80650E94C60062E370E080E090E0E1
:100DB0000E94850681E0CA31D80731F788ED0E948C
:100DC000EC008FEF0E94C60089ED0E94EC0087E5E1
:100DD000DF91CF911F910C94C6002FB7F8946091CA
:100DE0002B0270912C0280912D0290912E022FBF28
:100DF00008951F920F920FB60F9211242F933F93D5
:100E00004F935F936F937F938F939F93AF93BF9312
:100E1000CF93DF93EF93FF9320913D0130E0F901F1
:100E2000EC55FF4F8491F901E057FF4FD491F90140
:100E3000E458FF4FC491CC23A1F081110E94EF042C
:100E4000EC2FF0E0EE0FFF1FE854FF4FA591B49197
:100E5000EC91ED2331E020E009F430E0832F922F74
:100E600002C080E090E020914101309142012F5F6B
:100E70003F4F30934201209341012091400125369C
:100E800018F026E020933C0120913C012430D9F158
:100E900028F4223069F02330D9F060C0253009F4FD
:100EA00053C0263009F05AC021E020930D0253C0F0
:100EB000009709F053C0209141013091420124363E
:100EC000310508F443C010920D02109240011DC07C
:100ED0008130910509F042C0E091400121E02E0FE0
:100EE00020934001F0E02091410130914201EE0F4A
:100EF000FF1FE45CFE4F308727831092420110925F
:100F0000410124E029C00097B9F4E091400121E0BB
:100F10002E0F20934001F0E02091410130914201D9
:100F2000EE0FFF1FE45CFE4F3087278310924201D3
:100F30001092410123E010C0209141013091420103
:100F40002536310558F007C0009741F41092420150
:100F50001092410103C025E020933C0120913F0104
:100F60002223B9F0892B51F480913E01882321F08E
:100F700080913E0161E009C02D9A0BC080913E0135
:100F8000882331F080913E0160E00E94180501C085
:100F90002D98FF91EF91DF91CF91BF91AF919F91EC
:100FA0008F917F916F915F914F913F912F910F9012
:100FB0000FBE0F901F901895CF92DF92EF92FF9285
:100FC000CF93DF93EC01072E000C880B990B0E9446
:100FD000221C6B017C0120E030E040E45FE30E94D2
:100FE000D21C20E030E048E452E40E94781B0E94CA
:100FF000EA1BC617D707D4F020E030E040EA5FE3F1
:10100000C701B6010E94D21C20E030E048E452E45F
:101010000E94781B20E030E040E85FE30E94071B5D
:101020000E94EA1B21E06C177D070CF420E0822F60
:1010300090E0DF91CF91FF90EF90DF90CF900895F7
:10104000382F282F2F7D833209F4D1C0843251F0FC
:10105000853279F08D32A1F080E090E0303309F4F0
:10106000C9C003C088E290E52BC0313309F4C5C084
:1010700003C08AE294E524C0323309F4C1C003C03E
:1010800081E090E81DC0333309F4BDC0343309F466
:10109000BDC0353309F4BDC0363309F4BDC03733A4
:1010A00009F4BDC0383339F0393341F0313459F0E7
:1010B000313649F005C083E696EC02C083E496EC35
:1010C000223419F405C083E296EC233419F4AAC043
:1010D00085E69AE4343439F0343641F0353459F049
:1010E000353631F408C080E390E602C083E694E828
:1010F000263419F405C081E692E4273421F406C0B1
:1011000081E292E40895283421F406C082E692EC4C
:101110000895293421F406C083E294EC08952A341A
:1011200021F406C088E492E108952B3421F406C02E
:1011300082E494E008952C3421F406C085E298E41A
:1011400008952D3421F406C080E690E408952E34ED
:1011500021F406C082E29CE608952F3421F406C0F3
:1011600086E294E60895203521F406C082E696E4EE
:101170000895213521F406C081E296EC08952235C8
:1011800021F406C086E696E40895233521F406C0CE
:1011900085E29AE40895243521F406C085E492E4BA
:1011A0000895253521F406C088E092E1089526359A
:1011B00021F406C082E694E40895273521F406C0A0
:1011C00080E398E40895283521F406C086E394E48A
:1011D0000895293521F408C084E198E208952A355C
:1011E00021F580E59AE0089588E098E2089580E28C
:1011F00090E466CF82E79EE463CF82E094E060CF24
:1012000081E696E85DCF82E496E85ACF83E094ECDD
:1012100057CF83E492EC54CF83E692EC51CF82E037
:1012200096E04ECF80E692E459CF08958EBD00003F
:101230000DB407FEFDCF8EB508950F931F93CF9386
:10124000DF93E0917502F09176021082EF0124960F
:1012500020E030E00AE010E02530310548F4009746
:1012600039F0B8010E945B1D805D8883CB0104C00A
:10127000DF01A20FB31F1C922F5F3F4F2197273032
:10128000310551F78081803309F410828481811106
:1012900002C080E38483CF01DF91CF911F910F9132
:1012A0000895DC01ED91FD918081ED91FD9190819A
:1012B000ED91FD916C9163708E2309F064609F2322
:1012C00009F06860EEE6F9E0E60FF11D65956595B9
:1012D0006D936D917D918D919D91099423C01AC05C
:1012E00012C016C010C01EC009C014C013C006C072
:1012F00019C009C00DC007C00DC014C062507040B5
:10130000804090400BC0615070408040904006C0CB
:101310006E5F01C06F5F7F4F8F4F9F4F9E938E9385
:101320007E936E9308951F920F920FB60F92112421
:101330002F933F934F935F936F937F938F939F93DD
:10134000AF93BF93EF93FF938091730290917402D8
:101350000E945109FF91EF91BF91AF919F918F91A1
:101360007F916F915F914F913F912F910F900FBEA1
:101370000F901F9018951F920F920FB60F92112485
:101380002F933F934F935F936F937F938F939F938D
:10139000AF93BF93EF93FF9380917102909172028C
:1013A0000E945109FF91EF91BF91AF919F918F9151
:1013B0007F916F915F914F913F912F910F900FBE51
:1013C0000F901F9018951F920F920FB60F92112435
:1013D0002F933F938F939F93AF93BF9380912B0253
:1013E00090912C02A0912D02B0912E0230917702A3
:1013F00023E0230F2D3720F40196A11DB11D05C058
:1014000026E8230F0296A11DB11D20937702809339
:101410002B0290932C02A0932D02B0932E02809168
:101420002F0290913002A0913102B09132020196C8
:10143000A11DB11D80932F0290933002A093310221
:10144000B0933202BF91AF919F918F913F912F91B5
:101450000F900FBE0F901F901895CF93DF93CDB7CD
:10146000DEB72D970FB6F894DEBF0FBECDBF7894D0
:1014700084B5826084BD84B5816084BD85B5826099
:1014800085BD85B5816085BD80916E00816080934A
:101490006E001092810080918100826080938100B3
:1014A00080918100816080938100809180008160C3
:1014B000809380008091B10084608093B10080911E
:1014C000B00081608093B00080917A008460809346
:1014D0007A0080917A00826080937A0080917A000D
:1014E000816080937A0080917A00806880937A008E
:1014F0001092C10068EC70E080E090E00E948506E8
:1015000080E40E94EC0080EC0E94EC001AE180E094
:101510000E94C6001150D9F788E00E94EC008FE8C5
:101520000E94EC00449A1F9280911F028F931F9299
:101530001F921F9280911E028F9380911D028F93A4
:1015400080901C02A0901B02C0901A02E12C009116
:10155000190220E040E066E08BE191E00E94040186
:1015600060ED77E080E090E00E9485061FB7F89478
:101570000FB6F894DEBF0FBECDBF80910E02811171
:1015800027C0E6E8F0E08491EAE9F0E09491E82FE2
:10159000F0E0EE0FFF1FE859FF4FA591B491EC91D9
:1015A000E92321F461E08AE00E94180561E08AE005
:1015B0000E9449068CB580618CBD8CB580648CBD61
:1015C00061E08DE00E94490661E08BE00E944906DF
:1015D00080910E028F5F80930E021FBF82E58CBD4B
:1015E00081E08DBD3CE5E32E36E2F32EF092480219
:1015F000E09247028EE18093450228E248EA68E0E3
:1016000084E90E949B0280E090E00E94F01A80939F
:1016100046028823E9F1D82EDD0C10924802109280
:1016200047028FEF8D0D90E00E94F01A082F10E016
:10163000102F002710934802009347028D2D90E051
:101640000E94F01A082B10934802009347020C5591
:1016500016420330184020F0F0924802E092470210
:1016600010914702809148020E947402482F812FF6
:101670004D870E947402682F21E44D8584E10E9409
:101680009B0228E248EA67E584E90E949B0201C0C8
:10169000000080914702909148028E5294409093AE
:1016A00021028093200211E010931F0210931E026A
:1016B00010931D0210931C0210931B0210931A0228
:1016C000109319020E941D091F921F931F921F92CF
:1016D0001F921F931F9388248394AA24A394CC243D
:1016E000C394E12C01E020E040E067E00E940401A7
:1016F00080E091E090935202809351020E9448054D
:1017000089EF93E090935202809351020E94480522
:1017100082E090E090935202809351020E9448052B
:1017200083E090E090935202809351020E9448051A
:101730008FE090E00197F1F7809155029091560269
:10174000816090935202809351020E944805F89460
:1017500082E08093B0008093B10094E69093B30050
:101760001092B20080937000789480933C011092A4
:10177000400180913D0160E00E9449060FB6F89457
:10178000DEBF0FBECDBF44244A94542C320180E208
:10179000282E312CA3E4B1E0B0933E02A0933D0289
:1017A0008091400190E09093400280933F028091AD
:1017B0000D0290E0909342028093410280913C019F
:1017C000853009F00DC280914501909146018858FD
:1017D00091098D35910598F480914001843049F448
:1017E00080914701909148018097479710F40C949D
:1017F000961580914001843410F00C947B158091F3
:1018000040018A3108F451C0809143019091440114
:10181000843F914068F410923C0210923B02409247
:101820003702509238026092390270923A025CC0DC
:10183000809145019091460185974B97B0F5E9E479
:10184000F1E082E090E0C12CD12C7601AC014F5F39
:101850005F4F2091400130E04217530764F4DF01ED
:1018600012972D913C91275031092730310510F402
:101870000C94DF15CA0101979595879590933C02CA
:1018800080933B020C972CF410923C0210923B0286
:101890000CC0C0923702D0923802E0923902F09226
:1018A0003A0284E090E00C941417809140018A3150
:1018B00008F44FC0809143019091440180329340DD
:1018C00008F4A9CF8091450190914601C69786976B
:1018D00010F40C94FE153DC0C0923702D09238022D
:1018E000E0923902F0923A028BE090E00C941417E7
:1018F00020813181255231092B31310510F00C94B2
:101900001016CC0CDD1CEE1CFF1C6894C0F802966F
:101910003496AC014F5F5F4F2091400130E0421799
:10192000530754F4DF0112972D913C912C5031094B
:101930002B303105E8F2CA01019795958795909370
:101940003C0280933B020C973CF610923C021092B2
:101950003B0280914001823208F44FC080914501E2
:10196000909146010697079708F047C0E9E4F1E037
:1019700082E090E0C12CD12C76019C012F5F3F4F7B
:101980004091400150E024173507ECF4DF01129735
:101990004D915C9111974E5151094731510510F00D
:1019A0000C941F16CC0CDD1CEE1CFF1C6894C0F8B8
:1019B000408151813496435051094530510510F40E
:1019C0000296DBCFC90101979595879590933C02CC
:1019D00080933B0240972CF410923C0210923B0201
:1019E0000CC0C0923702D0923802E0923902F092D5
:1019F0003A028CE090E00C9414171C821B8281E068
:101A000090E09A838983809140018D3008F46CC006
:101A100049E753E0BE016D5F7F4FCE0101960E9402
:101A20007B04892B09F060C049E753E0BE016D5F7C
:101A30007F4FCE0101960E947B04019709F054C0AC
:101A400049E753E0BE016D5F7F4FCE0101960E94D2
:101A50007B04892B09F048C0812C912C540100E0B3
:101A600010E08091400190E029813A8128173907E0
:101A70005CF549E753E0BE016D5F7F4FCE010196F3
:101A80000E947B047C0149E753E0BE016D5F7F4FFC
:101A9000CE0101960E947B04A1E0EA16F10449F40C
:101AA000892B11F5880C991CAA1CBB1C689480F822
:101AB00008C0EF28C9F40197B9F4880C991CAA1C36
:101AC000BB1C0F5F1F4FCDCF10933C0200933B0216
:101AD0008092370290923802A0923902B0923A0274
:101AE000E1E0F0E00C94AF171C821B82CC24C3947D
:101AF000D12CDA82C98280913F029091400218165F
:101B000019060CF05BC0E0913D02F0913E0282E0CC
:101B100090E09A8389838281938189974E9708F018
:101B20004DC0A3E0B0E0BA83A983848195810B976F
:101B30000A9708F043C04CEB51E0BE016D5F7F4F48
:101B4000CE0101960E947B04892BC1F54CEB51E03C
:101B5000BE016D5F7F4FCE0101960E947B0401970D
:101B600069F5812C912C540100E010E029813A8123
:101B700080913F02909140022817390714F00C948D
:101B800069164CEB51E0BE016D5F7F4FCE010196AF
:101B90000E947B046C010330110511F00C942E1689
:101BA0004CEB51E0BE016D5F7F4FCE0101960E946C
:101BB0007B04C816D90611F40C942E16E0913D0250
:101BC000F0913E0282819381C697869710F40C941F
:101BD00078160C94191782E080933C011092400112
:101BE00080912A028823C1F18091370290913802B6
:101BF000A0913902B0913A0284393BE69307A105DE
:101C0000B10551F1843F4BE09407A105B10521F1E5
:101C1000843AEBE59E07A105B105F1F0843EFBE1B6
:101C20009F07A105B105C1F08C3E13E19107A10505
:101C3000B10591F08C3823E79207A105B10561F059
:101C40008C3A9345A105B10539F082E080933C01BF
:101C50001092400110922A0282E40E94EC003B980C
:101C60000000000000000000000000000000000074
:101C70000000000000000000000000000000000064
:101C8000000000000000000088E0339B05C0909138
:101C90004E02916090934E0290914E02990F909354
:101CA0004E02459800000000000000000000000007
:101CB0000000000000000000000000000000000024
:101CC0000000459A0000000000008150F1F6449A9F
:101CD0000E94ED06609326027093270280932802EB
:101CE0009093290200912202109123022091240254
:101CF000309125026B017C01C01AD10AE20AF30A75
:101D000049EBC4164BE0D406E104F104E0F1609322
:101D100022027093230280932402909325028091E3
:101D20004702909148028E529440909321028093F2
:101D3000200211E010931F0210931E0210931D0247
:101D400010931C0210931B0210931A021093190295
:101D50000E941D091F921F931F921F921F921F9393
:101D60001F9388248394AA24A394CC24C394E12CA5
:101D700001E020E040E067E00E9404010FB6F89423
:101D8000DEBF0FBECDBF10911802123009F404C19E
:101D900030F4112359F0113009F44EC058C21330F9
:101DA00009F4BAC1143009F4FCC151C20E94B10057
:101DB000709317026093160220911402309115025D
:101DC0002617370709F443C2709315026093140273
:101DD000CB010E94ED0510921F0210921E0201E03D
:101DE00000931D0200931C0200931B0200931A0231
:101DF0000093190282E291E00E94E2021F921F9278
:101E00001F921F921F921F920F9388248394AA24DB
:101E1000A394CC24C394E12C20E040E067E00E942E
:101E200004010E94ED0660932202709323028093C6
:101E300024029093250206C210921F0210921E02E5
:101E400010931D0210931C0210931B0210931A0290
:101E50001093190286E291E00E94E2021F921F9203
:101E60001F921F921F921F921F9388248394AA246B
:101E7000A394CC24C394E12C01E020E040E067E08F
:101E80000E9404010E94B1004B015C019092170274
:101E9000809216020FB6F894DEBF0FBECDBF209120
:101EA0001402309115026217730709F4D0C19092A1
:101EB0001502809214022091570230915802261781
:101EC00037071CF5E0905902F0905A02C701805480
:101ED00091098038934020F420E8E20EF11C23C0E1
:101EE000EF2809F046C080915D0290915E02826405
:101EF00090935202809351020E94480580E490E042
:101F000090935A028093590235C06217730794F573
:101F1000E0905902F0905A0231E4E316F104A8F07F
:101F200040E8E41AF10880915D0290915E028260BF
:101F30008E299F2990935202809351020E94480556
:101F4000F0925A02E092590215C080E4E816F104BA
:101F500081F480915D0290915E02826090935202C2
:101F6000809351020E94480510925A021092590221
:101F700001C0000090925802809257028091550251
:101F800090915602816090935202809351020E9478
:101F9000480586E291E0ADC010921F0210921E0229
:101FA00001E000931D0200931C0200931B020093AA
:101FB0001A02009319028AE291E00E94E2021F9243
:101FC0001F921F921F921F921F920F938824839437
:101FD000AA24A394CC24C394E12C20E040E067E041
:101FE0000E9404010E94B1004B015C019092170213
:101FF000809216020FB6F894DEBF0FBECDBF2091BF
:102000001402309115026217730709F420C19092EF
:1020100015028092140220915B0230915C02261717
:1020200037070CF5E0905D02F0905E02C70104975F
:10203000C89720F4F8E0EF0EF11C23C0EF2809F058
:1020400046C08091590290915A0286609093520244
:10205000809351020E94480584E090E090935E02D4
:1020600080935D0235C06217730794F5E0905D02BE
:10207000F0905E0225E0E216F104A8F038E0E31AE1
:10208000F1088091590290915A0282608E299F290D
:1020900090935202809351020E944805F0925E0292
:1020A000E0925D0215C044E0E416F10481F48091F1
:1020B000590290915A028260909352028093510289
:1020C0000E94480510925E0210925D0201C000005D
:1020D00090925C0280925B02809155029091560230
:1020E000816090935202809351020E9448058AE2D7
:1020F00091E00E94E2021F921F921F921F921F9274
:102100001F9221E02F9388248394AA24A394CC24A3
:10211000C394E12C01E091C010921F0210921E02A4
:10212000FF24F394F0921D02F0921C02F0921B0225
:10213000F0921A02F09219028EE291E00E94E202FD
:102140001F921F921F921F921F921F92FF9288242C
:102150008394AA24A394CC24C394E12C01E020E02E
:1021600040E067E00E9404010E94B10070931702F2
:10217000609316020FB6F894DEBF0FBECDBF20915C
:102180001402309115022617370709F460C07093C6
:10219000150260931402CB010E94B4058EE291E017
:1021A00043C010921F0210921E02FF24F394F0927B
:1021B0001D02F0921C02F0921B02F0921A02F092A1
:1021C000190282E391E00E94E2021F921F921F9285
:1021D0001F921F921F92FF9288248394AA24A39493
:1021E000CC24C394E12C01E020E040E067E00E94B1
:1021F00004010E94B10070931702609316020FB69B
:10220000F894DEBF0FBECDBF2091140230911502AD
:1022100026173707E1F07093150260931402CB0183
:102220000E94790582E391E00E94E2021F921F92D0
:102230001F921F921F921F92FF9220E040E067E0E2
:102240000E9404010FB6F894DEBF0FBECDBF80918F
:102250004E02803251F4143020F41F5F10931802A4
:1022600002C0109218020E94BF0680914E02883070
:1022700041F46091460280E090E00E94F81A0E94CA
:10228000BF0680914E02843009F05DC00091470284
:10229000109148020D3596E21907D8F00A5011093D
:1022A0001093480200934702812F0E947402482F26
:1022B000802F4D870E947402682F21E44D8584E1B0
:1022C0000E949B0228E248EA67E584E90E949B029B
:1022D00006C08EE59EE2909348028093470280916B
:1022E0004702909148028E5294409093210280932D
:1022F000200211E010931F0210921E0210931D0283
:1023000010931C0210931B0210931A0210931902CF
:102310000E941D091F921F931F921F921F921F92CE
:102320001F9388248394AA24A394CC24C394E12CDF
:1023300001E020E040E067E00E9404010FB6F8945D
:10234000DEBF0FBECDBF80914E02823009F05DC06E
:1023500000914702109148020E35BEE21B07D8F4E7
:10236000065F1F4F1093480200934702812F0E947F
:102370007402482F802F4D870E947402682F21E439
:102380004D8584E10E949B0228E248EA67E584E9E2
:102390000E949B0206C08CE596E2909348028093CF
:1023A000470280914702909148028E529440909348
:1023B00021028093200211E010931F0210921E024E
:1023C00010931D0210931C0210931B0210931A020B
:1023D000109319020E941D091F921F931F921F92B2
:1023E0001F921F921F9388248394AA24A394CC2421
:1023F000C394E12C01E020E040E067E00E9404018A
:102400000FB6F894DEBF0FBECDBF80914E02803173
:1024100009F051C08091460290914502891710F44D
:102420008F5F01C081E08093460210914602110F38
:10243000609148028FEF810F90E00E94F81A60913E
:102440004702812F90E00E94F81A809147029091F4
:1024500048028E529440909321028093200211E012
:1024600010931F0210931E0210931D0210931C0262
:1024700010931B0210931A02109319020E941D0957
:102480001F921F931F921F921F921F931F938824C6
:102490008394AA24A394CC24C394E12C01E020E0EB
:1024A00040E067E00E9404010E94BF060FB6F89466
:1024B000DEBF0FBECDBF80914E02803809F043C011
:1024C0008091460290914502891710F48F5F01C0F8
:1024D00081E0809346020E942C04809147029091F3
:1024E00048028E529440909321028093200211E082
:1024F00010931F0210931E0210931D0210931C02D2
:1025000010931B0210931A02109319020E941D09C6
:102510001F921F931F921F921F921F931F93882435
:102520008394AA24A394CC24C394E12C01E020E05A
:1025300040E067E00E9404010E94BF060FB6F894D5
:10254000DEBF0FBECDBF80912A02882309F458C098
:102550008091370290913802A0913902B0913A02ED
:10256000843A9B45A105B10509F04AC082E08093F9
:102570003C011092400110922A02809146029091F3
:102580004502891710F48F5F01C081E080934602F5
:102590000E942C0480914702909148028E529440F0
:1025A000909321028093200211E010931F02109358
:1025B0001E0210931D0210931C0210931B02109315
:1025C0001A02109319020E941D091F921F931F9255
:1025D0001F921F921F931F9388248394AA24A3946D
:1025E000CC24C394E12C01E020E040E067E00E94AD
:1025F00004010E94BF060FB6F894DEBF0FBECDBF28
:1026000080912A02882309F456C080913702909164
:102610003802A0913902B0913A02843E9B41A10553
:10262000B10509F048C082E080933C01109240015E
:1026300010922A0280914602823010F0815001C02F
:1026400081E0809346020E942C0480914702909181
:1026500048028E529440909321028093200211E010
:1026600010931F0210931E0210931D0210931C0260
:1026700010931B0210931A02109319020E941D0955
:102680001F921F931F921F921F921F931F938824C4
:102690008394AA24A394CC24C394E12C01E020E0E9
:1026A00040E067E00E9404010E94BF060FB6F89464
:1026B000DEBF0FBECDBF80914E02803499F0809175
:1026C0002A02882309F487C080913702909138024A
:1026D000A0913902B0913A028C3E9341A105B10517
:1026E00009F079C082E080933C0110924001109281
:1026F0002A0280911302882391F1109213020E9402
:102700002C0480914702909148028E5294409093FD
:1027100021028093200211E010931F0210931E02E9
:1027200010931D0210931C0210931B0210931A02A7
:10273000109319020E941D091F921F931F921F924E
:102740001F921F931F9388248394AA24A394CC24BC
:10275000C394E12C01E020E040E067E029C028E2DA
:1027600048EA68E084E90E949B0281E080931302BA
:1027700010921F0210921E0280931D0280931C0271
:1027800010921B0210921A02109219021F921F92AD
:102790001F921F921F921F928F9388248394A12CC3
:1027A000C12CE12C00E020E040E065E086E391E010
:1027B0000E9404010FB6F894DEBF0FBECDBF0E9489
:1027C000ED0660932202709323028093240290937B
:1027D00025020E94BF0680912A02882309F44EC078
:1027E0008091370290913802A0913902B0913A025B
:1027F00084399B46A105B10509F040C082E0809371
:102800003C011092400110922A0280911102909195
:102810001202019690931202809311020E94ED051C
:1028200010921F0210921E0211E010931D021093CD
:102830001C0210931B0210931A021093190282E2D9
:1028400091E00E94E2021F921F921F921F921F921C
:102850001F921F9388248394AA24A394CC24C39406
:10286000E12C01E020E040E067E00E9404010E94CA
:10287000BF060FB6F894DEBF0FBECDBF80912A020F
:10288000882309F44EC08091370290913802A091BC
:102890003902B0913A02843F9B40A105B10509F08D
:1028A00040C082E080933C011092400110922A02C5
:1028B00080911102909112020197909312028093DD
:1028C00011020E94ED0510921F0210921E0211E0EB
:1028D00010931D0210931C0210931B0210931A02F6
:1028E0001093190282E291E00E94E2021F921F926D
:1028F0001F921F921F921F921F9388248394AA24D1
:10290000A394CC24C394E12C01E020E040E067E0F4
:102910000E9404010E94BF060FB6F894DEBF0FBEEE
:10292000CDBF80912A02882309F46BC080913702C1
:1029300090913802A0913902B0913A028C3A9345B5
:10294000A105B10509F05DC082E080933C011092C1
:10295000400110922A022091100280911102909160
:102960001202211109C00196909312028093110264
:1029700081E08093100207C0019790931202809328
:1029800011021092100280911102909112020E9485
:10299000B40510921F0210921E0211E010931D0246
:1029A00010931C0210931B0210931A021093190229
:1029B0008EE291E00E94E2021F921F921F921F92EC
:1029C0001F921F921F9388248394AA24A394CC243B
:1029D000C394E12C01E020E040E067E00E940401A4
:1029E0000E94ED06609322027093230280932402DA
:1029F000909325020E94BF060FB6F894DEBF0FBE6B
:102A0000CDBF80912A02882309F46BC080913702E0
:102A100090913802A0913902B0913A028C389347D4
:102A2000A105B10509F05DC082E080933C011092E0
:102A3000400110922A0220910F0280911102909180
:102A40001202211109C00196909312028093110283
:102A500081E080930F0207C0019790931202809348
:102A6000110210920F0280911102909112020E94A5
:102A7000790510921F0210921E0211E010931D02A0
:102A800010931C0210931B0210931A021093190248
:102A900082E391E00E94E2021F921F921F921F9216
:102AA0001F921F921F9388248394AA24A394CC245A
:102AB000C394E12C01E020E040E067E00E940401C3
:102AC0000E94ED06609322027093230280932402F9
:102AD000909325020E94BF060FB6F894DEBF0FBE8A
:102AE000CDBF80E090E0892B11F40C94CA0B0E94BA
:102AF00000000C94C70B80914701909148018254CB
:102B000091098E9710F00C94FF0B80E090E040E06C
:102B100050E0BA01FC01E75BFE4F20813181295072
:102B2000310929303105D0F00C94FF0B8091490117
:102B300090914A010997099710F00C94F90B1092A3
:102B40003C0210923B02409237025092380260924F
:102B5000390270923A02E3E0F0E001C2FC01E55B69
:102B6000FE4F20813181275131092231310508F191
:102B700020813181265031092730310510F00C9425
:102B8000FF0B440F551F661F771F04968038910571
:102B900009F630923C0220923B0240933702509358
:102BA00038026093390270933A0203E0C02ED12CB0
:102BB000AEC1440F551F661F771F4160E6CF2081CD
:102BC0003181235131092F30310550F4CC0CDD1CFB
:102BD000EE1CFF1C6894C0F8029634960C94260CE8
:102BE000208131812A5031092930310510F00C94AF
:102BF000550CCC0CDD1CEE1CFF1CEECF8091470168
:102C000090914801C697869710F00C94A90CEBE4BC
:102C1000F1E083E090E0C12CD12C76010C94890C7A
:102C2000208131812C5031092A30310510F00C946B
:102C3000A90CCC0CDD1CEE1CFF1C0C94870C4D91D8
:102C40005C914C5051094B30510510F00C94FD0C27
:102C5000CC0CDD1CEE1CFF1C0C94D80C4CEB51E092
:102C6000BE016D5F7F4FCE0101960E947B047C0107
:102C70000330110571F44CEB51E0BE016D5F7F4FE5
:102C8000CE0101960E947B04E816F90611F00C941F
:102C9000DE0DC114D10461F4EA94EF2811F00C9414
:102CA000DE0D880C991CAA1CBB1C689480F80DC012
:102CB000CA94CD2811F00C94DE0DEF2811F00C947D
:102CC000DE0D880C991CAA1CBB1C0F5F1F4F0C94B7
:102CD000B60D10933C0200933B0280923702909213
:102CE0003802A0923902B0923A0282E090E09CC091
:102CF000848195814B97459708F09BC0DF0116961C
:102D00006F0116ECC10ED11C20E030E040E050E035
:102D100060E070E080E090E0ED90FC90119719E0A9
:102D2000E11AF10818E0E116F10408F082C01296E9
:102D3000ED90FC90139711E1E11AF1081DE0E11606
:102D4000F10420F501E00E947A1D21601496AC1573
:102D5000BD0511F7209337023093380240933902B2
:102D600050933A0200E20E94951D20933502309361
:102D7000360285E090E0909334028093330280E342
:102D800090E090933C0280933B02EDC01296ED9050
:102D9000FC90139714E0E11AF10815E0E116F10434
:102DA00008F047C001E00E947A1DD0CFA801425030
:102DB0005109DA014D915C91495051094830510552
:102DC00008F027C1BC016F5F7F4FD8014D915C9126
:102DD000475051094730510508F0E9C2220F331F0F
:102DE000216002960C5F1F4F4091400150E044501B
:102DF000510984179507D4F201979595879590937B
:102E00003C0280933B028A970CF403C1C901330F43
:102E1000AA0BBB0B8093370290933802A093390220
:102E2000B0933A0289E090E09093340280933302A9
:102E30009AC080914001893340F082819381895703
:102E400091098335910508F48CC18091400182324B
:102E500009F462C082819381895791098335910574
:102E600008F086C080914001813208F481C08481DD
:102E70009581CA97899708F07BC09F012A5F3F4FD1
:102E8000C12CD12C760143E050E0D9016D917C91A9
:102E90006A5071096930710508F06AC0D90112964B
:102EA0006D917C911397665171096131710508F03C
:102EB000B7C1D701C601880F991FAA1FBB1F6C019C
:102EC0007D016894C0F84E5F5F4F2C5F3F4F4332E7
:102ED0005105D9F69F012A5B3F4FD9012D913C91B5
:102EE0002A5031092930310508F042C0E0E1F0E014
:102EF000F0933C02E0933B02C0923702D09238023A
:102F0000E0923902F0923A0256E0C52ED12CD092CE
:102F10003402C092330227C0828193810A970997B5
:102F200008F098CF20914001CF01820F911D820FB0
:102F3000911DDC0112978D919C910A97099708F0D9
:102F400089CF10923C0210923B024092370250927D
:102F500038026092390270923A02E6E0F0E0F093B3
:102F60003402E093330281E080932A020C94F00D46
:102F7000828193818C549109C59778F480914001A6
:102F8000843031F4848195818097479708F471C12A
:102F900080914001843408F053C18091400186340F
:102FA00060F1828193810C970B9708F4ABC125C027
:102FB000D90112966D917C9113976E517109673109
:102FC000710508F0D5C1D701C601880F991FAA1F46
:102FD000BB1F6C017D016894C0F84E5F5F4F2C5F92
:102FE0003F4F4534510509F4A8C1D9016D917C9139
:102FF0006C5071096B307105D8F2809140018835B1
:1030000040F082819381855891098B35910508F4B0
:10301000BFC1809140018032E1F4828193810697A3
:103020000697B8F4848195810997099790F49F01D8
:103030002A5F3F4FBF01625C7F4FC12CD12C7601CC
:10304000D9014D915C91465051094630510508F423
:10305000BBC1C0903F02D0904002D886CF8296017B
:103060002630310514F40C94EB0D8F010A5F1F4FCD
:1030700083E090E09E838D8395ECC92E9DE9D92E47
:103080009CE1E92E91E8F92ED8016D917C91F8012F
:103090003497A080B18080E090E00E94201C698776
:1030A0007A878B879C87B50180E090E00E94201C86
:1030B0004B015C012DEC3CEC4CE45FE30E94D21C24
:1030C0009B01AC0169857A858B859C850E94731B69
:1030D00087FD19C02DEC3CEC4CE45FE369857A85F3
:1030E0008B859C850E94D21C9B01AC01C501B4015B
:1030F0000E94731BE82F880FFF0BEE27FF0FEE1FB8
:10310000FF27319602C0E0E0F0E0A701960163E9F5
:1031100071E080E091E00E943F1D6F01FF0FEE081B
:10312000FF08C626D726E826F926ED81FE813196CE
:10313000FE83ED830E5F1F4F2F813885E217F30763
:1031400009F0A2CFC0923702D0923802E092390241
:10315000F0923A0230923C0220923B028FEF9FEFB6
:1031600063CE84819581CA97899708F06ECE9F01BE
:103170002A5F3F4FC12CD12C760143E050E0D901AA
:103180006D917C916A5071096930710508F05DCECE
:10319000D90112966D917C91139766517109613135
:1031A000710570F5D701C601880F991FAA1FBB1FB3
:1031B0006C017D016894C0F84E5F5F4F2C5F3F4FFC
:1031C0004B335105E1F69F012A583F4FD9012D910C
:1031D0003C912A5031092930310508F036CE2CE1D6
:1031E00030E030933C0220933B02C0923702D092F1
:1031F0003802E0923902F0923A028AE090E014CE6E
:10320000D90112966D917C911397665071096730C0
:10321000710508F01ACECC0CDD1CEE1CFF1CCCCFC7
:10322000D90112966D917C911397665071096730A0
:10323000710508F09DCECC0CDD1CEE1CFF1C43CEAE
:103240008481958189549109C39708F0A6CE9F0186
:103250002A5F3F4FBF016A577F4FC12CD12C7601A7
:10326000D9014D915C914950510949305105A0F067
:1032700094CE868197810997099708F089CE10929C
:103280003C0210923B024092370250923802609208
:10329000390270923A02D3C0D90112964D915C91D5
:1032A00013974651510941315105E0F4D701C60148
:1032B000880F991FAA1FBB1F6C017D016894C0F87D
:1032C0002C5F3F4F2617370759F630923C02209269
:1032D0003B02C0923702D0923802E0923902F0925B
:1032E0003A02ADC0D90112964D915C9113974650A8
:1032F00051094730510508F050CECC0CDD1CEE1CB6
:10330000FF1CDECF848195810997099708F075CE5F
:10331000868197818C974F9708F06FCE8085918535
:1033200089974D9708F069CE9F01265F3F4FC12CCA
:10333000D12C760145E050E058CE9F0126573F4FF3
:10334000D9012D913C912C5031092B30310508F0D9
:1033500054CE30923C0220923B02C0923702D0926F
:103360003802E0923902F0923A0288E090E05CCDB7
:10337000D90112966D917C9113976950710969304A
:10338000710508F03ACECC0CDD1CEE1CFF1C25CEDE
:1033900084819581825491098E9708F03ACE8F01ED
:1033A000045C1F4F8DE190E020E030E01DCDD8019E
:1033B0004D915C91485151094231510510F0CB01BA
:1033C0001BCD220F331F0DCDD90112964D915C916B
:1033D0001397495151094331510508F5D701C601E9
:1033E000880F991FAA1FBB1F6C017D016894C0F84C
:1033F0002C5F3F4F2617370709F022CE2EE030E032
:1034000030933C0220933B02C0923702D0923802A4
:10341000E0923902F0923A028FE090E005CDD901B6
:1034200012964D915C9113974950510949305105BD
:1034300008F00FCECC0CDD1CEE1CFF1CD9CF87E0B2
:1034400090E0F2CCCF93DF9310924E0261E083E1E3
:103450000E94490661E082E10E94490661E081E143
:103460000E944906449A459A439A10924F0210923C
:103470005002109252021092510210925402109275
:10348000530288E091E09093560280935502109287
:1034900058021092570210925A021092590210923A
:1034A0005C0210925B0210925E0210925D0210921A
:1034B000600210925F02109262021092610261E05B
:1034C00070E087E090E00E94C61D909364028093B4
:1034D000630261E084E00E94490661E085E00E94A9
:1034E000490660E084E00E94180560E085E00E94E3
:1034F000180562E083E00E94490662E082E00E94D3
:103500004906EFE7F0E0E491F0E0EE0FFF1FE8542A
:10351000FF4FA591B491B0936602A0936502E3E9D1
:10352000F0E0849180936902EEE7F0E0E491F0E04E
:10353000EE0FFF1FE854FF4FC591D491D09368025E
:10354000C0936702E2E9F0E0E491E0936A0210922E
:103550006C0210926D0210926E0210926F02EBE3F9
:10356000FFE13197F1F7EC91E82381E009F480E085
:10357000288190916A02922309F0826025E632E068
:1035800080936B02309374022093730280916900E0
:10359000837F846080936900E99A81E08093700260
:1035A0003093720220937102809169008C7F816058
:1035B00080936900E89A82E08093700287E08093AC
:1035C0003D0110923F0161E070E087E090E00E94D1
:1035D000C61D9093760280937502DF91CF91089576
:1035E000F999FECF92BD81BDF89A992780B50895CB
:1035F000262FF999FECF1FBA92BD81BD20BD0FB60F
:10360000F894FA9AF99A0FBE019608955058BB277C
:10361000AA270E941E1B0C94981C0E948A1C38F03A
:103620000E94911C20F039F49F3F19F426F40C9469
:10363000871C0EF4E095E7FB0C94811CE92F0E9497
:10364000A91C58F3BA17620773078407950720F07F
:1036500079F4A6F50C94CB1C0EF4E0950B2EBA2F42
:10366000A02D0B01B90190010C01CA01A001112488
:10367000FF27591B99F0593F50F4503E68F11A1634
:10368000F040A22F232F342F4427585FF3CF4695C5
:1036900037952795A795F0405395C9F77EF41F16E7
:1036A000BA0B620B730B840BBAF09150A1F0FF0FB1
:1036B000BB1F661F771F881FC2F70EC0BA0F621F9D
:1036C000731F841F48F4879577956795B795F7958D
:1036D0009E3F08F0B0CF9395880F08F09927EE0F22
:1036E0009795879508950E945D1C08F481E00895E0
:1036F0000E948C1B0C94981C0E94911C58F00E94F4
:103700008A1C40F029F45F3F29F00C94811C511170
:103710000C94CC1C0C94871C0E94A91C68F3992360
:10372000B1F3552391F3951B550BBB27AA276217BD
:103730007307840738F09F5F5F4F220F331F441FCA
:10374000AA1FA9F335D00E2E3AF0E0E832D09150FE
:103750005040E695001CCAF72BD0FE2F29D0660FEB
:10376000771F881FBB1F261737074807AB07B0E82E
:1037700009F0BB0B802DBF01FF2793585F4F3AF034
:103780009E3F510578F00C94811C0C94CC1C5F3F3B
:10379000E4F3983ED4F3869577956795B795F795BA
:1037A0009F5FC9F7880F911D9695879597F90895A2
:1037B000E1E0660F771F881FBB1F6217730784073E
:1037C000BA0720F0621B730B840BBA0BEE1F88F74D
:1037D000E09508950E94F11B6894B1110C94CC1CE3
:1037E00008950E94B11C88F09F5798F0B92F99272F
:1037F000B751B0F0E1F0660F771F881F991F1AF0DC
:10380000BA95C9F714C0B13091F00E94CB1CB1E059
:1038100008950C94CB1C672F782F8827B85F39F058
:10382000B93FCCF3869577956795B395D9F73EF474
:1038300090958095709561957F4F8F4F9F4F08951C
:10384000E89409C097FB3EF490958095709561953A
:103850007F4F8F4F9F4F9923A9F0F92F96E9BB27F0
:103860009395F695879577956795B795F111F8CF6C
:10387000FAF4BB0F11F460FF1BC06F5F7F4F8F4FD7
:103880009F4F16C0882311F096E911C0772321F0CD
:103890009EE8872F762F05C0662371F096E8862F65
:1038A00070E060E02AF09A95660F771F881FDAF7BC
:1038B000880F9695879597F90895990F0008550FE9
:1038C000AA0BE0E8FEEF16161706E807F907C0F0A6
:1038D00012161306E407F50798F0621B730B840BAE
:1038E000950B39F40A2661F0232B242B252B21F488
:1038F00008950A2609F4A140A6958FEF811D811D28
:10390000089597F99F6780E870E060E008959FEF61
:1039100080EC089500240A94161617061806090666
:10392000089500240A941216130614060506089535
:10393000092E0394000C11F4882352F0BB0F40F4BD
:10394000BF2B11F460FF04C06F5F7F4F8F4F9F4FFD
:10395000089557FD9058440F551F59F05F3F71F07F
:103960004795880F97FB991F61F09F3F79F08795E6
:103970000895121613061406551FF2CF4695F1DF6F
:1039800008C0161617061806991FF1CF86957105FF
:10399000610508940895E894BB2766277727CB0133
:1039A00097F908950E94E51C0C94981C0E948A1CAB
:1039B00038F00E94911C20F0952311F00C94811C8A
:1039C0000C94871C11240C94CC1C0E94A91C70F32D
:1039D000959FC1F3950F50E0551F629FF001729FB4
:1039E000BB27F00DB11D639FAA27F00DB11DAA1FC3
:1039F000649F6627B00DA11D661F829F2227B00D10
:103A0000A11D621F739FB00DA11D621F839FA00D9A
:103A1000611D221F749F3327A00D611D231F849FEA
:103A2000600D211D822F762F6A2F11249F57504041
:103A30009AF0F1F088234AF0EE0FFF1FBB1F661FBC
:103A4000771F881F91505040A9F79E3F510580F085
:103A50000C94811C0C94CC1C5F3FE4F3983ED4F38F
:103A6000869577956795B795F795E7959F5FC1F729
:103A7000FE2B880F911D9695879597F90895DB0188
:103A80008F939F930E946F1DBF91AF91A29F800D56
:103A9000911DA39F900DB29F900D11240895991B25
:103AA00079E004C0991F961708F0961B881F7A9535
:103AB000C9F780950895AA1BBB1B51E107C0AA1F37
:103AC000BB1FA617B70710F0A61BB70B881F991FBF
:103AD0005A95A9F780959095BC01CD0108950E9453
:103AE000B71DA59F900DB49F900DA49F800D911DB3
:103AF000112408950F93083090F0982F872F762F78
:103B0000652F542F432F322F22270850F4CF220F36
:103B1000331F441F551F661F771F881F991F0A9563
:103B2000B2F70F91089597FB10F8169400080F93C1
:103B3000083098F00850232F342F452F562F672F29
:103B4000782F892F902DF4CF0594979587957795A9
:103B5000679557954795379527950A95AAF70F9139
:103B60000895EE0FFF1F0590F491E02D0994A29F98
:103B7000B001B39FC001A39F700D811D1124911D41
:103B8000B29F700D811D1124911D08950F931F93F5
:103B9000CF93DF93869F8001879F100D969F100D16
:103BA0001124C8010E94E21DEC01009729F0A80130
:103BB00060E070E00E940F1FCE01DF91CF911F9156
:103BC0000F910895CF93DF938230910510F482E036
:103BD00090E0E0917A02F0917B0220E030E0C0E0DA
:103BE000D0E0309711F14081518148175907C0F05A
:103BF0004817590761F482819381209719F09B83BC
:103C00008A832BC090937B0280937A0226C0211571
:103C1000310519F04217530718F49A01BE01DF016C
:103C2000EF010280F381E02DDCCF2115310509F190
:103C3000281B390B2430310590F412968D919C91FC
:103C400013976115710521F0FB019383828304C0F2
:103C500090937B0280937A02FD01329644C0FD016D
:103C6000E20FF31F81939193225031092D933C93DE
:103C70003AC02091780230917902232B41F42091AF
:103C80000201309103013093790220937802209150
:103C90000001309101012115310541F42DB73EB7E6
:103CA0004091040150910501241B350BE0917802ED
:103CB000F0917902E217F307A0F42E1B3F0B2817AF
:103CC000390778F0AC014E5F5F4F2417350748F095
:103CD0004E0F5F1F50937902409378028193919326
:103CE00002C0E0E0F0E0CF01DF91CF9108950F93A3
:103CF0001F93CF93DF93009709F48CC0FC01329798
:103D00001382128200917A0210917B020115110533
:103D100081F420813181820F931F209178023091AC
:103D200079022817390779F5F0937902E093780240
:103D300071C0D80140E050E0AE17BF0750F41296B2
:103D40002D913C911397AD012115310509F1D90150
:103D5000F3CF9D01DA013383228360817181860F65
:103D6000971F8217930769F4EC0128813981260F88
:103D7000371F2E5F3F4F318320838A819B8193833E
:103D80008283452B29F4F0937B02E0937A0242C0B0
:103D90001396FC93EE931297ED01499159919E0170
:103DA000240F351FE217F30771F480819181840F8E
:103DB000951F029611969C938E9382819381139600
:103DC0009C938E931297E0E0F0E0D80112968D91CB
:103DD0009C911397009719F0F8018C01F6CF8D9103
:103DE0009C9198012E5F3F4F820F931F2091780284
:103DF000309179022817390769F4309729F4109225
:103E00007B0210927A0202C013821282109379020E
:103E100000937802DF91CF911F910F910895DC01FB
:103E200001C06D9341505040E0F70895F894FFCFE2
:103E300000007C02800006FE05FE03FE07FC07FA78
:103E400007F607EE07DE07BE077E002054554E45F5
:103E50005200564F4C0042415300545245005355B6
:0C3E6000520041555800204D55544500BB
:00000001FF
