:100000000C9462000C941A0A0C94F2090C948A0065
:100010000C948A000C948A000C948A000C94480773
:100020000C948A000C948A000C948A000C948A0028
:100030000C948A000C948A000C948A000C948A0018
:100040000C9422060C948A000C9492060C946C0674
:100050000C948A000C948A000C948A000C948A00F8
:100060000C948A000C948A000000000024002700F1
:100070002A0000000000250028002B0000000008D6
:10008000000201000003040700000000000000005F
:10009000010204081020408001020408102001021F
:1000A000040810200000000023002600290004049A
:1000B0000404040404040202020202020303030310
:1000C0000303A71811241FBECFEFD8E0DEBFCDBFBA
:1000D00011E0A0E0B1E0E8ECFBE302C005900D9276
:1000E000A235B107D9F723E0A2E5B1E001C01D9226
:1000F000A932B207E1F710E0C2E6D0E004C02197D0
:10010000FE010E94781CC136D107C9F70E94420A3D
:100110000C94E21D0C9400003FB7F8948091880184
:1001200090918901A0918A01B0918B0126B5A89B7D
:1001300005C02F3F19F00196A11DB11D3FBFBA2F79
:10014000A92F982F8827820F911DA11DB11DBC01D9
:10015000CD0142E0660F771F881F991F4A95D1F79E
:100160000895CF92DF92EF92FF920F931F93CF9358
:10017000DF936C017A018B01C0E0D0E0CE15DF0582
:1001800089F0D8016D918D01D601ED91FC9101901E
:10019000F081E02DC6010995892B11F47E0102C082
:1001A0002196ECCFC701DF91CF911F910F91FF9066
:1001B000EF90DF90CF900895089580E090E008954B
:1001C000FC01538D448D252F30E0842F90E0821B5D
:1001D000930B541710F0CF96089501970895FC01E2
:1001E000918D828D981761F0828DDF01A80FB11D6E
:1001F0005D968C91928D9F5F9F73928F90E0089592
:100200008FEF9FEF0895FC01918D828D981731F04B
:10021000828DE80FF11D858D90E008958FEF9FEF9F
:100220000895FC01918D228D892F90E0805C9F4F75
:10023000821B91098F73992708958CE891E00E94A1
:10024000110121E0892B09F420E0822F0895FC019F
:10025000848DDF01A80FB11DA35ABF4F2C91848D4F
:1002600090E001968F739927848FA689B7892C9384
:10027000A089B1898C9180648C93938D848D98131F
:1002800006C00288F389E02D80818F7D80830895E8
:10029000EF92FF920F931F93CF93DF93EC0181E0D6
:1002A000888F9B8D8C8D981305C0E889F989808192
:1002B00085FD24C0F62E0B8D10E00F5F1F4F0F73CE
:1002C0001127E02E8C8DE8120CC00FB607FCFACF78
:1002D000E889F989808185FFF5CFCE010E94270149
:1002E000F1CF8B8DFE01E80FF11DE35AFF4FF08235
:1002F0000B8FEA89FB898081806207C0EE89FF89C4
:100300006083E889F98980818064808381E090E05E
:10031000DF91CF911F910F91FF90EF900895CF93B0
:10032000DF93EC01888D8823C9F0EA89FB898081FD
:1003300085FD05C0A889B9898C9186FD0FC00FB6CF
:1003400007FCF5CF808185FFF2CFA889B9898C9110
:1003500085FFEDCFCE010E942701E7CFDF91CF913E
:10036000089580E090E0892B29F00E941D01811101
:100370000C94000008950E94D61D2F923F924F9238
:100380005F926F927F928F929F92AF92BF92CF9225
:10039000DF92EF92FF920F931F93CF93DF93CDB72E
:1003A000DEB72E970FB6F894DEBF0FBECDBF3C016F
:1003B000B62E942E322E2CA0DDA01A8219821C8219
:1003C0001B821E821D8218861F821A8619861C8631
:1003D0001B861E861D86FC01962F20E02B15C9F07A
:1003E00081918E3231F4233069F4915081E088A7F5
:1003F0000EC08A3361F4233009F022C1915081E0AC
:100400008EA305C0263019F4915081E089A72F5F93
:10041000E5CF983060F080E40E94300780EC0E94C5
:1004200030078E85992009F445C0816043C092E071
:10043000690E711CFE0131962F0110E0F12CFB14A6
:1004400058F5F301329780818E3211F08A3361F4CE
:10045000F301123009F0319780810E946F08F20198
:10046000918380831F5F1BC0113081F4F3013197AA
:1004700080818E3211F08A3349F4F30180810E9429
:100480006F08F2019183808312E009C00E946F0817
:10049000F2019183808303C0F20111821082F394F0
:1004A000FFEF6F1A7F0A82E0480E511C97E0F912A5
:1004B000C6CFB1CF0E940A0781EC0E9430078D851C
:1004C0000E940A0783EC0E9430078C8531108160FE
:1004D0000E940A0784EC0E9430078B850E940A075D
:1004E00086EC0E9430078A85EFA1E11181600E94AD
:1004F0000A0787EC0E943007F9A58985F111806809
:100500000E940A0789EC0E943007888501118160EA
:100510000E940A078AEC0E9430078F81E1108068F0
:100520000E940A078CEC0E9430078E819EA19111D7
:1005300081600E940A078DEC0E943007E8A58D813A
:10054000E11180680E940A078FEC0E9430071B812E
:100550008C81CC2049F081600E940A0780ED0E94C6
:100560003007812F806806C00E940A0780ED0E9434
:100570003007812F0E940A0782ED0E9430071981FF
:100580008A810E940A0783ED0E943007812F0E9412
:100590000A0785EDAA2021F00E94300780E203C0FF
:1005A0000E94300780E00E940A0786ED882021F033
:1005B0000E94300784E003C00E94300780E00E9460
:1005C0000A0788ED0E9430078FEF0E940A0789ED25
:1005D0000E9430078BA1882371F0222031F0DD20AA
:1005E00011F08FE50BC087E509C0DD2011F08FE425
:1005F00005C087E403C0222051F187E10E940A0769
:1006000088E00E9430078FE80E943007449A2E96B7
:100610000FB6F894DEBF0FBECDBFDF91CF911F9113
:100620000F91FF90EF90DF90CF90BF90AF909F9091
:100630008F907F906F905F904F903F902F90089594
:10064000263009F0E4CE915081E08FA3E0CEDD208A
:1006500011F08FE0D3CF87E0D1CFCF93DF9320E0AD
:1006600030E090E0482F50E067E070E0E1E0F0E03B
:10067000DA01022E02C0B595A7950A94E2F7A0FF11
:100680000AC0DB01A21BB30BEF0102C0CC0FDD1FC0
:10069000AA95E2F79C2B2F5F3F4F2830310541F799
:1006A000892FDF91CF910895CF93DF9300D01F92D0
:1006B000CDB7DEB72A98000000000000000000005F
:1006C000000000000000000000000000000000002A
:1006D0002B834A8369830E946509000000000000A3
:1006E000000000000000000000000000000000000A
:1006F000000000002A9A6981862F0E9465094A81BC
:10070000842F0E9465092B81822F0E9465092A98F7
:1007100000000000000000000000000000000000D9
:10072000000000000000000000000F900F900F90EC
:10073000DF91CF9108958F929F92AF92BF92CF9207
:10074000DF92EF92FF920F931F93CF93DF93FC0101
:10075000C081D1812091790130917A01C217D307EC
:100760000CF04BC09E01220F331FE0917701F091F6
:100770007801E20FF31F80809180C170DD27F1E0E6
:10078000CF27209719F404E610E002C00CE91FEF10
:100790007A015B016C01040F151FB801C4010E94AE
:1007A0002B08892B99F40E0D1F1DB801C4010E945E
:1007B0002B08892B71F4B8016E0D7F1DC4010E94B6
:1007C0002B08892BE9F023E030E005C021E030E080
:1007D00002C022E030E0F50180819181019682170C
:1007E00093073CF0F50111821082F601808191811E
:1007F000019691838083CE0105C081E090E002C024
:100800008FEF9FEFDF91CF911F910F91FF90EF90AE
:10081000DF90CF90BF90AF909F908F900895CF932F
:10082000FC01A0912203B091230380818C93A091BD
:100830002203B0912303818111968C93A09122030E
:10084000B0912303828112968C938081863509F0C2
:1008500046C0809114039091150364E570E00E94F6
:10086000221C2CE0261B43E050E033E0A5E2B3E27B
:10087000C4E2211108C0E0912203F0912303E40FA8
:10088000F51F108226C0233070F4809122039091CE
:100890002303FC01E40FF51F223011F4C08301C0D3
:1008A000B08320E016C0233031F0822F632F0E94E6
:1008B000161C911106C0822F632F0E94161C9111E5
:1008C00008C0E0912203F0912303E40FF51FA083F9
:1008D00023504F5F5F4F4730510559F6B0C0E0914C
:1008E0002203F0912303823419F58091180390912B
:1008F0001903880F892F881F990B9195882331F14F
:10090000813041F1823051F1833061F1843099F1CD
:100910008530D1F1863009F443C0873009F048C0F2
:1009200081E38383E0912203F091230384E33FC0BA
:10093000843509F049C080911C0390911D0323E088
:10094000969587952A95E1F7811102C013821EC002
:10095000813011F4138226C0823011F41382E2CF69
:10096000833039F41382E0912203F091230386E36C
:100970001EC0843039F41382E0912203F0912303E6
:1009800088E315C0853041F481E38383E09122033D
:10099000F091230380E30BC0863011F0873041F4DF
:1009A00081E38383E0912203F091230382E3848334
:1009B000E0912203F091230384E68583E0912203F2
:1009C000F091230382E419C08335C9F480910E03AA
:1009D0001382E0912203F0912303882311F08FE426
:1009E0001AC08FE48483E0912203F091230386E40C
:1009F0008583E0912203F0912303868320C0813414
:100A0000F1F480910F031382E0912203F09123030C
:100A1000882341F089E48483E0912203F091230349
:100A20008EE407C086E48483E0912203F0912303DF
:100A30008DE48583E0912203F09123031682809157
:100A4000220390912303CF910895833081F028F4FD
:100A5000813099F08230A1F008958730A9F0883074
:100A6000B9F08430D1F4809180008F7D03C08091F3
:100A700080008F7780938000089584B58F7702C0BF
:100A800084B58F7D84BD08958091B0008F7703C0B9
:100A90008091B0008F7D8093B00008951F93CF9315
:100AA000DF93282F30E0F901E458FF4F8491F901DA
:100AB000E057FF4FD491F901E255FF4FC491CC2389
:100AC000C9F0162F81110E942505EC2FF0E0EE0FE2
:100AD000FF1FEE58FF4FA591B4918FB7F8941111F5
:100AE00005C09C91ED2FE095E92302C0EC91ED2B20
:100AF000EC938FBFDF91CF911F910895CF93DF9338
:100B000090E0FC01E057FF4F2491FC01E255FF4FBC
:100B10008491882361F190E0880F991FFC01E859C6
:100B2000FF4FC591D491FC01EE58FF4FA591B491B0
:100B3000611109C09FB7F89488812095822388832A
:100B4000EC912E230BC0623061F49FB7F89438818A
:100B5000822F809583238883EC912E2B2C939FBF2B
:100B600006C08FB7F894E8812E2B28838FBFDF91C2
:100B7000CF9108958F929F92AF92BF92CF92DF92C2
:100B8000EF92FF926B017C010E948C004B015C0193
:100B9000C114D104E104F104F1F00E948C00DC01E5
:100BA000CB0188199909AA09BB09883E9340A10580
:100BB000B10570F321E0C21AD108E108F10888EE0E
:100BC000880E83E0981EA11CB11CC114D104E1045D
:100BD000F10419F7DDCFFF90EF90DF90CF90BF9039
:100BE000AF909F908F9008951F93CF93DF93C6E0AF
:100BF000D1E088ED0E9430071881898122968160BA
:100C00000E940A0789ED0E943007812F80650E94AB
:100C10000A0762E370E080E090E00E94BA0581E09C
:100C2000CA31D80731F788ED0E9430078FEF0E9454
:100C30000A0789ED0E94300787E5DF91CF911F9168
:100C40000C940A071F920F920FB60F9211242F9344
:100C50003F938F939F93AF93BF938091690190913E
:100C60006A01A0916B01B0916C013091870123E082
:100C7000230F2D3720F40196A11DB11D05C026E8D4
:100C8000230F0296A11DB11D209387018093690156
:100C900090936A01A0936B01B0936C0180918801DD
:100CA00090918901A0918A01B0918B010196A11DBB
:100CB000B11D8093880190938901A0938A01B0931C
:100CC0008B01BF91AF919F918F913F912F910F9089
:100CD0000FBE0F901F9018951F920F920FB60F9294
:100CE00011242F933F934F935F936F937F938F9331
:100CF0009F93AF93BF93EF93FF938CE891E00E9493
:100D00002701FF91EF91BF91AF919F918F917F91BB
:100D10006F915F914F913F912F910F900FBE0F9068
:100D20001F9018951F920F920FB60F9211242F93B8
:100D30008F939F93EF93FF93E0919C01F0919D011E
:100D40008081E091A201F091A30182FD12C0908107
:100D50008091A5018F5F8F732091A601821751F0BA
:100D6000E091A501F0E0E457FE4F958F8093A50137
:100D700001C08081FF91EF919F918F912F910F90F2
:100D80000FBE0F901F90189580910D03823030F4A4
:100D9000F89482E093E00E94B00901C0F894609159
:100DA000090370910A0380910B0390910C037894CE
:100DB00008950F931F93CF93DF938C01C0E0D0E091
:100DC000C8010C2E02C0880F991F0A94E2F791FF08
:100DD00002C061E001C060E085E00E944E0561E074
:100DE00084E00E944E05C930D10521F461E085E020
:100DF0000E944E0560E084E00E944E052196CA30B4
:100E0000D105F1F660E085E0DF91CF911F910F9160
:100E10000C944E053B9A20E030E090E0AC01022EAD
:100E200002C0559547950A94E2F740FF02C0439AE5
:100E300001C0439845980000000000000000000039
:100E400000000000000000000000000000000000A2
:100E50000000459A2F5F3F4F28303105F9F608957D
:100E6000449A0000000000000000000000000000A4
:100E70000000000000000000000000000000000072
:100E80000000000000000000000044980C940A07D5
:100E90001F920F920FB60F9211242F933F934F93EF
:100EA0005F936F937F938F939F93AF93BF93CF93F2
:100EB000DF93EF93FF9320912A0230E0F901E45889
:100EC000FF4F8491F901E057FF4FD491F901E255AA
:100ED000FF4FC491CC23A1F081110E942505EC2F76
:100EE000F0E0EE0FFF1FEC55FF4FA591B491EC9190
:100EF000ED2331E020E009F430E0832F922F02C08F
:100F000080E090E020912E0230912F022F5F3F4F22
:100F100030932F0220932E0220912D02253618F0B7
:100F200026E020932902209129022430D9F128F4C7
:100F3000223069F02330D9F060C0253009F453C065
:100F4000263009F05AC021E02093FA0253C00097DE
:100F500009F053C020912E0230912F022436310522
:100F600008F443C01092FA0210922D021DC0813085
:100F7000910509F042C0E0912D0221E02E0F20934F
:100F80002D02F0E020912E0230912F02EE0FFF1F74
:100F9000E75DFD4F3087278310922F0210922E02BB
:100FA00024E029C00097B9F4E0912D0221E02E0F32
:100FB00020932D02F0E020912E0230912F02EE0FAF
:100FC000FF1FE75DFD4F3087278310922F0210929D
:100FD0002E0223E010C020912E0230912F022536E0
:100FE000310558F007C0009741F410922F0210927B
:100FF0002E0203C025E02093290220912C022223F7
:10100000B9F0892B51F480912B02882321F0809133
:101010002B0261E009C02D9A0BC080912B0288231E
:1010200031F080912B0260E00E944E0501C02D98A6
:10103000FF91EF91DF91CF91BF91AF919F918F91F0
:101040007F916F915F914F913F912F910F900FBEC4
:101050000F901F901895CF92DF92EF92FF92CF934F
:10106000DF93EC01072E000C880B990B0E94E91A04
:101070006B017C0120E030E040E45FE30E94991BBB
:1010800020E030E048E452E40E943F1A0E94B11A86
:10109000C617D707D4F020E030E040EA5FE3C7018D
:1010A000B6010E94991B20E030E048E452E40E941F
:1010B0003F1A20E030E040E85FE30E94CE190E9432
:1010C000B11A21E06C177D070CF420E0822F90E02C
:1010D000DF91CF91FF90EF90DF90CF900895382F60
:1010E000282F2F7D833209F4D1C0843251F085320C
:1010F00079F08D32A1F080E090E0303309F4C9C07E
:1011000003C088E290E52BC0313309F4C5C003C0A9
:101110008AE294E524C0323309F4C1C003C081E0FF
:1011200090E81DC0333309F4BDC0343309F4BDC0A9
:10113000353309F4BDC0363309F4BDC0373309F483
:10114000BDC0383339F0393341F0313459F03136DC
:1011500049F005C083E696EC02C083E496EC2234A5
:1011600019F405C083E296EC233419F4AAC085E68D
:101170009AE4343439F0343641F0353459F03536A8
:1011800031F408C080E390E602C083E694E8263498
:1011900019F405C081E692E4273421F406C081E207
:1011A00092E40895283421F406C082E692EC089572
:1011B000293421F406C083E294EC08952A3421F402
:1011C00006C088E492E108952B3421F406C082E43D
:1011D00094E008952C3421F406C085E298E4089543
:1011E0002D3421F406C080E690E408952E3421F4D5
:1011F00006C082E29CE608952F3421F406C086E200
:1012000094E60895203521F406C082E696E4089518
:10121000213521F406C081E296EC0895223521F4AF
:1012200006C086E696E40895233521F406C085E2DB
:101230009AE40895243521F406C085E492E40895E3
:10124000253521F406C088E092E10895263521F481
:1012500006C082E694E40895273521F406C080E3B1
:1012600098E40895283521F406C086E394E40895AF
:10127000293521F408C084E198E208952A3521F542
:1012800080E59AE0089588E098E2089580E290E48D
:1012900066CF82E79EE463CF82E094E060CF81E690
:1012A00096E85DCF82E496E85ACF83E094EC57CF7E
:1012B00083E492EC54CF83E692EC51CF82E096E047
:1012C0004ECF80E692E459CF08958EBD00000DB454
:1012D00007FEFDCF8EB508950F931F93CF93DF9335
:1012E000E091FF02F0910003108220E030E0C4E0C2
:1012F000D0E00AE010E04091FF0250910003253059
:10130000310570F4009761F0FE01E21BF30BE40F6E
:10131000F51FB8010E94221C805D8083CB0104C0B0
:10132000FA01E20FF31F10822F5F3F4F2730310584
:1013300011F7E091FF02F09100038081803309F4FE
:1013400010828091FF0290910003FC012481211101
:1013500002C020E32483DF91CF911F910F91089564
:10136000DC01ED91FD918081ED91FD919081ED91F8
:10137000FD916C9163708E2309F064609F2309F0E6
:101380006860EDECF9E0E60FF11D659565956D93EC
:101390006D917D918D919D91099423C01AC012C0C9
:1013A00016C010C01EC009C014C013C006C019C0AA
:1013B00009C00DC007C00DC014C06250704080400D
:1013C00090400BC0615070408040904006C06E5FFE
:1013D00001C06F5F7F4F8F4F9F4F9E938E937E9381
:1013E0006E9308951F920F920FB60F9211242F93B0
:1013F0003F934F935F936F937F938F939F93AF939D
:10140000BF93EF93FF938091FD029091FE020E94A3
:10141000B009FF91EF91BF91AF919F918F917F9113
:101420006F915F914F913F912F910F900FBE0F9051
:101430001F9018951F920F920FB60F9211242F93A1
:101440003F934F935F936F937F938F939F93AF934C
:10145000BF93EF93FF938091FB029091FC020E9457
:10146000B009FF91EF91BF91AF919F918F917F91C3
:101470006F915F914F913F912F910F900FBE0F9001
:101480001F901895CF93DF93CDB7DEB7AC970FB60B
:10149000F894DEBF0FBECDBF789484B5826084BD62
:1014A00084B5816084BD85B5826085BD85B5816068
:1014B00085BD80916E00816080936E0010928100E6
:1014C00080918100826080938100809181008160A1
:1014D0008093810080918000816080938000809162
:1014E000B10084608093B1008091B00081608093EE
:1014F000B00080917A00846080937A0080917A00B5
:10150000826080937A0080917A00816080937A0073
:1015100080917A00806880937A001092C100E091F7
:101520009C01F0919D0182E08083E0919801F0910F
:1015300099011082E0919A01F0919B018FEC8083D8
:101540001092A401E091A001F091A10186E08083B6
:10155000E0919E01F0919F01808180618083E09104
:101560009E01F0919F01808188608083E0919E01BF
:10157000F0919F01808180688083E0919E01F091CD
:101580009F0180818F7D808368EC70E080E090E037
:101590000E94BA0580E40E94300780EC0E94300768
:1015A0001AE180E00E940A071150D9F788E00E94F2
:1015B00030078FE80E943007449A1F9280915E01A5
:1015C0008F931F921F921F9280915D018F93809144
:1015D0005C018F9380905B01A0905A01C0905901EB
:1015E000E12C0091580120E040E066E08DE291E0BE
:1015F0000E94BD0160ED77E080E090E00E94BA05B6
:101600001FB7F8940FB6F894DEBF0FBECDBF809120
:101610005201811127C0E8EBF0E08491EAE9F0E0A3
:101620009491E82FF0E0EE0FFF1FE859FF4FA591CE
:10163000B491EC91E92321F461E08AE00E944E0527
:1016400061E08AE00E947E058CB580618CBD8CB51E
:1016500080648CBD61E08DE00E947E0561E08BE0DE
:101660000E947E05809152018F5F809352011FBFBF
:1016700082E58CBD81E08DBD7CE5E72E76E2F72E1C
:10168000F0928101E09280018EE180937E0128E258
:1016900048EA68E084E90E94540380E090E00E94F8
:1016A000B71980937F018823E9F1D82EDD0C1092C1
:1016B0008101109280018FEF8D0D90E00E94B7198B
:1016C000082F10E0102F0027109381010093800154
:1016D0008D2D90E00E94B719082B10938101009383
:1016E00080010C5516420330184020F0F092810121
:1016F000E092800110918001809181010E942D0370
:10170000482F812F4CA70E942D03682F21E44CA560
:1017100084E10E94540328E248EA67E584E90E94D4
:10172000540301C0000080918001909181018E528C
:1017300094409093600180935F0111E010935E01EB
:1017400010935D0110935C0110935B0110935A019B
:1017500010935901109358010E946C091F921F9316
:101760001F921F921F921F931F9388248394AA2471
:10177000A394CC24C394E12C01E020E040E067E096
:101780000E94BD0180E091E09093110380931003CB
:101790000E94D90689EF93E0909311038093100380
:1017A0000E94D90602E010E0109311030093100389
:1017B00082E090E00E94D90683E090E090931103CC
:1017C000809310030E94D906809114039091150311
:1017D000816090931103809310030E94D9061093A7
:1017E00011030093100382E090E00E94D906F89460
:1017F00082E08093B0008093B10094E69093B300B0
:101800001092B20080937000789480932902109215
:101810002D0280912A0260E00E947E050FB6F894A6
:10182000DEBF0FBECDBF22242394312C44244A9422
:10183000542C320168EC70E080E090E00E94BA0520
:1018400082E40E9430073B98000000000000000086
:101850000000000000000000000000000000000088
:101860000000000000000000000000000000000078
:1018700088E0339B05C090912403916090932403EA
:1018800090912403990F9093240345980000000041
:101890000000000000000000000000000000000048
:1018A00000000000000000000000459A0000000059
:1018B00000008150F1F6449A2FB7F89480916901A5
:1018C00090916A01A0916B01B0916C012FBF809340
:1018D000650190936601A0936701B0936801409100
:1018E00061015091620160916301709164018C010A
:1018F0009D01041B150B260B370BB901A801493BB1
:101900005B4061057105E0F1809361019093620194
:10191000A0936301B0936401809180019091810153
:101920008E5294409093600180935F0111E0109378
:101930005E0110935D0110935C0110935B011093A5
:101940005A0110935901109358010E946C091F927B
:101950001F931F921F921F921F931F93882483949B
:10196000AA24A394CC24C394E12C01E020E040E01D
:1019700067E00E94BD010FB6F894DEBF0FBECDBF79
:1019800010915701123009F45BC130F4112359F062
:10199000113009F4A9C004C3133009F4F8C114309C
:1019A00009F46DC2FDC20E94C4066B017C01D09295
:1019B0005601C09255012091530130915401621794
:1019C000730709F4EDC2D0925401C09253012091E3
:1019D00012033091130326173707D4F40091140330
:1019E000109115030930110518F0005111091EC09E
:1019F00008301105C9F5309211032092100381E0DF
:101A000090E00E94D90610921503109214032DC085
:101A10006217730754F50091140310911503C80160
:101A20000897803F934078F4005F1F4FC8018160A2
:101A300090931103809310030E94D906109315030D
:101A40000093140312C0012B79F489E090E0909385
:101A50001103809310030E94D906A8E0B0E0B09370
:101A60001503A093140301C00000D0921303C09289
:101A7000120310925E0110925D0111E010935C015F
:101A800010935B0110935A01109359011093580160
:101A900084E391E00E940F041F921F921F921F92F5
:101AA0001F921F921F9388248394AA24A394CC246A
:101AB000C394E12C01E020E040E067E00E94BD011A
:101AC0002FB7F8948091690190916A01A0916B0100
:101AD000B0916C012FBF8093610190936201A0933C
:101AE0006301B093640157C210925E0110925D01D0
:101AF00010935C0110935B0110935A0110935901EC
:101B00001093580188E391E00E940F041F921F92E6
:101B10001F921F921F921F921F9388248394AA24BE
:101B2000A394CC24C394E12C01E020E040E067E0E2
:101B30000E94BD010E94C4066B017C01D092560137
:101B4000C09255010FB6F894DEBF0FBECDBF2091F5
:101B50005301309154016217730709F421C2D092E6
:101B60005401C09253012091160330911703261798
:101B7000370714F50091180310911903C801805418
:101B800091098038934018F400581F4F21C0012B51
:101B900009F043C080911C0390911D0382649093CF
:101BA0001103809310030E94D90680E490E0909383
:101BB00019038093180332C0621773077CF50091F4
:101BC00018031091190301341105A0F000581109F0
:101BD00080911C0390911D038260802B912B909328
:101BE0001103809310030E94D906109319030093E8
:101BF000180314C00034110581F480911C039091E6
:101C00001D03826090931103809310030E94D906F4
:101C1000109219031092180301C00000D09217030C
:101C2000C0921603809114039091150381609093E4
:101C30001103809310030E94D90688E391E094C1B8
:101C400010925E0110925D0111E010935C011093FF
:101C50005B0110935A0110935901109358018CE3C2
:101C600091E00E940F041F921F921F921F921F92D9
:101C70001F921F9388248394AA24A394CC24C394F2
:101C8000E12C01E020E040E067E00E94BD010E94FD
:101C9000C4066B017C01D0925601C09255010FB66B
:101CA000F894DEBF0FBECDBF209153013091540197
:101CB0006217730709F474C1D0925401C0925301A2
:101CC00020911A0330911B0326173707E4F4009183
:101CD0001C0310911D03C8010497C89718F4085FEE
:101CE0001F4F1DC0012B09F03FC080911803909138
:101CF0001903866090931103809310030E94D90604
:101D000004E010E019C0621773077CF500911C0312
:101D100010911D0305301105A0F0085011098091A4
:101D20001803909119038260802B912B90931103DB
:101D3000809310030E94D90610931D0300931C0387
:101D400014C00430110581F4809118039091190397
:101D5000826090931103809310030E94D906109221
:101D60001D0310921C0301C00000D0921B03C092FF
:101D70001A038091140390911503816090931103CD
:101D8000809310030E94D9068CE391E0EDC010927D
:101D90005E0110925D0111E010935C0110935B01F4
:101DA00010935A01109359011093580180E491E067
:101DB0000E940F041F921F921F921F921F921F9248
:101DC0001F9388248394AA24A394CC24C394E12C45
:101DD00001E020E040E067E00E94BD010E94C406EF
:101DE0006B017C01D0925601C09255010FB6F89458
:101DF000DEBF0FBECDBF2091530130915401621759
:101E0000730709F4CDC0D0925401C09253012091C0
:101E10001E0330911F03261737071CF410930E037F
:101E200005C06217730714F410920E0380910E031D
:101E3000882339F0E0E2F1E0F0931103E09310031E
:101E400006C000E011E0109311030093100380918D
:101E50001003909111030E94D90680911403909170
:101E60001503816090931103809310030E94D9069B
:101E7000D0921F03C0921E0380E491E075C01092BF
:101E80005E0110925D0111E010935C0110935B0103
:101E900010935A01109359011093580184E491E072
:101EA0000E940F041F921F921F921F921F921F9257
:101EB0001F9388248394AA24A394CC24C394E12C54
:101EC00001E020E040E067E00E94BD010E94C406FE
:101ED0006B017C01D0925601C09255010FB6F89467
:101EE000DEBF0FBECDBF2091530130915401621768
:101EF000730709F455C0D0925401C0925301209148
:101F0000200330912103261737071CF410930F0389
:101F100005C06217730714F410920F0380910F032A
:101F2000882329F0109211031092100306C0E0E0FC
:101F3000F1E0F0931103E09310038091100390916E
:101F400011030E94D90680911403909115038160BA
:101F500090931103809310030E94D906D09221031D
:101F6000C092200384E491E00E940F041F921F920C
:101F70001F921F921F921F9221E02F938824839417
:101F8000AA24A394CC24C394E12C01E020E040E0F7
:101F900067E00E94BD010FB6F894DEBF0FBECDBF53
:101FA00080912403803261F480915701843020F4C1
:101FB0008F5F8093570102C0109257010E94F40571
:101FC00080912403883041F460917F0180E090E0AB
:101FD0000E94BF190E94F40580912403843009F007
:101FE0005DC000918001109181010D3526E212073C
:101FF000D8F00A5011091093810100938001812FBC
:102000000E942D03482F802F4CA70E942D03682F7C
:1020100021E44CA584E10E94540328E248EA67E5E4
:1020200084E90E94540306C08EE59EE290938101EC
:102030008093800180918001909181018E52944023
:102040009093600180935F0111E010935E01109204
:102050005D0110935C0110935B0110935A01109382
:102060005901109358010E946C091F921F931F92EF
:102070001F921F921F921F9388248394AA24A394D3
:10208000CC24C394E12C01E020E040E067E00E9412
:10209000BD010FB6F894DEBF0FBECDBF8091240303
:1020A000823009F05DC000918001109181010E35F0
:1020B0009EE21907D8F4065F1F4F10938101009329
:1020C0008001812F0E942D03482F802F4CA70E9452
:1020D0002D03682F21E44CA584E10E94540328E2DB
:1020E00048EA67E584E90E94540306C08CE596E25D
:1020F0009093810180938001809180019091810172
:102100008E5294409093600180935F0111E0109390
:102110005E0110925D0110935C0110935B011093BE
:102120005A0110935901109358010E946C091F9293
:102130001F931F921F921F921F921F9388248394B4
:10214000AA24A394CC24C394E12C01E020E040E035
:1021500067E00E94BD010FB6F894DEBF0FBECDBF91
:1021600080912403803109F051C080917F019091CA
:102170007E01891710F48F5F01C081E080937F0199
:1021800010917F01110F609181018FEF810F90E01D
:102190000E94BF1960918001812F90E00E94BF19B9
:1021A00080918001909181018E52944090936001C2
:1021B00080935F0111E010935E0110935D01109315
:1021C0005C0110935B0110935A0110935901109315
:1021D00058010E946C091F921F931F921F921F9219
:1021E0001F931F9388248394AA24A394CC24C3947C
:1021F000E12C01E020E040E067E00E94BD010E9488
:10220000F4050FB6F894DEBF0FBECDBF8091240356
:10221000803809F082C080917F0190917E018917FA
:1022200010F48F5F01C081E080937F01F0907F0107
:10223000FF0C10928101109280018FEF8F0D90E0C2
:102240000E94B719082F10E0102F0027109381016A
:10225000009380018F2D90E00E94B719082BC801D0
:102260008C5596428330984028F410938101009356
:10227000800106C08CE596E29093810180938001F5
:1022800010918001809181010E942D03482F812FA0
:102290004CA70E942D03682F21E44CA584E10E94E5
:1022A000540328E248EA67E584E90E9454038091D8
:1022B0008001909181018E529440909360018093AF
:1022C0005F0111E010935E0110935D0110935C01BA
:1022D00010935B0110935A01109359011093580108
:1022E0000E946C091F921F931F921F921F921F93AF
:1022F0001F9388248394AA24A394CC24C394E12C10
:1023000001E020E040E067E00E94BD010E94F4058A
:102310000FB6F894DEBF0FBECDBF8091240380348A
:10232000A9F528E248EA68E084E90E945403109283
:102330005E0110925D0181E080935C0180935B01FE
:1023400010925A0110925901109258011F921F9237
:102350001F921F921F921F928F9388248394A12C07
:10236000C12CE12C00E020E040E065E088E491E051
:102370000E94BD0180917F01815080937F010E9466
:10238000F4050FB6F894DEBF0FBECDBF80E392E038
:10239000909378018093770180912D0290E0909343
:1023A0007A01809379018091FA0290E090937C0108
:1023B00080937B0180912902853009F073C280915E
:1023C000320290913302885891098D35910588F435
:1023D00080912D02843041F4809134029091350235
:1023E0008097479708F47BC280912D02843408F0CF
:1023F0005DC280912D028A3108F44FC08091300275
:1024000090913102843F914068F4109276011092CD
:102410007501409271015092720160927301709245
:10242000740159C0809132029091330285974B9785
:10243000A0F5E6E3F2E082E090E0C12CD12C760139
:10244000AC014F5F5F4F20912D0230E042175307E0
:102450005CF4DF0112972D913C9127503109273010
:10246000310508F482C2CA0101979595879590932A
:102470007601809375010C972CF4109276011092DE
:1024800075010BC0C0927101D0927201E09273018C
:10249000F092740184E090E089C380912D028A312A
:1024A00008F44CC080913002909131028032934008
:1024B00008F4ABCF8091320290913302C697869791
:1024C00008F470C23BC0C0927101D0927201E092D8
:1024D0007301F09274018BE090E068C32081318138
:1024E000255231092B31310508F06CC2CC0CDD1CB2
:1024F000EE1CFF1C6894C0F802963496AC014F5F46
:102500005F4F20912D0230E04217530754F4DF0152
:1025100012972D913C912C5031092B303105F0F25E
:10252000CA010197959587959093760180937501DF
:102530000C974CF6109276011092750180912D0245
:102540008232E8F180913202909133020697079728
:10255000B0F5E6E3F2E082E090E0C12CD12C760108
:102560009C012F5F3F4F40912D0250E0241735070B
:102570006CF4DF0112974D915C9111974E51510906
:102580004731510508F442C22AC2C9010197959505
:102590008795909376018093750140972CF4109263
:1025A0007601109275010BC0C0927101D092720138
:1025B000E0927301F09274018CE090E0F7C21BA2EC
:1025C0001AA23A82298280912D028D3008F46DC0C2
:1025D00049E753E0BE016E5D7F4FCE0101960E9438
:1025E0009B03892B09F061C049E753E0BE016E5D92
:1025F0007F4FCE0101960E949B03019709F055C0C1
:1026000049E753E0BE016E5D7F4FCE0101960E9407
:102610009B03892B09F049C0812C912C540100E0C7
:1026200010E080912D0290E029813A812817390726
:102630005CF549E753E0BE016E5D7F4FCE01019628
:102640000E949B037C0149E753E0BE016E5D7F4F12
:10265000CE0101960E949B03B1E0EB16F10449F410
:10266000892B19F5880C991CAA1CBB1C689480F84E
:1026700008C0EF28D1F40197C1F4880C991CAA1C5A
:10268000BB1C0F5F1F4FCDCF1093760100937501D8
:102690008092710190927201A0927301B0927401C4
:1026A00030926E0120926D01B8C01BA21AA23A822C
:1026B00029828091790190917A01181619060CF0FF
:1026C00058C0E0917701F091780182E090E09A8320
:1026D00089838281938189974E9708F04AC083E06D
:1026E00090E09A838983848195810B970A9708F0FB
:1026F00040C04CEB51E0BE016E5D7F4FCE010196B4
:102700000E949B03892BA9F54CEB51E0BE016E5D45
:102710007F4FCE0101960E949B03019751F5812CBA
:10272000912C540100E010E029813A8180917901D7
:1027300090917A01281739070CF0A5C14CEB51E0B4
:10274000BE016E5D7F4FCE0101960E949B036C011E
:102750000330110509F061C14CEB51E0BE016E5D23
:102760007F4FCE0101960E949B03C816D90609F43B
:1027700054C1E0917701F091780182819381C697ED
:10278000869708F09CC1848195814B97459708F006
:1027900096C1DF0116967F0106ECE00EF11C20E0E9
:1027A00030E040E050E060E070E080E090E00D91CB
:1027B0001C911197095011090830110508F07FC1CB
:1027C00012960D911C911397015111090D301105AD
:1027D00008F068C101E00E94411C21601496AE150A
:1027E000BF0529F720937101309372014093730163
:1027F0005093740100E20E945C1C20936F0130939F
:10280000700185E090E090936E0180936D0180E30C
:1028100090E0909376018093750100917101109181
:102820007201209173013091740119A2BE016F5D94
:102830007F4FD901C8018F709927AA27BB2744E091
:1028400036952795179507954A95D1F761507109E7
:102850008A309105A105B10508F0ADC1805DDB01AD
:102860008C93011511052105310519F761157105C5
:1028700061F0FB0101900020E9F73197AF01461BA1
:10288000570B8CE891E00E94B10042E050E06EE40A
:1028900071E08CE891E00E94B10082E0809329020F
:1028A00010922D020E94B1010C941A0C80913402F6
:1028B00090913502825491098E9708F09ACD80E06C
:1028C00090E040E050E0BA01FC01EA5CFD4F20815D
:1028D00031812950310929303105B0F08ACD8091FC
:1028E0003602909137020997099708F07DCD109232
:1028F00076011092750140927101509272016092BE
:1029000073017092740121C0FC01E85CFD4F2081CD
:1029100031812751310922313105D0F4440F551F3F
:10292000661F771F416004968038910569F680E242
:1029300090E09093760180937501409371015093DC
:102940007201609373017093740183E090E02EC173
:1029500020813181265031092730310508F049CDD9
:10296000440F551F661F771FDECF20813181235111
:1029700031092F30310578F0208131812A50310919
:102980002930310508F089CDCC0CDD1CEE1CFF1C74
:102990000296349655CDCC0CDD1CEE1CFF1C6894C1
:1029A000C0F8F6CF8091340290913502C697869791
:1029B00008F0C4CDE8E3F2E083E090E0C12CD12C34
:1029C00076019CCD208131812C5031092A3031058E
:1029D00008F0B4CDCC0CDD1CEE1CFF1C8DCD4D9150
:1029E0005C914C5051094B30510508F0E8CDCC0CAE
:1029F000DD1CEE1CFF1C408151813496435051096F
:102A00004530510508F0C1CD0296AACDCC0CDD1C95
:102A1000EE1CFF1C6894C0F8EECF4CEB51E0BE01F9
:102A20006E5D7F4FCE0101960E949B037C010330B7
:102A3000110569F44CEB51E0BE016E5D7F4FCE0194
:102A400001960E949B03E816F90609F092CEC11484
:102A5000D10459F4EA94EF2809F08BCE880C991C24
:102A6000AA1CBB1C689480F80BC0CA94CD2809F03E
:102A700080CEEF2809F07DCE880C991CAA1CBB1CC7
:102A80000F5F1F4F51CE1093760100937501809216
:102A9000710190927201A0927301B092740182E070
:102AA00090E084C012960D911C9113970450110967
:102AB0000530110520F401E00E94411C8FCE809169
:102AC0002D02893340F082819381895791098335A2
:102AD000910508F411C180912D02823209F46DC074
:102AE00082819381895791098335910508F47FC1CB
:102AF000828193818C549109C59708F4DDC180913E
:102B00002D02863408F060C080912D02883508F0CF
:102B100062C080912D02803209F066C0828193816B
:102B20000697069708F060C08481958109970997F8
:102B300008F05AC09F012A5F3F4FBF01625C7F4F80
:102B4000C12CD12C7601D9014D915C91465051098F
:102B50004630510508F048C0D90112964D915C915C
:102B60001397495151094331510508F0DEC2D7018D
:102B7000C601880F991FAA1FBB1F6C017D016894B5
:102B8000C0F82C5F3F4F26173707E9F62EE030E0FC
:102B90003093760120937501C0927101D092720139
:102BA000E0927301F09274018FE090E090936E01D7
:102BB00080936D0132CE895C52CE828193810A97D7
:102BC000099708F4F8C08CCF828193810C970B97FA
:102BD00008F4E3C199CF82819381855891098B359F
:102BE000910508F486C295CF0091790110917A0180
:102BF0001FA30EA3063011050CF44FCE8F010A5F00
:102C00001F4F23E030E03DA32CA365ECC62E6DE9F9
:102C1000D62E6CE1E62E61E8F62ED8016D917C91FE
:102C2000F8013497A080B18080E090E00E94E71A1C
:102C300068A779A78AA79BA7B50180E090E00E94CA
:102C4000E71A4B015C012DEC3CEC4CE45FE30E9485
:102C5000991B9B01AC0168A579A58AA59BA50E943B
:102C60003A1A87FD19C02DEC3CEC4CE45FE368A5F3
:102C700079A58AA59BA50E94991B9B01AC01C50162
:102C8000B4010E943A1AE82F880FFF0BEE27FF0FBE
:102C9000EE1FFF27319602C0E0E0F0E0A7019601A9
:102CA00063E971E080E091E00E94061C6F01FF0F74
:102CB000EE08FF08C626D726E826F926ECA1FDA1D6
:102CC0003196FDA3ECA30E5F1F4F2EA13FA1E2178B
:102CD000F30709F0A2CFC0927101D0927201E09285
:102CE0007301F092740180E290E0909376018093FA
:102CF00075018FEF9FEF5ACF84819581CA9789978D
:102D000008F0E9CE9F012A5F3F4FC12CD12C7601FC
:102D100043E050E0D9016D917C916A5071096930AE
:102D2000710508F0D8CED90112966D917C91139758
:102D3000665171096131710570F5D701C601880FBF
:102D4000991FAA1FBB1F6C017D016894C0F84E5FDC
:102D50005F4F2C5F3F4F4B335105E1F69F012A58DF
:102D60003F4FD9012D913C912A503109293031052D
:102D700008F0B1CE2CE130E030937601209375015C
:102D8000C0927101D0927201E0927301F0927401CD
:102D90008AE090E00BCFD90112966D917C91139748
:102DA000665071096730710508F095CECC0CDD1CBA
:102DB000EE1CFF1CCCCF20912D02CF01820F911D64
:102DC000820F911DDC0112978D919C910A970997B2
:102DD00008F086CE10927601109275014092710132
:102DE00050927201609273017092740162C080917E
:102DF0002D02813208F47CCE84819581CA9789970F
:102E000008F076CE9F012A5F3F4FC12CD12C76016E
:102E100043E050E0D9016D917C916A5071096930AD
:102E2000710508F065CED90112966D917C911397CA
:102E3000665171096131710560F5D701C601880FCE
:102E4000991FAA1FBB1F6C017D016894C0F84E5FDB
:102E50005F4F2C5F3F4F43325105E1F69F012A5BE4
:102E60003F4FD9012D913C912A503109293031052C
:102E700008F03ECE20E130E03093760120937501DA
:102E8000C0927101D0927201E0927301F0927401CC
:102E900010C0D90112966D917C91139766507109FB
:102EA0006730710508F024CECC0CDD1CEE1CFF1C35
:102EB000CECF86E090E07ACE80912D02843029F446
:102EC0008481958180974797F0F080912D0284341A
:102ED00008F415CE8481958189549109C39708F02F
:102EE0000ECE9F012A5F3F4FBF016A577F4FC12C13
:102EF000D12C7601D9014D915C914950510949304D
:102F0000510598F0FCCD8681978109970997E8F6DD
:102F100010927601109275014092710150927201E7
:102F200060927301709274010FC1D90112964D9194
:102F30005C9113974651510941315105F0F4D70185
:102F4000C601880F991FAA1FBB1F6C017D016894E1
:102F5000C0F82C5F3F4F2617370761F620E230E0BC
:102F60003093760120937501C0927101D092720165
:102F7000E0927301F0927401E7C0D90112964D916D
:102F80005C911397465051094730510508F0B7CD71
:102F9000CC0CDD1CEE1CFF1CDCCF848195810997D5
:102FA000099708F0B1CD868197818C974F9708F0EB
:102FB000ABCD8085918589974D9708F0A5CD9F0170
:102FC000265F3F4FC12CD12C760145E050E0D9015E
:102FD0006D917C916C5071096B30710508F094CD46
:102FE000D90112966D917C9113976E5171096731D9
:102FF000710590F112966D917C911397695071094A
:103000006930710508F080CDCC0CDD1CEE1CFF1C76
:103010004E5F5F4F2C5F3F4F45345105C1F69F0116
:1030200026573F4FD9012D913C912C5031092B301F
:10303000310508F069CD20E230E03093760120932D
:103040007501C0927101D0927201E0927301F09209
:103050007401E8E0F0E048C0D701C601880F991F6D
:10306000AA1FBB1F6C017D016894C0F8D1CFA801D5
:1030700042505109DA014D915C9149505109483053
:10308000510508F046CDBC016F5F7F4FD8014D91CF
:103090005C914750510947305105D0F5220F331F3D
:1030A000216002960C5F1F4F40912D0250E044506A
:1030B000510984179507DCF20197959587959093B0
:1030C0007601809375018A970CF423CDC901330FE3
:1030D000AA0BBB0B8093710190937201A0937301B3
:1030E000B0937401E9E0F0E0F0936E01E0936D01BC
:1030F00094CB84819581825491098E9708F009CDF3
:103100008F01045C1F4F8DE190E020E030E0CCCFD8
:10311000D8014D915C91485151094231510510F04F
:10312000CB01CACF220F331FBCCF12964D915C91B9
:103130001397495051094930510508F055CDCC0C31
:10314000DD1CEE1CFF1C1DCD87E090E02FCDCF9342
:10315000DF9310928F0110928E0188EE93E0A0E031
:10316000B0E08093900190939101A0939201B0936D
:1031700093018FE191E090938D0180938C0185EC18
:1031800090E0909399018093980184EC90E0909363
:103190009B0180939A0180EC90E090939D01809335
:1031A0009C0181EC90E090939F0180939E0182ECC2
:1031B00090E09093A1018093A00186EC90E0909321
:1031C000A3018093A2011092A5011092A601109272
:1031D000A7011092A8011092240361E083E10E94EC
:1031E0007E0561E082E10E947E0561E081E10E944E
:1031F0007E05449A459A439A10920E0310920F034B
:1032000010921103109210031092130310921203E4
:1032100088E091E0909315038093140310921703B4
:1032200010921603109219031092180310921B03A8
:1032300010921A0310921D0310921C0310921F0388
:1032400010921E03109221031092200361E070E09F
:1032500087E090E00E948D1C9093230380932203CB
:1032600061E084E00E947E0561E085E00E947E05C9
:1032700060E084E00E944E0560E085E00E944E051B
:1032800062E083E00E947E0562E082E00E947E05AB
:10329000E1EBF0E0E491F0E0EE0FFF1FEC55FF4FA3
:1032A000A591B491B0930303A0930203E3E9F0E086
:1032B000849180930603E0EBF0E0E491F0E0EE0F00
:1032C000FF1FEC55FF4FC591D491D0930503C093D8
:1032D0000403E2E9F0E0E491E093070310920903AC
:1032E00010920A0310920B0310920C03EBE3FFE120
:1032F0003197F1F7EC91E82381E009F480E028812F
:1033000090910703922309F0826022E033E08093DA
:1033100008033093FE022093FD0280916900837FB1
:10332000846080936900E99A81E080930D03309373
:10333000FC022093FB02809169008C7F8160809366
:103340006900E89A82E080930D0387E080932A0267
:1033500010922C0261E070E087E090E00E948D1CEA
:10336000909300038093FF02DF91CF910895F99924
:10337000FECF92BD81BDF89A992780B50895262F7A
:10338000F999FECF1FBA92BD81BD20BD0FB6F8944A
:10339000FA9AF99A0FBE019608955058BB27AA27AA
:1033A0000E94E5190C945F1B0E94511B38F00E948B
:1033B000581B20F039F49F3F19F426F40C944E1B4F
:1033C0000EF4E095E7FB0C94481BE92F0E94701B5C
:1033D00058F3BA17620773078407950720F079F44A
:1033E000A6F50C94921B0EF4E0950B2EBA2FA02D8F
:1033F0000B01B90190010C01CA01A0011124FF27A2
:10340000591B99F0593F50F4503E68F11A16F0409C
:10341000A22F232F342F4427585FF3CF469537959B
:103420002795A795F0405395C9F77EF41F16BA0B60
:10343000620B730B840BBAF09150A1F0FF0FBB1F0E
:10344000661F771F881FC2F70EC0BA0F621F731F57
:10345000841F48F4879577956795B795F7959E3FB4
:1034600008F0B0CF9395880F08F09927EE0F979545
:10347000879508950E94241B08F481E008950E9416
:10348000531A0C945F1B0E94581B58F00E94511B4A
:1034900040F029F45F3F29F00C94481B51110C9423
:1034A000931B0C944E1B0E94701B68F39923B1F37D
:1034B000552391F3951B550BBB27AA27621773075A
:1034C000840738F09F5F5F4F220F331F441FAA1FEE
:1034D000A9F335D00E2E3AF0E0E832D091505040AA
:1034E000E695001CCAF72BD0FE2F29D0660F771F58
:1034F000881FBB1F261737074807AB07B0E809F03E
:10350000BB0B802DBF01FF2793585F4F3AF09E3FC2
:10351000510578F00C94481B0C94931B5F3FE4F327
:10352000983ED4F3869577956795B795F7959F5F05
:10353000C9F7880F911D9695879597F90895E1E051
:10354000660F771F881FBB1F621773078407BA07B0
:1035500020F0621B730B840BBA0BEE1F88F7E0950B
:1035600008950E94B81A6894B1110C94931B0895A1
:103570000E94781B88F09F5798F0B92F9927B75170
:10358000B0F0E1F0660F771F881F991F1AF0BA9507
:10359000C9F714C0B13091F00E94921BB1E00895B8
:1035A0000C94921B672F782F8827B85F39F0B93FAA
:1035B000CCF3869577956795B395D9F73EF49095BA
:1035C0008095709561957F4F8F4F9F4F0895E89438
:1035D00009C097FB3EF490958095709561957F4F5B
:1035E0008F4F9F4F9923A9F0F92F96E9BB27939509
:1035F000F695879577956795B795F111F8CFFAF419
:10360000BB0F11F460FF1BC06F5F7F4F8F4F9F4F49
:1036100016C0882311F096E911C0772321F09EE8A7
:10362000872F762F05C0662371F096E8862F70E00D
:1036300060E02AF09A95660F771F881FDAF7880FE7
:103640009695879597F90895990F0008550FAA0B3D
:10365000E0E8FEEF16161706E807F907C0F01216A5
:103660001306E407F50798F0621B730B840B950BA8
:1036700039F40A2661F0232B242B252B21F40895FD
:103680000A2609F4A140A6958FEF811D811D08959A
:1036900097F99F6780E870E060E008959FEF80EC05
:1036A000089500240A9416161706180609060895A8
:1036B00000240A9412161306140605060895092E0E
:1036C0000394000C11F4882352F0BB0F40F4BF2B7D
:1036D00011F460FF04C06F5F7F4F8F4F9F4F0895BD
:1036E00057FD9058440F551F59F05F3F71F04795B3
:1036F000880F97FB991F61F09F3F79F08795089598
:10370000121613061406551FF2CF4695F1DF08C0B6
:10371000161617061806991FF1CF869571056105D3
:1037200008940895E894BB2766277727CB0197F97B
:1037300008950E94AC1B0C945F1B0E94511B38F033
:103740000E94581B20F0952311F00C94481B0C94F8
:103750004E1B11240C94931B0E94701B70F3959FB9
:10376000C1F3950F50E0551F629FF001729FBB2778
:10377000F00DB11D639FAA27F00DB11DAA1F649F14
:103780006627B00DA11D661F829F2227B00DA11DC7
:10379000621F739FB00DA11D621F839FA00D611D4D
:1037A000221F749F3327A00D611D231F849F600D6E
:1037B000211D822F762F6A2F11249F5750409AF097
:1037C000F1F088234AF0EE0FFF1FBB1F661F771F23
:1037D000881F91505040A9F79E3F510580F00C94EE
:1037E000481B0C94931B5F3FE4F3983ED4F38695FB
:1037F00077956795B795F795E7959F5FC1F7FE2B8E
:10380000880F911D9695879597F90895DB018F9301
:103810009F930E94361CBF91AF91A29F800D911D76
:10382000A39F900DB29F900D11240895991B79E0EC
:1038300004C0991F961708F0961B881F7A95C9F740
:1038400080950895AA1BBB1B51E107C0AA1FBB1F8F
:10385000A617B70710F0A61BB70B881F991F5A951C
:10386000A9F780959095BC01CD0108950E947E1C1A
:10387000A59F900DB49F900DA49F800D911D1124C4
:1038800008950F93083090F0982F872F762F652F8B
:10389000542F432F322F22270850F4CF220F331FEB
:1038A000441F551F661F771F881F991F0A95B2F77F
:1038B0000F91089597FB10F8169400080F930830A5
:1038C00098F00850232F342F452F562F672F782F2D
:1038D000892F902DF4CF05949795879577956795C7
:1038E00057954795379527950A95AAF70F9108950B
:1038F000EE0FFF1F0590F491E02D0994A29FB001F7
:10390000B39FC001A39F700D811D1124911DB29F13
:10391000700D811D1124911D08950F931F93CF9356
:10392000DF93869F8001879F100D969F100D1124B5
:10393000C8010E94A91CEC01009729F0A80160E0D1
:1039400070E00E94DB1DCE01DF91CF911F910F919E
:103950000895CF93DF938230910510F482E090E0D8
:10396000E0912703F091280320E030E0C0E0D0E0B0
:10397000309711F14081518148175907C0F048171D
:10398000590761F482819381209719F09B838A8380
:103990002BC0909328038093270326C0211531055F
:1039A00019F04217530718F49A01BE01DF01EF0125
:1039B0000280F381E02DDCCF2115310509F1281BB0
:1039C000390B2430310590F412968D919C91139708
:1039D0006115710521F0FB019383828304C09093EC
:1039E000280380932703FD01329644C0FD01E20FB6
:1039F000F31F81939193225031092D933C933AC048
:103A00002091250330912603232B41F420910201BC
:103A10003091030130932603209325032091000168
:103A2000309101012115310541F42DB73EB7409188
:103A3000040150910501241B350BE0912503F09101
:103A40002603E217F307A0F42E1B3F0B28173907B4
:103A500078F0AC014E5F5F4F2417350748F04E0FEA
:103A60005F1F50932603409325038193919302C0D7
:103A7000E0E0F0E0CF01DF91CF9108950F931F9325
:103A8000CF93DF93009709F48CC0FC013297138227
:103A9000128200912703109128030115110581F46A
:103AA00020813181820F931F2091250330912603BD
:103AB0002817390779F5F0932603E093250371C0A1
:103AC000D80140E050E0AE17BF0750F412962D9198
:103AD0003C911397AD012115310509F1D901F3CFBF
:103AE0009D01DA013383228360817181860F971FE4
:103AF0008217930769F4EC0128813981260F371F5B
:103B00002E5F3F4F318320838A819B819383828301
:103B1000452B29F4F0932803E093270342C0139622
:103B2000FC93EE931297ED01499159919E01240F58
:103B3000351FE217F30771F480819181840F951F7F
:103B4000029611969C938E938281938113969C93F7
:103B50008E931297E0E0F0E0D80112968D919C913F
:103B60001397009719F0F8018C01F6CF8D919C9175
:103B700098012E5F3F4F820F931F209125033091B4
:103B800026032817390769F4309729F4109228037F
:103B90001092270302C0138212821093260300930F
:103BA0002503DF91CF911F910F91089581E090E05F
:103BB000F8940C94E21DDC0101C06D93415050401B
:083BC000E0F70895F894FFCF2F
:103BC80000002903800006FE05FE03FE07FC07FA35
:103BD80007F607EE07DE07BE077E00000000004874
:103BE80001B100E0008F011101EF000301205455DD
:103BF8004E455200564F4C00424153005452450026
:103C08005355520041555800204D555445000D0A52
:023C18000000AA
:00000001FF
