:100000000C945D000C947A000C947A000C947A00A5
:100010000C947A000C947A000C947A000C947A0078
:100020000C947A000C947A000C947A000C947A0068
:100030000C947A000C947A000C947A000C947A0058
:100040000C947F010C947A000C947A000C947A0042
:100050000C947A000C947A000C947A000C947A0038
:100060000C947A000C947A00000000080002010051
:100070000003040700000000000000000000000072
:10008000250028002B0000000000240027002A0083
:10009000040404040404040402020202020203032E
:1000A0000303030301020408102040800102040836
:1000B0001020010204081020AD0211241FBECFEF52
:1000C000D8E0DEBFCDBF21E0A0E0B1E001C01D92CD
:1000D000AA30B207E1F710E0CDE5D0E004C02197E7
:1000E000FE010E94C402CC35D107C9F70E94C901A4
:1000F0000C94CA020C94000090E0FC01EC55FF4FF8
:100100002491FC01E057FF4F8491882399F090E0FF
:10011000880F991FFC01EA57FF4FA591B491FC018C
:10012000E458FF4F859194918FB7F894EC91E22BAE
:10013000EC938FBF089590E0FC01E859FF4F349194
:10014000FC01EC55FF4F2491FC01E057FF4FE49177
:10015000EE2309F43BC0332339F1333091F038F406
:100160003130A9F0323001F584B58F7D12C03730BF
:1001700091F03830A1F03430B9F4809180008F7D57
:1001800003C0809180008F77809380000DC084B57C
:100190008F7784BD09C08091B0008F7703C08091B4
:1001A000B0008F7D8093B000F0E0EE0FFF1FE458A9
:1001B000FF4FA591B4918FB7F894EC91611103C0F2
:1001C00020952E2301C02E2B2C938FBF08950F93C3
:1001D0001F93CF93DF93082F81E10E947C00C0E042
:1001E000D0E010E0C8010C2E02C0959587950A94C6
:1001F000E2F780FF02C061E001C060E081E10E949F
:100200009B0060E083E10E949B0061E083E10E942B
:100210009B002196C830D10529F7DF91CF911F911E
:100220000F910895CF93C82F61E082E10E949B0057
:1002300060E082E10E949B008C2FCF910C94E7003C
:100240003FB7F8948091050190910601A0910701B4
:10025000B091080126B5A89B05C02F3F19F0019663
:10026000A11DB11D3FBFBA2FA92F982F8827820F3C
:10027000911DA11DB11DBC01CD0142E0660F771F8C
:10028000881F991F4A95D1F708958F929F92AF9238
:10029000BF92CF92DF92EF92FF926B017C010E949E
:1002A00020014B015C01C114D104E104F104F1F01F
:1002B0000E942001DC01CB0188199909AA09BB0918
:1002C000883E9340A105B10570F321E0C21AD10820
:1002D000E108F10888EE880E83E0981EA11CB11C8D
:1002E000C114D104E104F10419F7DDCFFF90EF90C0
:1002F000DF90CF90BF90AF909F908F9008951F9206
:100300000F920FB60F9211242F933F938F939F93C9
:10031000AF93BF938091010190910201A0910301DD
:10032000B09104013091000123E0230F2D3720F418
:100330000196A11DB11D05C026E8230F0296A11D3F
:10034000B11D209300018093010190930201A093BD
:100350000301B09304018091050190910601A091E1
:100360000701B09108010196A11DB11D80930501FF
:1003700090930601A0930701B0930801BF91AF913C
:100380009F918F913F912F910F900FBE0F901F90D3
:100390001895789484B5826084BD84B5816084BDED
:1003A00085B5826085BD85B5816085BD80916E0013
:1003B000816080936E001092810080918100826044
:1003C0008093810080918100816080938100809181
:1003D00080008160809380008091B1008460809370
:1003E000B1008091B00081608093B00080917A006C
:1003F000846080937A0080917A00826080937A0092
:1004000080917A00816080937A0080917A00806880
:1004100080937A001092C1008DE00E947C0068EC0D
:1004200070E080E090E00E94450180E40E941201AB
:1004300080EC0E941201CAE180E00E94E700C150F6
:10044000D9F788E00E9412018FE80E94120161E052
:1004500082E10E949B0068EE73E080E090E00E94E1
:10046000450180E40E94120180EC0E94120185E4A3
:100470000E94E70081EC0E94120182E60E94E700E0
:1004800083EC0E94120181E00E94E70084EC0E944C
:10049000120180E00E94E70086EC0E9412018BE0CE
:1004A0000E94E70087EC0E94120180E50E94E700AD
:1004B00089EC0E94120189E20E94E7008AEC0E9406
:1004C000120188E80E94E7008CEC0E94120189E288
:1004D0000E94E7008DEC0E94120184E10E94E70077
:1004E0008FEC0E94120185E40E94E70080ED0E94DB
:1004F000120186EB0E94E70082ED0E94120188E45F
:100500000E94E70083ED0E94120180E30E94E70051
:1005100088E00E9412018FE80E94120161E082E1EE
:100520000E949B00C0E0D0E061E08DE00E949B0053
:1005300068EE73E080E090E00E94450160E08DE0AD
:100540000E949B0068EE73E080E090E00E9445010D
:10055000209751F30E940000E7CF1092090183E138
:100560000E947C0082E10E947C0081E10E947C006C
:1005700061E082E10E949B0061E083E10E949B00B8
:1005800061E081E10C949B00EE0FFF1F0590F49158
:08059000E02D0994F894FFCF5F
:00000001FF
