:100000000C945D000C9485000C9485000C94850084
:100010000C9485000C9485000C9485000C9485004C
:100020000C9485000C9485000C9485000C9485003C
:100030000C9485000C9485000C9485000C9485002C
:100040000C944D040C9485000C9485000C94850050
:100050000C9485000C9485000C9485000C9485000C
:100060000C9485000C94850000000008000201003B
:100070000003040700000000000000000000000072
:10008000250028002B0000000000240027002A0083
:10009000040404040404040402020202020203032E
:1000A0000303030301020408102040800102040836
:1000B0001020010204081020940711241FBECFEF66
:1000C000D8E0DEBFCDBF11E0A0E0B1E0E2E6F2E1B2
:1000D00002C005900D92A431B107D9F721E0A4E147
:1000E000B1E001C01D92A633B207E1F710E0CDE503
:1000F000D0E004C02197FE010E94D907CC35D1077A
:10010000C9F70E9497040C942F090C94000090E00A
:10011000FC01EC55FF4F2491FC01E057FF4F849107
:10012000882399F090E0880F991FFC01EA57FF4F50
:10013000A591B491FC01E458FF4F859194918FB73C
:10014000F894EC91E22BEC938FBF08953B9A20E05A
:1001500030E090E0AC01022E02C0559547950A941C
:10016000E2F740FF02C0439A01C04398459800005F
:10017000000000000000000000000000000000007F
:1001800000000000000000000000459A2F5F3F4F74
:1001900028303105F9F60895449A00000000000067
:1001A000000000000000000000000000000000004F
:1001B000000000000000000000000000000000003F
:1001C000000044980C94A600CF93DF9320E030E029
:1001D00090E0482F50E067E070E0E1E0F0E0DA0105
:1001E000022E02C0B595A7950A94E2F7A0FF0AC0B7
:1001F000DB01A21BB30BEF0102C0CC0FDD1FAA95E0
:10020000E2F79C2B2F5F3F4F2830310541F7892FB4
:10021000DF91CF9108953FB7F89480912501909197
:100220002601A0912701B091280126B5A89B05C001
:100230002F3F19F00196A11DB11D3FBFBA2FA92F65
:10024000982F8827820F911DA11DB11DBC01CD01E2
:1002500042E0660F771F881F991F4A95D1F70895CE
:100260008F929F92AF92BF92CF92DF92EF92FF92C6
:100270006B017C010E940B014B015C01C114D10494
:10028000E104F104F1F00E940B01DC01CB018819BB
:100290009909AA09BB09883E9340A105B10570F3ED
:1002A00021E0C21AD108E108F10888EE880E83E047
:1002B000981EA11CB11CC114D104E104F10419F76A
:1002C000DDCFFF90EF90DF90CF90BF90AF909F90E9
:1002D0008F900895382F282F2F7D803309F4C5C0C3
:1002E000813351F0823379F08333A1F080E090E0E4
:1002F000343309F4BDC003C082E094E01FC035333D
:1003000009F4B9C003C081E696E818C0363309F491
:10031000B5C003C082E496E811C0373309F4B1C018
:10032000383339F0393341F0313459F0313649F04E
:1003300005C083E696EC02C083E496EC223419F4FF
:1003400005C083E296EC233421F406C085E69AE4E6
:100350000895243421F406C080E692E408952534FB
:1003600021F406C080E390E60895263421F406C007
:1003700081E692E40895273421F406C081E292E4F4
:100380000895283421F406C082E692EC08952934B9
:1003900021F406C083E294EC08952A3421F406C0C7
:1003A00088E492E108952B3421F406C082E494E0BD
:1003B00008952C3421F406C085E298E408952D3484
:1003C00021F406C080E690E408952E3421F406C09E
:1003D00082E29CE608952F3421F406C086E294E67A
:1003E0000895203521F406C082E696E4089521356B
:1003F00021F406C081E296EC0895223521F406C06E
:1004000086E696E40895233521F406C085E29AE451
:100410000895243521F406C085E492E40895253535
:1004200021F406C088E092E10895263521F406C043
:1004300082E694E40895273521F406C080E398E429
:100440000895283521F406C086E394E408952935FB
:1004500021F408C084E198E208952A35A9F480E5E2
:100460009AE0089588E098E2089582E79EE466CFD6
:1004700083E094EC63CF83E492EC60CF83E692EC6C
:100480005DCF82E096E05ACF08952F923F924F922F
:100490005F926F927F928F929F92AF92BF92CF9214
:1004A000DF92EF92FF920F931F93CF93DF93CDB71D
:1004B000DEB72F970FB6F894DEBF0FBECDBF2C016D
:1004C000B42EF22ED02E1A8219821C821B821E821A
:1004D0001D8218861F821A8619861C861B861E8618
:1004E0001D861C01FC01862F90E09617C9F0219112
:1004F0002E3231F4933069F4815021E029A70EC0E7
:100500002A3361F4933009F01AC1815021E02FA3FE
:1005100005C0963019F4815021E02AA79F5FE5CFEE
:10052000883008F04AC082010E5F1F4FCE0101964D
:100530003C0197E0490E511C912CF10181911F0162
:100540008E3211F08A3371F4F2E09F1202C0F8018A
:1005500001C0F10180810E946A01F30191838083CF
:10056000939418C0F1E09F1210C0F10180818E3287
:1005700011F08A3351F4F80180810E946A01F3017D
:100580009183808392E0992E05C00E946A01F30155
:10059000918380830F5F1F4FF2E06F0E711C241454
:1005A000350459F680E40E94CC0080EC0E94CC0017
:1005B0008E85BB2021F1816022C08E010F5F1F4F0D
:1005C00087E0782E90903001961658F4F201E90DEC
:1005D000F11D80816F870E946A01F80191838083F9
:1005E0006F85961203C01092300103C093949092CD
:1005F00030017A940E5F1F4F7110E4CFD3CF0E9469
:10060000A60081EC0E94CC008D850E94A60083ECA0
:100610000E94CC008C85F11081600E94A60084ECC1
:100620000E94CC008B850E94A60086EC0E94CC0024
:100630008A8528A5211181600E94A60087EC0E946E
:10064000CC002AA58985211180680E94A60089EC2A
:100650000E94CC008885D11081600E94A6008AEC9F
:100660000E94CC008F81E11080680E94A6008CEC73
:100670000E94CC008E812FA1211181600E94A600D2
:100680008DEC0E94CC0029A58D81211180680E94EB
:10069000A6008FEC0E94CC001B818C81CC2049F0FD
:1006A00081600E94A60080ED0E94CC00812F8068AE
:1006B00006C00E94A60080ED0E94CC00812F0E94FF
:1006C000A60082ED0E94CC0019818A810E94A600BA
:1006D00083ED0E94CC00812F0E94A60085EDAA2008
:1006E00021F00E94CC0080E203C00E94CC0080E098
:1006F0000E94A60086ED882021F00E94CC0084E0B4
:1007000003C00E94CC0080E00E94A60088ED0E94F9
:10071000CC008FEF0E94A60089ED0E94CC008DA135
:10072000882319F087E10E94A6008CA1882381F01C
:100730008EA1882359F08FE40E94A60007C096304E
:1007400009F0ECCE815021E028A7E8CE87E401C073
:1007500087E00E94A60088E00E94CC008FE80E94FB
:10076000CC00449A2F960FB6F894DEBF0FBECDBFD3
:10077000DF91CF911F910F91FF90EF90DF90CF907D
:10078000BF90AF909F908F907F906F905F904F90B1
:100790003F902F9008958EBD00000DB407FEFDCF51
:1007A0008EB50895CF93DF9300D01F92CDB7DEB7FB
:1007B0002A98000000000000000000000000000077
:1007C0000000000000000000000000002B834A83AE
:1007D00069830E94CB0300000000000000000000BD
:1007E0000000000000000000000000000000000009
:1007F0002A9A6981862F0E94CB034A81842F0E9406
:10080000CB032B81822F0E94CB032A98000000008B
:1008100000000000000000000000000000000000D8
:100820000000000000000F900F900F90DF91CF911B
:1008300008950F931F93CF93DF93E0911401F091EC
:1008400015011082EF01249620E030E00AE010E06C
:100850002530310548F4009739F0B8010E94C507EA
:10086000805D8883CB0104C0DF01A20FB31F1C92FF
:100870002F5F3F4F21972730310551F7808180331B
:1008800009F410828481811102C080E38483CF0146
:10089000DF91CF911F910F9108951F920F920FB684
:1008A0000F9211242F933F938F939F93AF93BF93F6
:1008B0008091210190912201A0912301B091240106
:1008C0003091200123E0230F2D3720F40196A11D44
:1008D000B11D05C026E8230F0296A11DB11D20936E
:1008E00020018093210190932201A0932301B093D2
:1008F00024018091250190912601A0912701B091BA
:1009000028010196A11DB11D809325019093260118
:10091000A0932701B0932801BF91AF919F918F9130
:100920003F912F910F900FBE0F901F901895CF936E
:10093000DF931F92CDB7DEB7789484B5826084BD13
:1009400084B5816084BD85B5826085BD85B58160D3
:1009500085BD80916E00816080936E001092810051
:10096000809181008260809381008091810081600C
:1009700080938100809180008160809380008091CD
:10098000B10084608093B1008091B0008160809359
:10099000B00080917A00846080937A0080917A0020
:1009A000826080937A0080917A00816080937A00DF
:1009B00080917A00806880937A001092C10068EC80
:1009C00070E080E090E00E94300180E40E94CC0062
:1009D00080EC0E94CC001AE180E00E94A600115039
:1009E000D9F788E00E94CC008FE80E94CC00449A9E
:1009F0001F9280911D018F931F921F921F928091D1
:100A00001C018F9380911B018F9380901A01A090FD
:100A10001901C0901801E12C0091170120E040E07D
:100A200066E086E091E00E9445021FB7F8940FB699
:100A3000F894DEBF0FBECDBF80911601811163C057
:100A40008AE990E0FC0124914EEA50E0FA016491B9
:100A500030E0220F331F2A573F4FF901A591B4917F
:100A60002C91622309F040C0E2E7F0E02491FA0102
:100A70004491FC0194919923B9F1222339F1233057
:100A800091F038F42130A9F0223001F584B58F7D42
:100A900012C0273091F02830A1F02430B9F48091B1
:100AA00080008F7D03C0809180008F7780938000CD
:100AB0000DC084B58F7784BD09C08091B0008F7759
:100AC00003C08091B0008F7D8093B000E92FF0E0EB
:100AD000EE0FFF1FE458FF4FA591B4918FB7F89424
:100AE0009C91492B4C938FBF8AE00E9487008CB564
:100AF00080618CBD8CB580648CBD8DE00E948700C8
:100B00008BE00E948700809116018F5F8093160111
:100B10001FBF82E58CBD81E08DBD8CE596E2909390
:100B20002A0180932901FF24F39490E0492E90E05C
:100B3000592EDD24D3942EE5222E2EE2322E3CE5D2
:100B4000632E36E2732E64E670E080E090E00E944F
:100B5000300182E40E94CC003B98000000000000BD
:100B60000000000000000000000000000000000085
:100B70000000000000000000000000000000000075
:100B8000000098E0339B05C0809131018160809323
:100B9000310180913101880F809331014598000027
:100BA0000000000000000000000000000000000045
:100BB000000000000000000000000000459A000056
:100BC000000000009150F1F6449A803211F0883014
:100BD00011F400005DC0843009F05AC00091290171
:100BE00010912A010D35F6E21F07D8F00A501109BD
:100BF00010932A0100932901812F0E94E400482FBD
:100C0000802F49830E94E400682F21E4498184E118
:100C10000E94D20328E248EA67E584E90E94D203F1
:100C200004C030922A0120922901809129019091DB
:100C30002A018E52944090931F0180931E01D092FE
:100C40001D0110921C01D0921B01D0921A01D0926A
:100C50001901D0921801D09217010E9419041F9215
:100C6000FF921F921F921F921F92FF9288248394DB
:100C7000AA24A394CC24C394E12C01E020E040E01A
:100C800067E00E9445020FB6F894DEBF0FBECDBFED
:100C900080913101823009F05AC0009129011091F0
:100CA0002A010E359EE21907D8F4065F1F4F1093F4
:100CB0002A0100932901812F0E94E400482F802FF0
:100CC00049830E94E400682F21E4498184E10E9465
:100CD000D20328E248EA67E584E90E94D20304C00F
:100CE00070922A01609229018091290190912A0134
:100CF0008E52944090931F0180931E01D0921D014B
:100D000010921C01D0921B01D0921A01D0921901AD
:100D1000D0921801D09217010E9419041F92FF92DD
:100D20001F921F921F921F92FF9288248394AA24DD
:100D3000A394CC24C394E12C01E020E040E067E0E0
:100D40000E9445020FB6F894DEBF0FBECDBF809162
:100D50003101803109F03FC060912A0180E090E0CC
:100D60000E94B7076091290181E090E00E94B707D7
:100D70008091290190912A018E52944090931F01F5
:100D800080931E01D0921D01D0921C01D0921B01B4
:100D9000D0921A01D0921901D0921801D092170165
:100DA0000E9419041F92FF921F921F921F92FF929E
:100DB000FF9288248394AA24A394CC24C394E12C86
:100DC00001E020E040E067E00E9445020FB6F894A1
:100DD000DEBF0FBECDBF80913101803809F06EC0FB
:100DE00010922A011092290180E090E00E94AF0742
:100DF000082F10E0102F002710932A0100932901DB
:100E000081E090E00E94AF07082BC8018C55964204
:100E10008330984028F410932A010093290104C0DC
:100E200070922A01609229011091290180912A0172
:100E30000E94E400482F812F49830E94E400682F1C
:100E400021E4498184E10E94D20328E248EA67E56F
:100E500084E90E94D2038091290190912A018E5247
:100E6000944090931F0180931E01D0921D01D09257
:100E70001C01D0921B01D0921A01D0921901D0927C
:100E80001801D09217010E9419041F92FF921F921D
:100E90001F921F92FF92FF9288248394AA24A39406
:100EA000CC24C394E12C01E020E040E067E00E9404
:100EB00045020FB6F894DEBF0FBECDBF8091310161
:100EC000803459F528E248EA68E084E90E94D203B8
:100ED00010921701109218011092190110921C0122
:100EE00010921D011F921F921F921F921F921F921C
:100EF00080911B018F9380901A01A12CC12CE12CB1
:100F000000E020E040E065E08DE091E00E944502D5
:100F10000FB6F894DEBF0FBECDBF4114510409F4E3
:100F200012CE0E9400000FCEE0E3F1E010821182A9
:100F300083E10E94870082E10E94870081E10E9494
:100F40008700449A459A439A61E070E087E090E018
:100F50000E94DF0790931501809314010895F99979
:100F6000FECF92BD81BDF89A992780B50895262FAE
:100F7000F999FECF1FBA92BD81BD20BD0FB6F8947E
:100F8000FA9AF99A0FBE01960895AA1BBB1B51E16C
:100F900007C0AA1FBB1FA617B70710F0A61BB70BE9
:100FA000881F991F5A95A9F780959095BC01CD018E
:100FB0000895EE0FFF1F0590F491E02D09940F9313
:100FC0001F93CF93DF93869F8001879F100D969F7D
:100FD000100D1124C8010E94FB07EC01009729F0B5
:100FE000A80160E070E00E942809CE01DF91CF9156
:100FF0001F910F910895CF93DF938230910510F4E4
:1010000082E090E0E0913401F091350120E030E0A1
:10101000C0E0D0E0309711F1408151814817590765
:10102000C0F04817590761F482819381209719F025
:101030009B838A832BC0909335018093340126C013
:101040002115310519F04217530718F49A01BE0112
:10105000DF01EF010280F381E02DDCCF21153105A6
:1010600009F1281B390B2430310590F412968D912B
:101070009C9113976115710521F0FB019383828385
:1010800004C09093350180933401FD01329644C031
:10109000FD01E20FF31F81939193225031092D93AB
:1010A0003C933AC02091320130913301232B41F41B
:1010B00020910201309103013093330120933201DA
:1010C00020910001309101012115310541F42DB726
:1010D0003EB74091040150910501241B350BE0916E
:1010E0003201F0913301E217F307A0F42E1B3F0BFE
:1010F0002817390778F0AC014E5F5F4F241735078A
:1011000048F04E0F5F1F509333014093320181939B
:10111000919302C0E0E0F0E0CF01DF91CF9108951C
:101120000F931F93CF93DF93009709F48CC0FC01BA
:10113000329713821282009134011091350101150A
:10114000110581F420813181820F931F209132019A
:10115000309133012817390779F5F0933301E09383
:10116000320171C0D80140E050E0AE17BF0750F423
:1011700012962D913C911397AD012115310509F17E
:10118000D901F3CF9D01DA0133832283608171811C
:10119000860F971F8217930769F4EC012881398124
:1011A000260F371F2E5F3F4F318320838A819B811B
:1011B00093838283452B29F4F0933501E093340126
:1011C00042C01396FC93EE931297ED014991599109
:1011D0009E01240F351FE217F30771F4808191817E
:1011E000840F951F029611969C938E938281938112
:1011F00013969C938E931297E0E0F0E0D80112963C
:101200008D919C911397009719F0F8018C01F6CFFE
:101210008D919C9198012E5F3F4F820F931F2091DB
:101220003201309133012817390769F4309729F4D6
:10123000109235011092340102C013821282109371
:10124000330100933201DF91CF911F910F910895E7
:10125000DC0101C06D9341505040E0F70895F894CF
:02126000FFCFBE
:101262000000360180002054554E455200204D5555
:0412720054450000DF
:00000001FF
