:100000000C9462000C942B020C9403020C948A0052
:100010000C948A000C948A000C948A000C948A0038
:100020000C948A000C948A000C948A000C948A0028
:100030000C948A000C948A000C948A000C948A0018
:100040000C94A8060C948A000C9418070C94F206E1
:100050000C948A000C948A000C948A000C948A00F8
:100060000C948A000C948A000000000024002700F1
:100070002A0000000000250028002B0000000008D6
:10008000000201000003040700000000000000005F
:10009000010204081020408001020408102001021F
:1000A000040810200000000023002600290004049A
:1000B0000404040404040202020202020303030310
:1000C00003031C0F11241FBECFEFD8E0DEBFCDBF4E
:1000D00011E0A0E0B1E0E0E4F3E202C005900D928F
:1000E000A235B107D9F722E0A2E5B1E001C01D9227
:1000F000A234B207E1F710E0C2E6D0E004C02197D5
:10010000FE010E944310C136D107C9F70E94CE07F5
:100110000C949E110C9400000F931F93CF93DF93C8
:10012000E0911D02F0911E02108220E030E0C4E058
:10013000D0E00AE010E040911D0250911E022530EF
:10014000310570F4009761F0FE01E21BF30BE40F40
:10015000F51FB8010E942F10805D8083CB0104C081
:10016000FA01E20FF31F10822F5F3F4F2730310556
:1001700011F7E0911D02F0911E028081803309F495
:10018000108280911D0290911E02FC012481211198
:1001900002C020E32483DF91CF911F910F91089536
:1001A000382F282F2F7D873209F4CBC08D3251F0A4
:1001B000803379F08133A1F080E090E0323309F4AC
:1001C000C3C003C081E090E825C0333309F4BFC049
:1001D00003C082E79EE41EC0343309F4BBC003C0F1
:1001E00082E094E017C0353309F4B7C0363309F420
:1001F000B7C0373309F4B7C0383339F0393341F079
:10020000313459F0313649F005C083E696EC02C02E
:1002100083E496EC223419F405C083E296EC23348F
:1002200019F4A4C085E69AE4343439F0343641F048
:10023000353459F0353631F408C080E390E602C019
:1002400083E694E8263419F405C081E692E4273465
:1002500021F406C081E292E40895283421F406C016
:1002600082E692EC0895293421F406C083E294ECEE
:1002700008952A3421F406C088E492E108952B34CD
:1002800021F406C082E494E008952C3421F406C0E1
:1002900085E298E408952D3421F406C080E690E4C8
:1002A00008952E3421F406C082E29CE608952F348E
:1002B00021F406C086E294E60895203521F406C0B4
:1002C00082E696E40895213521F406C081E296EC99
:1002D0000895223521F406C086E696E40895233574
:1002E00021F406C085E29AE40895243521F406C07D
:1002F00085E492E40895253521F406C088E092E172
:100300000895263521F406C082E694E40895273541
:1003100021F406C080E398E40895283521F406C04E
:1003200086E394E40895293521F408C084E198E235
:1003300008952A35F1F480E59AE0089588E098E27E
:10034000089580E290E466CF81E696E863CF82E488
:1003500096E860CF83E094EC5DCF83E492EC5ACFD3
:1003600083E692EC57CF82E096E054CF80E692E4A9
:100370005FCF08958EBD00000DB407FEFDCF8EB592
:100380000895DC01ED91FD918081ED91FD919081C9
:10039000ED91FD916C9163708E2309F064609F2351
:1003A00009F06860EEEDF1E0E60FF11D65956595E9
:1003B0006D936D917D918D919D91099423C01AC08B
:1003C00012C016C010C01EC009C014C013C006C0A1
:1003D00019C009C00DC007C00DC014C062507040E4
:1003E000804090400BC0615070408040904006C0FB
:1003F0006E5F01C06F5F7F4F8F4F9F4F9E938E93B5
:100400007E936E9308951F920F920FB60F92112450
:100410002F933F934F935F936F937F938F939F930C
:10042000AF93BF93EF93FF9380911B0290911C02B7
:100430000E94C101FF91EF91BF91AF919F918F9168
:100440007F916F915F914F913F912F910F900FBED0
:100450000F901F9018951F920F920FB60F921124B4
:100460002F933F934F935F936F937F938F939F93BC
:10047000AF93BF93EF93FF938091190290911A026B
:100480000E94C101FF91EF91BF91AF919F918F9118
:100490007F916F915F914F913F912F910F900FBE80
:1004A0000F901F9018953FB7F89480917801909124
:1004B0007901A0917A01B0917B0126B5A89B05C076
:1004C0002F3F19F00196A11DB11D3FBFBA2FA92FD3
:1004D000982F8827820F911DA11DB11DBC01CD0150
:1004E00042E0660F771F881F991F4A95D1F708953C
:1004F000CF92DF92EF92FF920F931F93CF93DF93F0
:100500006C017A018B01C0E0D0E0CE15DF0589F0E7
:10051000D8016D918D01D601ED91FC910190F08192
:10052000E02DC6010995892B11F47E0102C02196A8
:10053000ECCFC701DF91CF911F910F91FF90EF900A
:10054000DF90CF900895089580E090E00895FC0139
:10055000538D448D252F30E0842F90E0821B930B28
:10056000541710F0CF96089501970895FC01918DCE
:10057000828D981761F0828DDF01A80FB11D5D9605
:100580008C91928D9F5F9F73928F90E008958FEF73
:100590009FEF0895FC01918D828D981731F0828D27
:1005A000E80FF11D858D90E008958FEF9FEF08957E
:1005B000FC01918D228D892F90E0805C9F4F821BE2
:1005C00091098F73992708958CE791E00E94D802D2
:1005D00021E0892B09F420E0822F0895FC01848D0D
:1005E000DF01A80FB11DA35ABF4F2C91848D90E05D
:1005F00001968F739927848FA689B7892C93A08938
:10060000B1898C9180648C93938D848D981306C0EE
:100610000288F389E02D80818F7D80830895EF9299
:10062000FF920F931F93CF93DF93EC0181E0888FAC
:100630009B8D8C8D981305C0E889F989808185FD93
:1006400024C0F62E0B8D10E00F5F1F4F0F73112784
:10065000E02E8C8DE8120CC00FB607FCFACFE889AB
:10066000F989808185FFF5CFCE010E94EE02F1CF9E
:100670008B8DFE01E80FF11DE35AFF4FF0820B8FC7
:10068000EA89FB898081806207C0EE89FF896083E7
:10069000E889F98980818064808381E090E0DF913E
:1006A000CF911F910F91FF90EF900895CF93DF931B
:1006B000EC01888D8823C9F0EA89FB89808185FD5A
:1006C00005C0A889B9898C9186FD0FC00FB607FCBB
:1006D000F5CF808185FFF2CFA889B9898C9185FFFC
:1006E000EDCFCE010E94EE02E7CFDF91CF910895CA
:1006F00080E090E0892B29F00E94E40281110C94A3
:10070000000008950E9492112F923F924F925F92A3
:100710006F927F928F929F92AF92BF92CF92DF9211
:10072000EF92FF920F931F93CF93DF93CDB7DEB776
:100730002E970FB6F894DEBF0FBECDBF3C01B62E8C
:10074000942E322E2CA0DDA01A8219821C821B82CC
:100750001E821D8218861F821A8619861C861B8699
:100760001E861D86FC01962F20E02B15C9F0819175
:100770008E3231F4233069F4915081E088A70EC0A5
:100780008A3361F4233009F022C1915081E08EA3B5
:1007900005C0263019F4915081E089A72F5FE5CF7D
:1007A000983060F080E40E94B60780EC0E94B607A3
:1007B0008E85992009F445C0816043C092E0690E9E
:1007C000711CFE0131962F0110E0F12CFB1458F53D
:1007D000F301329780818E3211F08A3361F4F30194
:1007E000123009F0319780810E94D000F20191838C
:1007F00080831F5F1BC0113081F4F301319780812A
:100800008E3211F08A3349F4F30180810E94D000C6
:10081000F2019183808312E009C00E94D000F201AE
:100820009183808303C0F20111821082F394FFEF61
:100830006F1A7F0A82E0480E511C97E0F912C6CF6A
:10084000B1CF0E94900781EC0E94B6078D850E946F
:10085000900783EC0E94B6078C85311081600E945E
:10086000900784EC0E94B6078B850E94900786EC67
:100870000E94B6078A85EFA1E11181600E9490076E
:1008800087EC0E94B607F9A58985F11180680E945E
:10089000900789EC0E94B6078885011181600E944B
:1008A00090078AEC0E94B6078F81E11080680E9451
:1008B00090078CEC0E94B6078E819EA191118160F9
:1008C0000E9490078DEC0E94B607E8A58D81E1118A
:1008D00080680E9490078FEC0E94B6071B818C8174
:1008E000CC2049F081600E94900780ED0E94B607FD
:1008F000812F806806C00E94900780ED0E94B60795
:10090000812F0E94900782ED0E94B60719818A818B
:100910000E94900783ED0E94B607812F0E949007E6
:1009200085EDAA2021F00E94B60780E203C00E9454
:10093000B60780E00E94900786ED882021F00E9493
:10094000B60784E003C00E94B60780E00E949007CB
:1009500088ED0E94B6078FEF0E94900789ED0E94F4
:10096000B6078BA1882371F0222031F0DD2011F031
:100970008FE50BC087E509C0DD2011F08FE405C0CD
:1009800087E403C0222051F187E10E94900788E0AC
:100990000E94B6078FE80E94B607449A2E960FB6BB
:1009A000F894DEBF0FBECDBFDF91CF911F910F91A5
:1009B000FF90EF90DF90CF90BF90AF909F908F907F
:1009C0007F906F905F904F903F902F9008952630CA
:1009D00009F0E4CE915081E08FA3E0CEDD2011F04C
:1009E0008FE0D3CF87E0D1CFCF93DF9320E030E00B
:1009F00090E0482F50E067E070E0E1E0F0E0DA01DD
:100A0000022E02C0B595A7950A94E2F7A0FF0AC08E
:100A1000DB01A21BB30BEF0102C0CC0FDD1FAA95B7
:100A2000E2F79C2B2F5F3F4F2830310541F7892F8C
:100A3000DF91CF910895CF93DF9300D01F92CDB770
:100A4000DEB72A980000000000000000000000004F
:100A500000000000000000000000000000002B83E8
:100A60004A8369830E94BA01000000000000000070
:100A70000000000000000000000000000000000076
:100A800000002A9A6981862F0E94BA014A81842F28
:100A90000E94BA012B81822F0E94BA012A9800007D
:100AA0000000000000000000000000000000000046
:100AB00000000000000000000F900F900F90DF91E9
:100AC000CF9108950F931F93CF93DF93CDB7DEB7E8
:100AD000A1970FB6F894DEBF0FBECDBFA0E0B0E087
:100AE00019A2BE016F5D7F4F8C019D010F70112710
:100AF0002227332744E0B695A795979587954A9581
:100B0000D1F7615071090A3011052105310510F442
:100B1000005D01C0095CFB0100830097A105B105E0
:100B200019F76115710569F001900020E9F7319717
:100B3000AF01461B570B8CE791E00E9478028C01B5
:100B400002C000E010E042E050E06EE471E08CE7AB
:100B500091E00E947802800F911FA1960FB6F89441
:100B6000DEBF0FBECDBFDF91CF911F910F910895D2
:100B700090E0FC01E458FF4F3491FC01E057FF4F37
:100B80002491FC01E255FF4FE491EE2309F43BC0B0
:100B9000332339F1333091F038F43130A9F0323069
:100BA00001F584B58F7D12C0373091F03830A1F057
:100BB0003430B9F4809180008F7D03C08091800033
:100BC0008F77809380000DC084B58F7784BD09C076
:100BD0008091B0008F7703C08091B0008F7D8093AB
:100BE000B000F0E0EE0FFF1FEE58FF4FA591B4915B
:100BF0008FB7F894EC91611103C020952E2301C0AA
:100C00002E2B2C938FBF0895CF93DF9390E0FC01A0
:100C1000E057FF4F2491FC01E255FF4F8491882358
:100C200061F190E0880F991FFC01E859FF4FC591D1
:100C3000D491FC01EE58FF4FA591B491611109C008
:100C40009FB7F8948881209582238883EC912E2386
:100C50000BC0623061F49FB7F8943881822F809581
:100C600083238883EC912E2B2C939FBF06C08FB7D4
:100C7000F894E8812E2B28838FBFDF91CF910895C0
:100C80008F929F92AF92BF92CF92DF92EF92FF929C
:100C90006B017C010E9453024B015C01C114D10421
:100CA000E104F104F1F00E945302DC01CB01881948
:100CB0009909AA09BB09883E9340A105B10570F3C3
:100CC00021E0C21AD108E108F10888EE880E83E01D
:100CD000981EA11CB11CC114D104E104F10419F740
:100CE000DDCFFF90EF90DF90CF90BF90AF909F90BF
:100CF0008F9008951F93CF93DF93C6E0D1E088EDE6
:100D00000E94B60718818981229681600E9490070F
:100D100089ED0E94B607812F80650E94900762E3EB
:100D200070E080E090E00E94400681E0CA31D80780
:100D300031F788ED0E94B6078FEF0E94900789ED8A
:100D40000E94B60787E5DF91CF911F910C94900721
:100D50001F920F920FB60F9211242F933F938F93F0
:100D60009F93AF93BF938091690190916A01A09185
:100D70006B01B0916C013091770123E0230F2D3787
:100D800020F40196A11DB11D05C026E8230F02968F
:100D9000A11DB11D209377018093690190936A0191
:100DA000A0936B01B0936C018091780190917901CF
:100DB000A0917A01B0917B010196A11DB11D809394
:100DC000780190937901A0937A01B0937B01BF9150
:100DD000AF919F918F913F912F910F900FBE0F90E8
:100DE0001F9018951F920F920FB60F9211242F93F8
:100DF0003F934F935F936F937F938F939F93AF93A3
:100E0000BF93EF93FF938CE791E00E94EE02FF9176
:100E1000EF91BF91AF919F918F917F916F915F9172
:100E20004F913F912F910F900FBE0F901F901895EB
:100E30001F920F920FB60F9211242F938F939F93AF
:100E4000EF93FF93E0918C01F0918D018081E0910F
:100E50009201F091930182FD12C0908180919501E1
:100E60008F5F8F7320919601821751F0E091950169
:100E7000F0E0E458FE4F958F8093950101C080818A
:100E8000FF91EF919F918F912F910F900FBE0F9037
:100E90001F90189580912A02823030F4F8948FE1E7
:100EA00092E00E94C10101C0F89460912602709105
:100EB00027028091280290912902789408950F9337
:100EC0001F93CF93DF938C01C0E0D0E0C8010C2EBC
:100ED00002C0880F991F0A94E2F791FF02C061E0F7
:100EE00001C060E085E00E94B80561E084E00E94F6
:100EF000B805C930D10521F461E085E00E94B8054C
:100F000060E084E00E94B8052196CA30D105F1F670
:100F100060E085E0DF91CF911F910F910C94B805AF
:100F20003B9A20E030E090E0AC01022E02C05595E3
:100F300047950A94E2F740FF02C0439A01C04398E4
:100F400045980000000000000000000000000000C4
:100F50000000000000000000000000000000459AB2
:100F60002F5F3F4F28303105F9F60895449A00006D
:100F70000000000000000000000000000000000071
:100F80000000000000000000000000000000000061
:100F900000000000000044980C949007CF93DF936A
:100FA0001F92CDB7DEB7789484B5826084BD84B5D6
:100FB000816084BD85B5826085BD85B5816085BD54
:100FC00080916E00816080936E001092810080910C
:100FD0008100826080938100809181008160809394
:100FE0008100809180008160809380008091B100B9
:100FF00084608093B1008091B00081608093B000E4
:1010000080917A00846080937A0080917A00826077
:1010100080937A0080917A00816080937A00809139
:101020007A00806880937A001092C100E0918C0170
:10103000F0918D0182E08083E0918801F091890137
:101040001082E0918A01F0918B018FEC80831092E5
:101050009401E0919001F091910186E08083E0910C
:101060008E01F0918F01808180618083E0918E01FB
:10107000F0918F01808188608083E0918E01F091F2
:101080008F01808180688083E0918E01F0918F01D3
:1010900080818F7D808368EC70E080E090E00E942A
:1010A000400680E40E94B60780EC0E94B6071AE171
:1010B00080E00E9490071150D9F788E00E94B6079F
:1010C0008FE80E94B607449A1F9280915E018F9329
:1010D0001F921F921F9280915D018F9380915C01FE
:1010E0008F9380905B01A0905A01C0905901E12C30
:1010F0000091580120E040E066E08DE291E00E941E
:10110000840360ED77E080E090E00E9440061FB726
:10111000F8940FB6F894DEBF0FBECDBF8091520198
:10112000811127C0E8EBF0E08491EAE9F0E09491C6
:10113000E82FF0E0EE0FFF1FE859FF4FA591B491A3
:10114000EC91E92321F461E08AE00E94B80561E0B6
:101150008AE00E9404068CB580618CBD8CB58064E9
:101160008CBD61E08DE00E94040661E08BE00E948E
:101170000406809152018F5F809352011FBF82E568
:101180008CBD81E08DBD0CE516E2109371010093DA
:1011900070018EE180936E0128E248EA68E084E9FC
:1011A0000E941B0580E090E00E94191080936F015F
:1011B000882309F441C0F82EFF0C1092710110929F
:1011C00070018FEF8F0D90E00E941910682E712C26
:1011D000762C662470927101609270018F2D90E0E0
:1011E0000E941910682A70927101609270013CE5AA
:1011F000631A36E2730A83E0681688E0780620F006
:101200001093710100937001109170018091710130
:101210000E94F404482F812F49830E94F404682F10
:1012200021E4498184E10E941B0528E248EA67E540
:1012300084E90E941B0501C000008091700190911B
:1012400071018E5294409093600180935F0111E090
:1012500010935E0110935D0110935C0110935B018C
:1012600010935A0110935901109358010E948C0059
:101270001F921F931F921F921F921F931F938824E8
:101280008394AA24A394CC24C394E12C01E020E00D
:1012900040E067E00E94840380E091E090932C029C
:1012A00080932B020E945F0781EC93E090932C02C5
:1012B00080932B020E945F0702E010E010932C0243
:1012C00000932B0282E090E00E945F0783E090E0B1
:1012D00090932C0280932B020E945F0781E091E0A3
:1012E00090932C0280932B020E945F0710932C0294
:1012F00000932B0282E090E00E945F070FB6F89403
:10130000DEBF0FBECDBFBB24B39490E2292E3324A1
:101310003394612C772473943CE5432E36E2532EAC
:1013200068EC70E080E090E00E94400682E40E9459
:10133000B6073B980000000000000000000000001D
:10134000000000000000000000000000000000009D
:1013500000000000000000000000000088E0339B57
:1013600005C090913D02916090933D0290913D02A5
:10137000990F90933D024598000000000000000086
:10138000000000000000000000000000000000005D
:10139000000000000000459A00000000000081509D
:1013A000F1F6449A2FB7F8948091690190916A01FF
:1013B000A0916B01B0916C012FBF80936501909358
:1013C0006601A0936701B09368014091610150915B
:1013D000620160916301709164018C019D01041BA5
:1013E000150B260B370BB901A801493B5B40610582
:1013F0007105D8F18093610190936201A09363011C
:10140000B093640180917001909171018E5294406B
:101410009093600180935F01B0925E01B0925D0194
:10142000B0925C01B0925B01B0925A01B092590146
:10143000B09258010E948C001F92BF921F921F927F
:101440001F92BF92BF9288248394AA24A394CC2491
:10145000C394E12C01E020E040E067E00E948403B7
:101460000FB6F894DEBF0FBECDBF8091570182301A
:1014700009F44BC130F4882359F0813009F493C04A
:10148000E9C2833009F4F2C1843009F466C2E2C2D1
:101490000E944A076B017C017093560160935501CD
:1014A0008091530190915401C816D90609F4D2C213
:1014B000D0925401C092530140912D0250912E02BE
:1014C00080912F02909130024C155D0534F4009705
:1014D000D9F08C01005211090AC0C416D506ACF42B
:1014E000803E33E0930780F48C01005E1F4FC801FB
:1014F000816090932C0280932B020E945F071093CF
:10150000300200932F0201C00000D0922E02C09240
:101510002D0280912F02909130020E9462058091ED
:101520003302909134020E946205809137029091BB
:1015300038020E94620510925E0110925D01B09225
:101540005C01B0925B01B0925A01B0925901B09225
:1015500058011F921F921F921F921F921F92BF92BB
:1015600088248394AA24A394CC24C394E12C01E07E
:1015700020E040E063E084E391E00E9484032FB721
:10158000F8948091690190916A01A0916B01B091EA
:101590006C012FBF8093610190936201A09363015E
:1015A000B093640152C210925E0110925D0180936B
:1015B0005C0180935B0180935A0180935901809371
:1015C00058011F921F921F921F921F921F928F937A
:1015D00088248394AA24A394CC24C394E12C01E00E
:1015E00020E040E063E088E391E00E9484030E94F1
:1015F0004A076B017C01D0925601C09255010FB68B
:10160000F894DEBF0FBECDBF20915301309154013D
:101610006217730709F41EC2D0925401C09253019D
:101620002091310230913202261737075CF4009185
:10163000330210913402003C23E0120708F5005CED
:101640001F4F0CC062177307E4F40091330210912E
:10165000340201151105A1F00054110980913702DF
:10166000909138028260802B912B90932C02809372
:101670002B020E945F07109334020093330201C0D3
:101680000000D0923202C092310280912F029091DC
:101690003002816090932C0280932B020E945F079E
:1016A00080912F02909130020E9462058091330256
:1016B000909134020E946205809137029091380225
:1016C0000E94620510925E0110925D01B0925C0171
:1016D000B0925B01B0925A01B0925901B092580198
:1016E0001F921F921F921F921F921F92BF928824D7
:1016F0008394AA24A394CC24C394E12C01E020E099
:1017000040E063E088E391E09EC110925E01109298
:101710005D01B0925C01B0925B01B0925A01B0924F
:101720005901B09258011F921F921F921F921F924F
:101730001F92BF9288248394AA24A394CC24C39498
:10174000E12C01E020E040E063E08CE391E00E94C6
:1017500084030E944A076B017C01D0925601C0921B
:1017600055010FB6F894DEBF0FBECDBF20915301D7
:10177000309154016217730709F46CC1D09254017F
:10178000C092530120913502309136022617370757
:1017900054F400913702109138020C33110508F50A
:1017A0000C5F1F4F0CC062177307E4F400913702FF
:1017B0001091380201151105A1F004501109809112
:1017C0003302909134028260802B912B90932C02F3
:1017D00080932B020E945F07109338020093370218
:1017E00001C00000D0923602C092350280912F02D3
:1017F00090913002816090932C0280932B020E9482
:101800005F0780912F02909130020E9462058091C3
:101810003302909134020E946205809137029091C8
:1018200038020E94620510925E0110925D01B09232
:101830005C01B0925B01B0925A01B0925901B09232
:1018400058011F921F921F921F921F921F92BF92C8
:1018500088248394AA24A394CC24C394E12C01E08B
:1018600020E040E063E08CE391E0EDC010925E0187
:1018700010925D01B0925C01B0925B01B0925A018E
:10188000B0925901B09258011F921F921F921F925D
:101890001F921F92BF9288248394AA24A394CC24DD
:1018A000C394E12C01E020E040E063E080E491E0BB
:1018B0000E9484030E944A076B017C01D09256016A
:1018C000C09255010FB6F894DEBF0FBECDBF209178
:1018D0005301309154016217730709F4BBC0D092D1
:1018E0005401C09253012091390230913A022617D7
:1018F00037072CF070922C0260922B0204C03092B9
:101900002C0220922B0280912B0290912C020E949B
:101910005F0780912F0290913002816090932C029A
:1019200080932B020E945F07D0923A02C092390244
:101930001F921F921F921F921F921F92BF92882484
:101940008394AA24A394CC24C394E12C01E020E046
:1019500040E063E080E491E076C010925E01109276
:101960005D01B0925C01B0925B01B0925A01B092FD
:101970005901B09258011F921F921F921F921F92FD
:101980001F92BF9288248394AA24A394CC24C39446
:10199000E12C01E020E040E063E084E491E00E947B
:1019A00084030E944A076B017C01D0925601C092C9
:1019B00055010FB6F894DEBF0FBECDBF2091530185
:1019C000309154016217730709F444C0D092540156
:1019D000C092530120913B0230913C0226173707F9
:1019E0002CF070922C0260922B0204C010922C02F8
:1019F00010922B0280912B0290912C020E945F0783
:101A000080912F0290913002816090932C028093FC
:101A10002B020E945F07D0923C02C0923B021F92B1
:101A20001F921F921F921F921F92BF92882483942D
:101A3000AA24A394CC24C394E12C01E020E040E04C
:101A400063E084E491E00E9484030FB6F894DEBF63
:101A50000FBECDBF80913D02803261F4809157016D
:101A6000843020F48F5F8093570102C01092570199
:101A70000E947A0680913D02883041F460916F01A6
:101A800080E090E00E9421100E947A0680913D0241
:101A9000843009F05CC000917001109171010D3526
:101AA00036E21307D8F00A50110910937101009320
:101AB0007001812F0E94F404482F802F49830E94D7
:101AC000F404682F21E4498184E10E941B0528E287
:101AD00048EA67E584E90E941B0506C08EE59EE2A0
:101AE00090937101809370018091700190917101C8
:101AF0008E5294409093600180935F01B0925E019A
:101B000010925D01B0925C01B0925B01B0925A01FB
:101B1000B0925901B09258010E948C001F92BF925E
:101B20001F921F921F921F92BF9288248394AA240F
:101B3000A394CC24C394E12C01E020E040E067E0D2
:101B40000E9484030FB6F894DEBF0FBECDBF809114
:101B50003D02823009F05AC000917001109171016C
:101B60000E352EE21207D8F4065F1F4F1093710155
:101B700000937001812F0E94F404482F802F498325
:101B80000E94F404682F21E4498184E10E941B052E
:101B900028E248EA67E584E90E941B0504C05092E8
:101BA00071014092700180917001909171018E528B
:101BB00094409093600180935F01B0925E01109217
:101BC0005D01B0925C01B0925B01B0925A01B0929B
:101BD0005901B09258010E948C001F92BF921F922F
:101BE0001F921F921F92BF9288248394AA24A394C9
:101BF000CC24C394E12C01E020E040E067E00E94A7
:101C000084030FB6F894DEBF0FBECDBF80913D02B6
:101C1000803109F051C080916F0190916E01891758
:101C200020F48F5F80936F0102C0B0926F0110911A
:101C30006F01110F609171018FEF810F90E00E9491
:101C4000211060917001812F90E00E9421108091FD
:101C50007001909171018E52944090936001809335
:101C60005F01B0925E01B0925D01B0925C01B092F2
:101C70005B01B0925A01B0925901B09258010E9492
:101C80008C001F92BF921F921F921F92BF92BF9211
:101C900088248394AA24A394CC24C394E12C01E047
:101CA00020E040E067E00E9484030E947A060FB6BD
:101CB000F894DEBF0FBECDBF80913D02803809F0A1
:101CC00080C080916F0190916E01891720F48F5F21
:101CD00080936F0102C0B0926F01F0906F01FF0C12
:101CE00010927101109270018FEF8F0D90E00E94A1
:101CF0001910082F10E0102F002710937101009386
:101D000070018F2D90E00E941910082BC8018C558E
:101D100096428330984028F410937101009370012B
:101D200004C0509271014092700110917001809135
:101D300071010E94F404482F812F49830E94F4040A
:101D4000682F21E4498184E10E941B0528E248EACA
:101D500067E584E90E941B058091700190917101F3
:101D60008E5294409093600180935F01B0925E0127
:101D7000B0925D01B0925C01B0925B01B0925A01E9
:101D8000B0925901B09258010E948C001F92BF92EC
:101D90001F921F921F92BF92BF9288248394AA24FD
:101DA000A394CC24C394E12C01E020E040E067E060
:101DB0000E9484030E947A060FB6F894DEBF0FBE1D
:101DC000CDBF80913D028034A1F528E248EA68E069
:101DD00084E90E941B0510925E0110925D01B09291
:101DE0005C01B0925B0110925A011092590110925D
:101DF00058011F921F921F921F921F921F92BF9213
:101E000088248394A12CC12CE12C00E020E040E048
:101E100065E088E491E00E94840380916F01815025
:101E200080936F010E947A060FB6F894DEBF0FBE52
:101E3000CDBF0E94780374CACF93DF9310927F01C5
:101E400010927E0188EE93E0A0E0B0E080938001E4
:101E500090938101A0938201B09383018FE191E07F
:101E600090937D0180937C0185EC90E090938901B3
:101E70008093880184EC90E090938B0180938A0199
:101E800080EC90E090938D0180938C0181EC90E048
:101E900090938F0180938E0182EC90E0909391015A
:101EA0008093900186EC90E090939301809392014F
:101EB000109295011092960110929701109298013C
:101EC00010923D0261E083E10E94040661E082E13C
:101ED0000E94040661E081E10E940406449A459A4A
:101EE000439A10922C0210922B0210922E02109202
:101EF0002D0280E091E09093300280932F021092A7
:101F00003202109231021092340210923302109277
:101F10003602109235021092380210923702109257
:101F20003A021092390210923C0210923B0261E098
:101F300084E00E94040661E085E00E94040660E0FF
:101F400084E00E94B80560E085E00E94B80562E088
:101F500083E00E94040662E082E00E940406E1EB56
:101F6000F0E0E491F0E0EE0FFF1FEC55FF4FA5917C
:101F7000B491B0932002A0931F02E3E9F0E08491B2
:101F800080932302E0EBF0E0E491F0E0EE0FFF1F1E
:101F9000EC55FF4FC591D491D0932202C0932102FA
:101FA000E2E9F0E0E491E09324021092260210921C
:101FB00027021092280210922902EBE3FFE13197E9
:101FC000F1F7EC91E82381E009F480E02881909119
:101FD0002402922309F082602FE132E080932502EF
:101FE00030931C0220931B0280916900837F8460E0
:101FF00080936900E99A81E080932A0230931A0263
:1020000020931902809169008C7F81608093690020
:10201000E89A82E080932A0261E070E087E090E035
:102020000E94491090931E0280931D02DF91CF9170
:102030000895F999FECF92BD81BDF89A992780B590
:102040000895262FF999FECF1FBA92BD81BD20BDFC
:102050000FB6F894FA9AF99A0FBE01960895AA1B42
:10206000BB1B51E107C0AA1FBB1FA617B70710F083
:10207000A61BB70B881F991F5A95A9F780959095B5
:10208000BC01CD010895EE0FFF1F0590F491E02DE6
:1020900009940F931F93CF93DF93869F8001879FAF
:1020A000100D969F100D1124C8010E946510EC01BF
:1020B000009729F0A80160E070E00E949711CE011E
:1020C000DF91CF911F910F910895CF93DF938230CD
:1020D000910510F482E090E0E0914002F09141021D
:1020E00020E030E0C0E0D0E0309711F14081518134
:1020F00048175907C0F04817590761F48281938146
:10210000209719F09B838A832BC090934102809380
:10211000400226C02115310519F04217530718F463
:102120009A01BE01DF01EF010280F381E02DDCCFD7
:102130002115310509F1281B390B2430310590F4A4
:1021400012968D919C9113976115710521F0FB01F9
:102150009383828304C09093410280934002FD01E7
:10216000329644C0FD01E20FF31F819391932250F8
:1021700031092D933C933AC020913E0230913F02A9
:10218000232B41F4209102013091030130933F024F
:1021900020933E022091000130910101211531056B
:1021A00041F42DB73EB74091040150910501241B25
:1021B000350BE0913E02F0913F02E217F307A0F4E5
:1021C0002E1B3F0B2817390778F0AC014E5F5F4F8D
:1021D0002417350748F04E0F5F1F50933F0240937E
:1021E0003E028193919302C0E0E0F0E0CF01DF91E5
:1021F000CF9108950F931F93CF93DF93009709F426
:102200008CC0FC013297138212820091400210911F
:1022100041020115110581F420813181820F931F44
:1022200020913E0230913F022817390779F5F0934B
:102230003F02E0933E0271C0D80140E050E0AE178B
:10224000BF0750F412962D913C911397AD012115C3
:10225000310509F1D901F3CF9D01DA0133832283DE
:1022600060817181860F971F8217930769F4EC01D3
:1022700028813981260F371F2E5F3F4F31832083FE
:102280008A819B8193838283452B29F4F0934102B9
:10229000E093400242C01396FC93EE931297ED0137
:1022A000499159919E01240F351FE217F30771F4EC
:1022B00080819181840F951F029611969C938E9335
:1022C0008281938113969C938E931297E0E0F0E0C5
:1022D000D80112968D919C911397009719F0F801EF
:1022E0008C01F6CF8D919C9198012E5F3F4F820F0C
:1022F000931F20913E0230913F022817390769F45D
:10230000309729F4109241021092400202C01382C9
:10231000128210933F0200933E02DF91CF911F91F2
:102320000F91089581E090E0F8940C949E11DC01E7
:1023300001C06D9341505040E0F70895F894FFCFED
:1023400000004202800006FE05FE03FE07FC07FABD
:1023500007F607EE07DE07BE077E00000000000F4D
:10236000037802A7025603D802B602CA02205455C7
:102370004E455200564F4C004241530054524500C6
:102380005355520041555800204D555445000D0AF3
:0223900000004B
:00000001FF
