:100000000C9462000C941C020C94F4010C948A0071
:100010000C948A000C948A000C948A000C948A0038
:100020000C948A000C948A000C948A000C948A0028
:100030000C948A000C948A000C948A000C948A0018
:100040000C94B5060C948A000C9425070C94FF06BA
:100050000C948A000C948A000C948A000C948A00F8
:100060000C948A000C948A000000000024002700F1
:100070002A0000000000250028002B0000000008D6
:10008000000201000003040700000000000000005F
:10009000010204081020408001020408102001021F
:1000A000040810200000000023002600290004049A
:1000B0000404040404040202020202020303030310
:1000C0000303EB0B11241FBECFEFD8E0DEBFCDBF83
:1000D00011E0A0E0B1E0E2EEFCE102C005900D927B
:1000E000A034B107D9F722E0A0E4B1E001C01D922D
:1000F000A631B207E1F710E0C2E6D0E004C02197D4
:10010000FE010E94140DC136D107C9F70E94C6072F
:100110000C946F0E0C9400000F931F93CF93DF93FA
:10012000E0910002F0910102108220E030E0C4E092
:10013000D0E00AE010E04091000250910102253029
:10014000310570F4009761F0FE01E21BF30BE40F40
:10015000F51FB8010E94DE0C805D8083CB0104C0D6
:10016000FA01E20FF31F10822F5F3F4F2730310556
:1001700011F7E0910002F09101028081803309F4CF
:1001800010828091000290910102FC0124812111D2
:1001900002C020E32483DF91CF911F910F91089536
:1001A000DC01ED91FD918081ED91FD919081ED91CA
:1001B000FD916C9163708E2309F064609F2309F0B8
:1001C0006860EDEEF0E0E60FF11D659565956D93C5
:1001D0006D917D918D919D91099423C01AC012C09B
:1001E00016C010C01EC009C014C013C006C019C07C
:1001F00009C00DC007C00DC014C0625070408040DF
:1002000090400BC0615070408040904006C06E5FCF
:1002100001C06F5F7F4F8F4F9F4F9E938E937E9352
:100220006E930895382F282F2F7D803309F4C5C091
:10023000813351F0823379F08333A1F080E090E094
:10024000343309F4BDC003C082E094E01FC03533ED
:1002500009F4B9C003C081E696E818C0363309F442
:10026000B5C003C082E496E811C0373309F4B1C0C9
:10027000383339F0393341F0313459F0313649F0FF
:1002800005C083E696EC02C083E496EC223419F4B0
:1002900005C083E296EC233421F406C085E69AE497
:1002A0000895243421F406C080E692E408952534AC
:1002B00021F406C080E390E60895263421F406C0B8
:1002C00081E692E40895273421F406C081E292E4A5
:1002D0000895283421F406C082E692EC089529346A
:1002E00021F406C083E294EC08952A3421F406C078
:1002F00088E492E108952B3421F406C082E494E06E
:1003000008952C3421F406C085E298E408952D3434
:1003100021F406C080E690E408952E3421F406C04E
:1003200082E29CE608952F3421F406C086E294E62A
:100330000895203521F406C082E696E4089521351B
:1003400021F406C081E296EC0895223521F406C01E
:1003500086E696E40895233521F406C085E29AE402
:100360000895243521F406C085E492E408952535E6
:1003700021F406C088E092E10895263521F406C0F4
:1003800082E694E40895273521F406C080E398E4DA
:100390000895283521F406C086E394E408952935AC
:1003A00021F408C084E198E208952A35A9F480E593
:1003B0009AE0089588E098E2089582E79EE466CF87
:1003C00083E094EC63CF83E492EC60CF83E692EC1D
:1003D0005DCF82E096E05ACF08958EBD00000DB447
:1003E00007FEFDCF8EB508951F920F920FB60F92A4
:1003F00011242F933F934F935F936F937F938F932A
:100400009F93AF93BF93EF93FF938091FE019091E1
:10041000FF010E94D000FF91EF91BF91AF919F919A
:100420008F917F916F915F914F913F912F910F909D
:100430000FBE0F901F9018951F920F920FB60F923C
:1004400011242F933F934F935F936F937F938F93D9
:100450009F93AF93BF93EF93FF938091FC01909193
:10046000FD010E94D000FF91EF91BF91AF919F914C
:100470008F917F916F915F914F913F912F910F904D
:100480000FBE0F901F9018953FB7F89480915B01B5
:1004900090915C01A0915D01B0915E0126B5A89B91
:1004A00005C02F3F19F00196A11DB11D3FBFBA2F06
:1004B000A92F982F8827820F911DA11DB11DBC0166
:1004C000CD0142E0660F771F881F991F4A95D1F72B
:1004D0000895CF92DF92EF92FF920F931F93CF93E5
:1004E000DF936C017A018B01C0E0D0E0CE15DF050F
:1004F00089F0D8016D918D01D601ED91FC910190AB
:10050000F081E02DC6010995892B11F47E0102C00E
:100510002196ECCFC701DF91CF911F910F91FF90F2
:10052000EF90DF90CF900895089580E090E00895D7
:10053000FC01538D448D252F30E0842F90E0821BE9
:10054000930B541710F0CF96089501970895FC016E
:10055000918D828D981761F0828DDF01A80FB11DFA
:100560005D968C91928D9F5F9F73928F90E008951E
:100570008FEF9FEF0895FC01918D828D981731F0D8
:10058000828DE80FF11D858D90E008958FEF9FEF2C
:100590000895FC01918D228D892F90E0805C9F4F02
:1005A000821B91098F73992708958FE591E00E942E
:1005B000C90221E0892B09F420E0822F0895FC0173
:1005C000848DDF01A80FB11DA35ABF4F2C91848DDC
:1005D00090E001968F739927848FA689B7892C9311
:1005E000A089B1898C9180648C93938D848D9813AC
:1005F00006C00288F389E02D80818F7D8083089575
:10060000EF92FF920F931F93CF93DF93EC0181E062
:10061000888F9B8D8C8D981305C0E889F98980811E
:1006200085FD24C0F62E0B8D10E00F5F1F4F0F735A
:100630001127E02E8C8DE8120CC00FB607FCFACF04
:10064000E889F989808185FFF5CFCE010E94DF021C
:10065000F1CF8B8DFE01E80FF11DE35AFF4FF082C1
:100660000B8FEA89FB898081806207C0EE89FF8950
:100670006083E889F98980818064808381E090E0EB
:10068000DF91CF911F910F91FF90EF900895CF933D
:10069000DF93EC01888D8823C9F0EA89FB8980818A
:1006A00085FD05C0A889B9898C9186FD0FC00FB65C
:1006B00007FCF5CF808185FFF2CFA889B9898C919D
:1006C00085FFEDCFCE010E94DF02E7CFDF91CF9112
:1006D000089580E090E0892B29F00E94D5028111D5
:1006E0000C94000008950E94630E2F923F924F9247
:1006F0005F926F927F928F929F92AF92BF92CF92B2
:10070000DF92EF92FF920F931F93CF93DF93CDB7BA
:10071000DEB72F970FB6F894DEBF0FBECDBF2C010A
:10072000B42EF22ED02E1A8219821C821B821E82B7
:100730001D8218861F821A8619861C861B861E86B5
:100740001D861C01FC01862F90E09617C9F02191AF
:100750002E3231F4933069F4815021E029A70EC084
:100760002A3361F4933009F043C1815021E02FA373
:1007700005C0963019F4815021E02AA79F5FE5CF8C
:10078000883008F04AC082010E5F1F4FCE010196EB
:100790003C0197E0490E511C912CF10181911F0100
:1007A0008E3211F08A3371F4F2E09F1202C0F80128
:1007B00001C0F10180810E941201F30191838083C5
:1007C000939418C0F1E09F1210C0F10180818E3225
:1007D00011F08A3351F4F80180810E941201F30173
:1007E0009183808392E0992E05C00E941201F3014B
:1007F000918380830F5F1F4FF2E06F0E711C2414F2
:10080000350459F680E40E94AE0780EC0E94AE07E2
:100810008E85BB2021F1816022C08E010F5F1F4FAA
:1008200087E0782E90901002961658F4F201E90DA8
:10083000F11D80816F870E941201F80191838083EE
:100840006F85961203C01092100203C09394909289
:1008500010027A940E5F1F4F7110E4CFD3CF0E9425
:10086000880781EC0E94AE078D850E94880783EC83
:100870000E94AE078C85F11081600E94880784EC8D
:100880000E94AE078B850E94880786EC0E94AE0707
:100890008A8528A5211181600E94880787EC0E9423
:1008A000AE072AA58985211180680E94880789ECF6
:1008B0000E94AE078885D11081600E9488078AEC6B
:1008C0000E94AE078F81E11080680E9488078CEC3F
:1008D0000E94AE078E812FA1211181600E9488079E
:1008E0008DEC0E94AE0729A58D81211180680E94A0
:1008F00088078FEC0E94AE071B818C81CC2049F0C9
:1009000081600E94880780ED0E94AE07812F806879
:1009100006C00E94880780ED0E94AE07812F0E94CA
:10092000880782ED0E94AE0719818A810E9488079C
:1009300083ED0E94AE07812F0E94880785EDAA20D3
:1009400021F00E94AE0780E203C00E94AE0780E063
:100950000E94880786ED882021F00E94AE0784E07F
:1009600003C00E94AE0780E00E94880788ED0E94C5
:10097000AE078FEF0E94880789ED0E94AE078CA119
:100980002DA1882381F0222339F02EA1222311F0FA
:100990008FE50CC087E50AC02EA1222311F08FE459
:1009A00005C087E403C0222351F187E10E94880734
:1009B00088E00E94AE078FE80E94AE07449A2F9607
:1009C0000FB6F894DEBF0FBECDBFDF91CF911F9160
:1009D0000F91FF90EF90DF90CF90BF90AF909F90DE
:1009E0008F907F906F905F904F903F902F900895E1
:1009F000963009F0C3CE815021E028A7BFCE2EA1AA
:100A0000222311F08FE0D2CF87E0D0CFCF93DF93B6
:100A100020E030E090E0482F50E067E070E0E1E057
:100A2000F0E0DA01022E02C0B595A7950A94E2F72C
:100A3000A0FF0AC0DB01A21BB30BEF0102C0CC0F69
:100A4000DD1FAA95E2F79C2B2F5F3F4F2830310521
:100A500041F7892FDF91CF910895CF93DF9300D095
:100A60001F92CDB7DEB72A980000000000000000FA
:100A70000000000000000000000000000000000076
:100A800000002B834A8369830E94ED01000000006F
:100A90000000000000000000000000000000000056
:100AA0000000000000002A9A6981862F0E94ED0153
:100AB0004A81842F0E94ED012B81822F0E94ED013B
:100AC0002A98000000000000000000000000000064
:100AD0000000000000000000000000000F900F90D8
:100AE0000F90DF91CF9108958F929F92AF92BF9216
:100AF0000F931F93CF93DF93CDB7DEB7A1970FB6B8
:100B0000F894DEBF0FBECDBF19A2423008F44AE010
:100B10008E010F5D1F4F842E912CA12CB12CA501AD
:100B200094010E94F20CE62FB901CA01015011098B
:100B3000EA3014F4E05D01C0E95CD801EC93232BAA
:100B4000242B252B61F70115110571F0F801019097
:100B50000020E9F73197AF01401B510BB8018FE539
:100B600091E00E94690202C080E090E0A1960FB679
:100B7000F894DEBF0FBECDBFDF91CF911F910F91D3
:100B8000BF90AF909F908F90089590E0FC01E45843
:100B9000FF4F3491FC01E057FF4F2491FC01E255D7
:100BA000FF4FE491EE2309F43BC0332339F1333096
:100BB00091F038F43130A9F0323001F584B58F7DF1
:100BC00012C0373091F03830A1F03430B9F4809150
:100BD00080008F7D03C0809180008F77809380009C
:100BE0000DC084B58F7784BD09C08091B0008F7728
:100BF00003C08091B0008F7D8093B000F0E0EE0FD5
:100C0000FF1FEE58FF4FA591B4918FB7F894EC9168
:100C1000611103C020952E2301C02E2B2C938FBF72
:100C20000895CF93DF9390E0FC01E057FF4F2491AC
:100C3000FC01E255FF4F8491882361F190E0880F19
:100C4000991FFC01E859FF4FC591D491FC01EE5862
:100C5000FF4FA591B491611109C09FB7F8948881A5
:100C6000209582238883EC912E230BC0623061F49F
:100C70009FB7F8943881822F809583238883EC91E5
:100C80002E2B2C939FBF06C08FB7F894E8812E2B94
:100C900028838FBFDF91CF9108958F929F92AF925B
:100CA000BF92CF92DF92EF92FF926B017C010E9484
:100CB00044024B015C01C114D104E104F104F1F0E0
:100CC0000E944402DC01CB0188199909AA09BB09D9
:100CD000883E9340A105B10570F321E0C21AD10806
:100CE000E108F10888EE880E83E0981EA11CB11C73
:100CF000C114D104E104F10419F7DDCFFF90EF90A6
:100D0000DF90CF90BF90AF909F908F9008951F93EA
:100D1000CF93DF93C8E0D1E088ED0E94AE07188141
:100D20008981229681600E94880789ED0E94AE0722
:100D3000812F80650E94880762E370E080E090E088
:100D40000E944D0681E0CC31D80731F788ED0E9432
:100D5000AE078FEF0E94880789ED0E94AE0787E5F6
:100D6000DF91CF911F910C9488071F920F920FB6BD
:100D70000F9211242F933F938F939F93AF93BF9321
:100D80008091570190915801A0915901B0915A0159
:100D90003091560123E0230F2D3720F40196A11D39
:100DA000B11D05C026E8230F0296A11DB11D209399
:100DB00056018093570190935801A0935901B09325
:100DC0005A0180915B0190915C01A0915D01B0910D
:100DD0005E010196A11DB11D80935B0190935C01A2
:100DE000A0935D01B0935E01BF91AF919F918F91F0
:100DF0003F912F910F900FBE0F901F9018951F924B
:100E00000F920FB60F9211242F933F934F935F933E
:100E10006F937F938F939F93AF93BF93EF93FF93C2
:100E20008FE591E00E94DF02FF91EF91BF91AF91BA
:100E30009F918F917F916F915F914F913F912F91F2
:100E40000F900FBE0F901F9018951F920F920FB624
:100E50000F9211242F938F939F93EF93FF93E09121
:100E60006F01F09170018081E0917501F091760140
:100E700082FD12C09081809178018F5F8F732091E5
:100E80007901821751F0E0917801F0E0E15AFE4FCC
:100E9000958F8093780101C08081FF91EF919F91A0
:100EA0008F912F910F900FBE0F901F9018950F9359
:100EB0001F93CF93DF938C01C0E0D0E0C8010C2ECC
:100EC00002C0880F991F0A94E2F791FF02C061E007
:100ED00001C060E085E00E94C50561E084E00E94F9
:100EE000C505C930D10521F461E085E00E94C50542
:100EF00060E084E00E94C5052196CA30D105F1F674
:100F000060E085E0DF91CF911F910F910C94C505B2
:100F10003B9A20E030E090E0AC01022E02C05595F3
:100F200047950A94E2F740FF02C0439A01C04398F4
:100F300045980000000000000000000000000000D4
:100F40000000000000000000000000000000459AC2
:100F50002F5F3F4F28303105F9F60895449A00007D
:100F60000000000000000000000000000000000081
:100F70000000000000000000000000000000000071
:100F800000000000000044980C948807CF93DF9382
:100F90001F92CDB7DEB7789484B5826084BD84B5E6
:100FA000816084BD85B5826085BD85B5816085BD64
:100FB00080916E00816080936E001092810080911C
:100FC00081008260809381008091810081608093A4
:100FD0008100809180008160809380008091B100C9
:100FE00084608093B1008091B00081608093B000F4
:100FF00080917A00846080937A0080917A00826088
:1010000080937A0080917A00816080937A00809149
:101010007A00806880937A001092C100E0916F019D
:10102000F091700182E08083E0916B01F0916C019E
:101030001082E0916D01F0916E018FEC808310922F
:101040007701E0917301F091740186E08083E09173
:101050007101F0917201808180618083E091710162
:10106000F0917201808188608083E0917101F0913C
:101070007201808180688083E0917101F09172013A
:1010800080818F7D808368EC70E080E090E00E943A
:101090004D0680E40E94AE0780EC0E94AE071AE184
:1010A00080E00E9488071150D9F788E00E94AE07BF
:1010B0008FE80E94AE07449A1F92809147018F9358
:1010C0001F921F921F92809146018F93809145013C
:1010D0008F9380904401A0904301C0904201E12C85
:1010E0000091410120E040E066E08FE291E00E9443
:1010F000750360ED77E080E090E00E944D061FB739
:10110000F8940FB6F894DEBF0FBECDBF80914001BA
:10111000811127C0E8EBF0E08491EAE9F0E09491D6
:10112000E82FF0E0EE0FFF1FE859FF4FA591B491B3
:10113000EC91E92321F461E08AE00E94C50561E0B9
:101140008AE00E9411068CB580618CBD8CB58064EC
:101150008CBD61E08DE00E94110661E08BE00E9491
:101160001106809140018F5F809340011FBF82E58F
:101170008CBD81E08DBD0CE516E21093500100930B
:101180004F018EE180934D0128E248EA68E084E94E
:101190000E942D0580E090E00E94C80C80934E01D3
:1011A000882309F441C0F82EFF0C109250011092D0
:1011B0004F018FEF8F0D90E00E94C80CC82ED12CEC
:1011C000DC2CCC24D0925001C0924F018F2D90E0A6
:1011D0000E94C80CC82AD0925001C0924F019CE5D1
:1011E000C91A96E2D90A23E0C21628E0D20620F0F6
:1011F0001093500100934F0110914F0180915001C5
:101200000E940605482F812F49830E940605682FFA
:1012100021E4498184E10E942D0528E248EA67E53E
:1012200084E90E942D0501C0000080914F0190913A
:1012300050018E529440909349018093480111E0EF
:1012400010934701109346011093450110934401F8
:101250001093430110934201109341010E948C00AE
:101260001F921F931F921F921F921F931F938824F8
:101270008394AA24A394CC24C394E12C01E020E01D
:1012800040E067E00E94750380E091E090930F02D8
:1012900080930E020E94570781E090E090930F0226
:1012A00080930E020E94570782E090E090930F0215
:1012B00080930E020E94570783E090E090930F0204
:1012C00080930E020E9457070FB6F894DEBF0FBE40
:1012D000CDBFBB24B3949EE5492E9EE2592E2CE54A
:1012E000622E26E2722E68EC70E080E090E00E94B0
:1012F0004D0682E40E94AE073B980000000000000B
:1013000000000000000000000000000000000000DD
:1013100000000000000000000000000000000000CD
:10132000000088E0339B05C090911102916090937A
:10133000110290911102990F9093110245980000AB
:10134000000000000000000000000000000000009D
:10135000000000000000000000000000459A0000AE
:10136000000000008150F1F6449A80910D02823015
:1013700030F4F89482E092E00E94D00001C0F8942A
:101380008091090290910A02A0910B02B0910C0287
:10139000789490934B0180934A0120910001309101
:1013A00001012817390759F1909301018093000139
:1013B0006C01990FEE08FF08F7FE14C0E0915F0181
:1013C000F09160010190F081E02D6DE28FE591E0F8
:1013D000099566277727CB016C197D098E099F092E
:1013E0004AE003C04AE0C701B6010E94740542E02A
:1013F00050E066E371E08FE591E00E946902809120
:101400001102803211F40E94870680911102883007
:1014100041F460914E0180E090E00E94D00C0E9467
:10142000870680911102843009F05CC0E0904F0182
:10143000F09050019DE5E91696E2F906E0F02AE009
:10144000E21AF108F0925001E0924F018F2D0E94B4
:101450000605482F8E2D49830E940605682F21E43A
:10146000498184E10E942D0528E248EA67E584E984
:101470000E942D0504C05092500140924F0180916E
:101480004F01909150018E52944090934901809366
:101490004801B092470110924601B0924501B092C6
:1014A0004401B0924301B0924201B09241010E94C6
:1014B0008C001F92BF921F921F921F921F92BF9289
:1014C00088248394AA24A394CC24C394E12C01E01F
:1014D00020E040E067E00E9475030FB6F894DEBF9D
:1014E0000FBECDBF80911102823009F05CC0E09048
:1014F0004F01F09050019EE5E9169EE2F906E0F4F6
:101500002AE0E20EF11CF0925001E0924F018F2D83
:101510000E940605482F8E2D49830E940605682FDC
:1015200021E4498184E10E942D0528E248EA67E52B
:1015300084E90E942D0504C07092500160924F0111
:1015400080914F01909150018E52944090934901A7
:1015500080934801B092470110924601B092450134
:10156000B0924401B0924301B0924201B092410165
:101570000E948C001F92BF921F921F921F921F9277
:10158000BF9288248394AA24A394CC24C394E12CEE
:1015900001E020E040E067E00E9475030FB6F89498
:1015A000DEBF0FBECDBF80911102803109F052C065
:1015B00080914E0190914D01891720F48F5F8093A7
:1015C0004E0102C0B0924E0180914E01182F110FB2
:1015D000609150018FEF810F90E00E94D00C6091DC
:1015E0004F01812F90E00E94D00C80914F0190918B
:1015F00050018E5294409093490180934801B092DB
:101600004701B0924601B0924501B0924401B092B8
:101610004301B0924201B09241010E948C001F929E
:10162000BF921F921F921F92BF92BF9288248394F1
:10163000AA24A394CC24C394E12C01E020E040E050
:1016400067E00E9475030E9487060FB6F894DEBF1C
:101650000FBECDBF80911102803809F081C080910A
:101660004E0190914D01891720F48F5F80934E01B8
:1016700002C0B0924E0180914E01182F110F1092AE
:10168000500110924F018FEF810F90E00E94C80C23
:10169000E82EF12CFE2CEE24F0925001E0924F0146
:1016A000812F90E00E94C80CE82AC7018C55964211
:1016B0008330984028F4F0925001E0924F0104C02A
:1016C0007092500160924F0110914F018091500132
:1016D0000E940605482F812F49830E940605682F26
:1016E00021E4498184E10E942D0528E248EA67E56A
:1016F00084E90E942D0580914F01909150018E52F6
:1017000094409093490180934801B0924701B09270
:101710004601B0924501B0924401B0924301B092AB
:101720004201B09241010E948C001F92BF921F9211
:101730001F921F92BF92BF9288248394AA24A394DD
:10174000CC24C394E12C01E020E040E067E00E945B
:1017500075030E9487060FB6F894DEBF0FBECDBF9B
:10176000809111028034A1F528E248EA68E084E91A
:101770000E942D051092470110924601B09245013A
:10178000B092440110924301109242011092410123
:101790001F921F921F921F921F921F92BF92882426
:1017A0008394A12CC12CE12C00E020E040E065E016
:1017B00089E391E00E94750380914E0181508093EE
:1017C0004E010E9487060FB6F894DEBF0FBECDBF54
:1017D0000E94690388CDCF93DF931092620110922B
:1017E000610188EE93E0A0E0B0E080936301909304
:1017F0006401A0936501B093660181E291E090934A
:10180000600180935F0185EC90E090936C01809380
:101810006B0184EC90E090936E0180936D0180ECFD
:1018200090E09093700180936F0181EC90E0909331
:1018300072018093710182EC90E090937401809327
:10184000730186EC90E0909376018093750110927D
:1018500078011092790110927A0110927B01109216
:1018600010021092110261E083E10E94110661E012
:1018700082E10E94110661E081E10E941106449A12
:10188000459A439A10920F0210920E0261E084E092
:101890000E94110661E085E00E94110660E084E08C
:1018A0000E94C50560E085E00E94C50562E083E016
:1018B0000E94110662E082E00E941106E1EBF0E076
:1018C000E491F0E0EE0FFF1FEC55FF4FA591B491AE
:1018D000B0930302A0930202E3E9F0E084918093C5
:1018E0000602E0EBF0E0E491F0E0EE0FFF1FEC55B4
:1018F000FF4FC591D491D0930502C0930402E2E951
:10190000F0E0E491E09307021092090210920A02BB
:1019100010920B0210920C02EBE3FFE13197F1F70A
:10192000EC91E82381E009F480E02881909107029E
:10193000922309F0826022E032E080930802309323
:10194000FF012093FE0180916900837F8460809372
:101950006900E99A81E080930D023093FD012093A4
:10196000FC01809169008C7F816080936900E89A16
:1019700082E080930D0261E070E087E090E00E94D9
:101980001A0D9093010280930002DF91CF91089588
:10199000F999FECF92BD81BDF89A992780B5089537
:1019A000262FF999FECF1FBA92BD81BD20BD0FB67B
:1019B000F894FA9AF99A0FBE01960895AA1BBB1BD8
:1019C00051E107C0AA1FBB1FA617B70710F0A61B3F
:1019D000B70B881F991F5A95A9F780959095BC0160
:1019E000CD010895A1E21A2EAA1BBB1BFD010DC05B
:1019F000AA1FBB1FEE1FFF1FA217B307E407F507BF
:101A000020F0A21BB30BE40BF50B661F771F881F9A
:101A1000991F1A9469F760957095809590959B0130
:101A2000AC01BD01CF010895EE0FFF1F0590F491A9
:101A3000E02D09940F931F93CF93DF93869F80012E
:101A4000879F100D969F100D1124C8010E94360D1E
:101A5000EC01009729F0A80160E070E00E94680E98
:101A6000CE01DF91CF911F910F910895CF93DF9316
:101A70008230910510F482E090E0E0911402F09140
:101A8000150220E030E0C0E0D0E0309711F1408155
:101A9000518148175907C0F04817590761F48281EE
:101AA0009381209719F09B838A832BC09093150212
:101AB0008093140226C02115310519F042175307EF
:101AC00018F49A01BE01DF01EF010280F381E02DDD
:101AD000DCCF2115310509F1281B390B24303105E4
:101AE00090F412968D919C9113976115710521F0D8
:101AF000FB019383828304C09093150280931402A8
:101B0000FD01329644C0FD01E20FF31F81939193D2
:101B1000225031092D933C933AC02091120230910A
:101B20001302232B41F420910401309105013093DD
:101B3000130220931202209102013091030121151A
:101B4000310541F42DB73EB7409106015091070190
:101B5000241B350BE0911202F0911302E217F307F8
:101B6000A0F42E1B3F0B2817390778F0AC014E5F0D
:101B70005F4F2417350748F04E0F5F1F5093130235
:101B8000409312028193919302C0E0E0F0E0CF0114
:101B9000DF91CF9108950F931F93CF93DF93009719
:101BA00009F48CC0FC013297138212820091140256
:101BB000109115020115110581F420813181820FE8
:101BC000931F20911202309113022817390779F5DB
:101BD000F0931302E093120271C0D80140E050E08C
:101BE000AE17BF0750F412962D913C911397AD019B
:101BF0002115310509F1D901F3CF9D01DA013383B4
:101C0000228360817181860F971F8217930769F481
:101C1000EC0128813981260F371F2E5F3F4F31831A
:101C200020838A819B8193838283452B29F4F093BF
:101C30001502E093140242C01396FC93EE931297A0
:101C4000ED01499159919E01240F351FE217F307C9
:101C500071F480819181840F951F029611969C9357
:101C60008E938281938113969C938E931297E0E0DA
:101C7000F0E0D80112968D919C911397009719F07E
:101C8000F8018C01F6CF8D919C9198012E5F3F4F0A
:101C9000820F931F209112023091130228173907E7
:101CA00069F4309729F4109215021092140202C0C0
:101CB000138212821093130200931202DF91CF91CC
:101CC0001F910F91089581E090E0F8940C946F0EAD
:101CD000DC0101C06D9341505040E0F70895F89445
:021CE000FFCF34
:101CE20019FC00001602800006FE05FE03FE07FC3A
:101CF20007FA07F607EE07DE07BE077E00000000C0
:101D0200000003690298024703C902A702BB02202E
:101D120054554E4552000D0A00204D5554450000C1
:00000001FF
