:100000000C945D000C9485000C9485000C94850084
:100010000C9485000C9485000C9485000C9485004C
:100020000C9485000C9485000C9485000C9485003C
:100030000C9485000C9485000C9485000C9485002C
:100040000C945A050C9485000C94CA050C94A405D4
:100050000C9485000C9485000C9485000C9485000C
:100060000C9485000C94850000000008000201003B
:100070000003040700000000000000000000000072
:10008000250028002B0000000000240027002A0083
:10009000040404040404040402020202020203032E
:1000A0000303030301020408102040800102040836
:1000B0001020010204081020FC0511241FBECFEF00
:1000C000D8E0DEBFCDBF11E0A0E0B1E0E2E8F5E1AD
:1000D00002C005900D92A632B107D9F721E0A6E241
:1000E000B1E001C01D92A33EB207E1F710E0CDE5FB
:1000F000D0E004C02197FE010E946409CC35D107ED
:10010000C9F70E9439060C94BF0A0C94000090E0D5
:10011000FC01EC55FF4F2491FC01E057FF4F849107
:10012000882399F090E0880F991FFC01EA57FF4F50
:10013000A591B491FC01E458FF4F859194918FB73C
:10014000F894EC91E22BEC938FBF08953B9A20E05A
:1001500030E090E0AC01022E02C0559547950A941C
:10016000E2F740FF02C0439A01C04398459800005F
:10017000000000000000000000000000000000007F
:1001800000000000000000000000459A2F5F3F4F74
:1001900028303105F9F60895449A00000000000067
:1001A000000000000000000000000000000000004F
:1001B000000000000000000044980C94A600CF93BB
:1001C000DF9320E030E090E0482F50E067E070E0FF
:1001D000E1E0F0E0DA01022E02C0B595A7950A949D
:1001E000E2F7A0FF0AC0DB01A21BB30BEF0102C0C4
:1001F000CC0FDD1FAA95E2F79C2B2F5F3F4F2830D5
:10020000310541F7892FDF91CF9108953FB7F894D9
:100210008091350190913601A0913701B09138015C
:1002200026B5A89B05C02F3F19F00196A11DB11D51
:100230003FBFBA2FA92F982F8827820F911DA11D8C
:10024000B11DBC01CD0142E0660F771F881F991FC9
:100250004A95D1F708958F929F92AF92BF92CF9215
:10026000DF92EF92FF926B017C010E9406014B012D
:100270005C01C114D104E104F104F1F00E94060113
:10028000DC01CB0188199909AA09BB09883E934072
:10029000A105B10570F321E0C21AD108E108F10807
:1002A00088EE880E83E0981EA11CB11CC114D104F5
:1002B000E104F10419F7DDCFFF90EF90DF90CF90CC
:1002C000BF90AF909F908F900895CF92DF92EF9262
:1002D000FF920F931F93CF93DF936C017A018B01F1
:1002E000C0E0D0E0CE15DF0589F0D8016D918D0119
:1002F000D601ED91FC910190F081E02DC6010995A8
:10030000892B11F47E0102C02196ECCFC701DF9149
:10031000CF911F910F91FF90EF90DF90CF900895B4
:10032000089580E090E00895FC01538D448D252FC1
:1003300030E0842F90E0821B930B541710F0CF967F
:10034000089501970895FC01918D828D981761F0B1
:10035000828DDF01A80FB11D5D968C91928D9F5FFC
:100360009F73928F90E008958FEF9FEF0895FC01A7
:10037000918D828D981731F0828DE80FF11D858D5A
:1003800090E008958FEF9FEF0895FC01918D228DED
:10039000892F90E0805C9F4F821B91098F73992772
:1003A000089580E491E00E94C50121E0892B09F4C1
:1003B00020E0822F0895FC01848DDF01A80FB11D7C
:1003C000A35ABF4F2C91848D90E001968F7399278B
:1003D000848FA689B7892C93A089B1898C91806478
:1003E0008C93938D848D981306C00288F389E02D39
:1003F00080818F7D80830895EF92FF920F931F93EA
:10040000CF93DF93EC0181E0888F9B8D8C8D9813C7
:1004100005C0E889F989808185FD24C0F62E0B8D01
:1004200010E00F5F1F4F0F731127E02E8C8DE81225
:100430000CC00FB607FCFACFE889F989808185FFE7
:10044000F5CFCE010E94DB01F1CF8B8DFE01E80FCD
:10045000F11DE35AFF4FF0820B8FEA89FB898081FF
:10046000806207C0EE89FF896083E889F98980810D
:100470008064808381E090E0DF91CF911F910F91A4
:10048000FF90EF900895CF93DF93EC01888D882340
:10049000C9F0EA89FB89808185FD05C0A889B989F1
:1004A0008C9186FD0FC00FB607FCF5CF808185FFCC
:1004B000F2CFA889B9898C9185FFEDCFCE010E943A
:1004C000DB01E7CFDF91CF91089580E090E0892BA9
:1004D00029F00E94D10181110C9400000895382F59
:1004E000282F2F7D803309F4C5C0813351F082332A
:1004F00079F08333A1F080E090E0343309F4BDC09B
:1005000003C082E094E01FC0353309F4B9C003C0D2
:1005100081E696E818C0363309F4B5C003C082E41A
:1005200096E811C0373309F4B1C0383339F03933A4
:1005300041F0313459F0313649F005C083E696EC8C
:1005400002C083E496EC223419F405C083E296ECF1
:10055000233421F406C085E69AE40895243421F476
:1005600006C080E692E40895253421F406C080E3B5
:1005700090E60895263421F406C081E692E40895B9
:10058000273421F406C081E292E40895283421F44E
:1005900006C082E692EC0895293421F406C083E275
:1005A00094EC08952A3421F406C088E492E1089579
:1005B0002B3421F406C082E494E008952C3421F415
:1005C00006C085E298E408952D3421F406C080E643
:1005D00090E408952E3421F406C082E29CE608954A
:1005E0002F3421F406C086E294E60895203521F4E4
:1005F00006C082E696E40895213521F406C081E222
:1006000096EC0895223521F406C086E696E4089516
:10061000233521F406C085E29AE40895243521F4B7
:1006200006C085E492E40895253521F406C088E0EB
:1006300092E10895263521F406C082E694E40895F7
:10064000273521F406C080E398E40895283521F485
:1006500006C086E394E40895293521F408C084E1B6
:1006600098E208952A35A9F480E59AE0089588E093
:1006700098E2089582E79EE466CF83E094EC63CF2E
:1006800083E492EC60CF83E692EC5DCF82E096E06B
:100690005ACF08952F923F924F925F926F927F921E
:1006A0008F929F92AF92BF92CF92DF92EF92FF9282
:1006B0000F931F93CF93DF93CDB7DEB72F970FB66E
:1006C000F894DEBF0FBECDBF2C01B42EF22ED02E7B
:1006D0001A8219821C821B821E821D8218861F822A
:1006E0001A8619861C861B861E861D861C01FC0127
:1006F000862F90E09617C9F021912E3231F4933075
:1007000069F4815021E029A70EC02A3361F49330A7
:1007100009F01AC1815021E02FA305C0963019F4C9
:10072000815021E02AA79F5FE5CF883008F04AC0BA
:1007300082010E5F1F4FCE0101963C0197E0490EEA
:10074000511C912CF10181911F018E3211F08A33DD
:1007500071F4F2E09F1202C0F80101C0F101808142
:100760000E946F02F30191838083939418C0F1E09B
:100770009F1210C0F10180818E3211F08A3351F442
:10078000F80180810E946F02F3019183808392E0DF
:10079000992E05C00E946F02F301918380830F5F41
:1007A0001F4FF2E06F0E711C2414350459F680E4DB
:1007B0000E94CC0080EC0E94CC008E85BB2021F1F1
:1007C000816022C08E010F5F1F4F87E0782E9090CE
:1007D000DD01961658F4F201E90DF11D80816F8755
:1007E0000E946F02F801918380836F85961203C087
:1007F0001092DD0103C093949092DD017A940E5F14
:100800001F4F7110E4CFD3CF0E94A60081EC0E944D
:10081000CC008D850E94A60083EC0E94CC008C85C4
:10082000F11081600E94A60084EC0E94CC008B85B0
:100830000E94A60086EC0E94CC008A8528A5211182
:1008400081600E94A60087EC0E94CC002AA58985C1
:10085000211180680E94A60089EC0E94CC00888546
:10086000D11081600E94A6008AEC0E94CC008F818A
:10087000E11080680E94A6008CEC0E94CC008E8162
:100880002FA1211181600E94A6008DEC0E94CC0056
:1008900029A58D81211180680E94A6008FEC0E94FD
:1008A000CC001B818C81CC2049F081600E94A60085
:1008B00080ED0E94CC00812F806806C00E94A600B7
:1008C00080ED0E94CC00812F0E94A60082ED0E9444
:1008D000CC0019818A810E94A60083ED0E94CC0081
:1008E000812F0E94A60085EDAA2021F00E94CC0055
:1008F00080E203C00E94CC0080E00E94A60086ED4A
:10090000882021F00E94CC0084E003C00E94CC002B
:1009100080E00E94A60088ED0E94CC008FEF0E942C
:10092000A60089ED0E94CC008DA1882319F087E1F3
:100930000E94A6008CA1882381F08EA1882359F003
:100940008FE40E94A60007C0963009F0ECCE8150DB
:1009500021E028A7E8CE87E401C087E00E94A60036
:1009600088E00E94CC008FE80E94CC00449A2F9629
:100970000FB6F894DEBF0FBECDBFDF91CF911F91B0
:100980000F91FF90EF90DF90CF90BF90AF909F902E
:100990008F907F906F905F904F903F902F90089531
:1009A0008EBD00000DB407FEFDCF8EB50895CF9328
:1009B000DF9300D01F92CDB7DEB72A980000000069
:1009C0000000000000000000000000000000000027
:1009D0000000000000002B834A8369830E94D0043A
:1009E0000000000000000000000000000000000007
:1009F000000000000000000000002A9A6981862F94
:100A00000E94D0044A81842F0E94D0042B81822F1F
:100A10000E94D0042A98000000000000000000009E
:100A200000000000000000000000000000000000C6
:100A30000F900F900F90DF91CF9108950E94B30A0D
:100A4000EF92FF920F931F93CF93DF938C0161E09E
:100A500070E087E090E00E946A09FC01EC012496B6
:100A600020E030E08AE0E82EF12C2530310538F422
:100A7000C801B7010E945009805D888304C0DF016E
:100A8000A20FB31F1C92C801B7010E9450098B012D
:100A90002F5F3F4F21972730310539F78081803311
:100AA00009F41082CF01DF91CF911F910F91FF9038
:100AB000EF9008951F920F920FB60F9211242F936B
:100AC0003F938F939F93AF93BF9380913101909108
:100AD0003201A0913301B09134013091300123E013
:100AE000230F2D3720F40196A11DB11D05C026E866
:100AF000230F0296A11DB11D209330018093310177
:100B000090933201A0933301B09334018091350169
:100B100090913601A0913701B09138010196A11D45
:100B2000B11D8093350190933601A0933701B093A6
:100B30003801BF91AF919F918F913F912F910F906D
:100B40000FBE0F901F9018951F920F920FB60F9225
:100B500011242F933F934F935F936F937F938F93C2
:100B60009F93AF93BF93EF93FF9380E491E00E9434
:100B7000DB01FF91EF91BF91AF919F918F917F9199
:100B80006F915F914F913F912F910F900FBE0F90FA
:100B90001F9018951F920F920FB60F9211242F934A
:100BA0008F939F93EF93FF93E0915001F091510148
:100BB0008081E0915601F091570182FD12C0908131
:100BC000809159018F5F8F7320915A01821751F0E4
:100BD000E0915901F0E0E05CFE4F958F8093590160
:100BE00001C08081FF91EF919F918F912F910F9084
:100BF0000FBE0F901F901895E0E4F1E0138212826F
:100C000088EE93E0A0E0B0E084839583A683B78369
:100C10008AE091E09183808385EC90E095878487DA
:100C200084EC90E09787868780EC90E0918B808BB6
:100C300081EC90E0938B828B82EC90E0958B848B9F
:100C400086EC90E0978B868B118E128E138E148E0D
:100C5000EDEDF1E01082118283E10E94870082E1D4
:100C60000E94870081E10E948700449A459A439A36
:100C70000895CF93DF931F92CDB7DEB7789484B5F4
:100C8000826084BD84B5816084BD85B5826085BD88
:100C900085B5816085BD80916E00816080936E0016
:100CA0001092810080918100826080938100809108
:100CB00081008160809381008091800081608093B9
:100CC00080008091B10084608093B1008091B00079
:100CD00081608093B00080917A00846080937A0074
:100CE00080917A00826080937A0080917A0081609E
:100CF00080937A0080917A00806880937A001092C5
:100D0000C100E0915001F091510182E08083E091B7
:100D10004C01F0914D011082E0914E01F0914F0194
:100D20008FEC808310925801E0915401F0915501AD
:100D300086E08083E0915201F091530180818061CF
:100D40008083E0915201F09153018081886080831B
:100D5000E0915201F0915301808180688083E0919D
:100D60005201F091530180818F7D808368EC70E0A7
:100D700080E090E00E942B0180E40E94CC0080EC97
:100D80000E94CC001AE180E00E94A6001150D9F721
:100D900088E00E94CC008FE80E94CC00449A1F9209
:100DA00080912D018F931F921F921F9280912C0191
:100DB0008F9380912B018F9380902A01A09029011D
:100DC000C0902801E12C0091270120E040E066E07E
:100DD00088E191E00E944A031FB7F8940FB6F89497
:100DE000DEBF0FBECDBF80912601811163C08AE9AD
:100DF00090E0FC0124914EEA50E0FA01649130E069
:100E0000220F331F2A573F4FF901A591B4912C911E
:100E1000622309F040C0E2E7F0E02491FA01449136
:100E2000FC0194919923B9F1222339F1233091F0F7
:100E300038F42130A9F0223001F584B58F7D12C03D
:100E4000273091F02830A1F02430B9F4809180004F
:100E50008F7D03C0809180008F77809380000DC0CC
:100E600084B58F7784BD09C08091B0008F7703C0AF
:100E70008091B0008F7D8093B000E92FF0E0EE0FFD
:100E8000FF1FE458FF4FA591B4918FB7F8949C9140
:100E9000492B4C938FBF8AE00E9487008CB58061FC
:100EA0008CBD8CB580648CBD8DE00E9487008BE08A
:100EB0000E948700809126018F5F809326011FBFCB
:100EC00082E58CBD81E08DBD8CE596E290933A0180
:100ED00080933901FF24F3948CE5682E86E2782E06
:100EE0006AEF70E080E090E00E942B0182E40E94B3
:100EF000CC003B9898E0339B05C08091DE01816077
:100F00008093DE018091DE01880F8093DE01459899
:100F100000000000000000000000000000000000D1
:100F20000000000000000000000000000000459AE2
:100F30000000000000009150F1F6449A803211F454
:100F400000005AC0843009F057C000913901109157
:100F50003A010D35F6E21F07D8F00A501109109337
:100F60003A0100933901812F0E94DF00482F802F22
:100F700049830E94DF00682F21E4498184E10E94B7
:100F8000D70428E248EA67E584E90E94D70401C053
:100F900000008091390190913A018E5294409093D3
:100FA0002F0180932E01F0922D0110922C01F092CE
:100FB0002B01F0922A01F0922901F0922801F0927F
:100FC00027010E9420051F92FF921F921F921F92DD
:100FD0001F92FF9288248394AA24A394CC24C394C0
:100FE000E12C01E020E040E065E00E944A030FB6FA
:100FF000F894DEBF0FBECDBF8091DE01823009F0D4
:1010000057C00091390110913A010E359EE219073F
:10101000D8F4065F1F4F10933A0100933901812FD6
:101020000E94DF00482F802F49830E94DF00682F35
:1010300021E4498184E10E94D70428E248EA67E577
:1010400084E90E94D70401C0000080913901909189
:101050003A018E52944090932F0180932E01F0928A
:101060002D0110922C01F0922B01F0922A01F092A6
:101070002901F0922801F09227010E9420051F9279
:10108000FF921F921F921F921F92FF9288248394B7
:10109000AA24A394CC24C394E12C01E020E040E0F6
:1010A00065E00E944A030FB6F894DEBF0FBECDBFC5
:1010B0008091DE01803109F03FC060913A0180E00B
:1010C00090E00E9442096091390181E090E00E9425
:1010D00042098091390190913A018E529440909347
:1010E0002F0180932E01F0922D01F0922C01F092AD
:1010F0002B01F0922A01F0922901F0922801F0923E
:1011000027010E9420051F92FF921F921F921F929B
:10111000FF92FF9288248394AA24A394CC24C3949E
:10112000E12C01E020E040E065E00E944A030FB6B8
:10113000F894DEBF0FBECDBF8091DE01803809F08C
:1011400067C080E090E00E943A09182F81E090E0AB
:101150000E943A09812B282F30E0C901912B9C0174
:101160002C5536422330384028F490933A0180932E
:10117000390104C070923A0160923901109139012D
:1011800080913A010E94DF00482F812F49830E94FD
:10119000DF00682F21E4498184E10E94D70428E21E
:1011A00048EA67E584E90E94D7048091390190916B
:1011B0003A018E52944090932F0180932E01F09229
:1011C0002D0110922C01F0922B01F0922A01F09245
:1011D0002901F0922801F09227010E9420051F9218
:1011E000FF921F921F921F921F92FF928824839456
:1011F000AA24A394CC24C394E12C01E020E040E095
:1012000065E00E944A030FB6F894DEBF0FBECDBF63
:101210008091DE01803459F528E248EA68E084E9EB
:101220000E94D704109227011092280110922901E0
:1012300010922B0110922C0110922D011F921F92DF
:101240001F921F921F921F921F9280902A01A12C21
:10125000C12CE12C00E020E040E065E08FE191E06E
:101260000E944A030FB6F894DEBF0FBECDBF0E94A6
:10127000650236CEF999FECF92BD81BDF89A9927C5
:1012800080B50895262FF999FECF1FBA92BD81BD72
:1012900020BD0FB6F894FA9AF99A0FBE01960895F8
:1012A000AA1BBB1B51E107C0AA1FBB1FA617B7078C
:1012B00010F0A61BB70B881F991F5A95A9F78095A8
:1012C0009095BC01CD010895EE0FFF1F0590F4919C
:1012D000E02D09940F931F93CF93DF93869F800196
:1012E000879F100D969F100D1124C8010E9486093A
:1012F000EC01009729F0A80160E070E00E94B80AB4
:10130000CE01DF91CF911F910F910895CF93DF937D
:101310008230910510F482E090E0E091E101F091DB
:10132000E20120E030E0C0E0D0E0309711F14081F0
:10133000518148175907C0F04817590761F4828155
:101340009381209719F09B838A832BC09093E201AD
:101350008093E10126C02115310519F0421753078A
:1013600018F49A01BE01DF01EF010280F381E02D44
:10137000DCCF2115310509F1281B390B243031054B
:1013800090F412968D919C9113976115710521F03F
:10139000FB019383828304C09093E2018093E10177
:1013A000FD01329644C0FD01E20FF31F819391933A
:1013B000225031092D933C933AC02091DF013091A6
:1013C000E001232B41F4209102013091030130937D
:1013D000E0012093DF0120910001309101012115EE
:1013E000310541F42DB73EB74091040150910501FC
:1013F000241B350BE091DF01F091E001E217F307C8
:10140000A0F42E1B3F0B2817390778F0AC014E5F74
:101410005F4F2417350748F04E0F5F1F5093E001D0
:101420004093DF018193919302C0E0E0F0E0CF01AF
:10143000DF91CF9108950F931F93CF93DF93009780
:1014400009F48CC0FC013297138212820091E101F1
:101450001091E2010115110581F420813181820F83
:10146000931F2091DF013091E0012817390779F5AA
:10147000F093E001E093DF0171C0D80140E050E05B
:10148000AE17BF0750F412962D913C911397AD0102
:101490002115310509F1D901F3CF9D01DA0133831B
:1014A000228360817181860F971F8217930769F4E9
:1014B000EC0128813981260F371F2E5F3F4F318382
:1014C00020838A819B8193838283452B29F4F09327
:1014D000E201E093E10142C01396FC93EE93129770
:1014E000ED01499159919E01240F351FE217F30731
:1014F00071F480819181840F951F029611969C93BF
:101500008E938281938113969C938E931297E0E041
:10151000F0E0D80112968D919C911397009719F0E5
:10152000F8018C01F6CF8D919C9198012E5F3F4F71
:10153000820F931F2091DF013091E00128173907B6
:1015400069F4309729F41092E2011092E10102C08F
:10155000138212821093E0010093DF01DF91CF919B
:101560001F910F91089581E090E0F8940C94BF0AC8
:10157000DC0101C06D9341505040E0F70895F894AC
:02158000FFCF9B
:101582000000E301800000000000FC0165019401FD
:101592004302C501A301B7012054554E4552002014
:0615A2004D555445000008
:00000001FF
