:100000000C945D000C9485000C9485000C94850084
:100010000C9485000C9485000C9485000C9485004C
:100020000C9485000C9485000C9485000C9485003C
:100030000C9485000C9485000C9485000C9485002C
:100040000C947F050C9485000C94EF050C94C90565
:100050000C9485000C9485000C9485000C9485000C
:100060000C9485000C94850000000008000201003B
:100070000003040700000000000000000000000072
:10008000250028002B0000000000240027002A0083
:10009000040404040404040402020202020203032E
:1000A0000303030301020408102040800102040836
:1000B0001020010204081020210611241FBECFEFDA
:1000C000D8E0DEBFCDBF11E0A0E0B1E0E4E2F2E1B4
:1000D00002C005900D92A232B107D9F721E0A2E249
:1000E000B1E001C01D92A83DB207E1F710E0CDE5F7
:1000F000D0E004C02197FE010E940509CC35D1074C
:10010000C9F70E945E060C9410090C94000090E060
:10011000FC01EC55FF4F2491FC01E057FF4F849107
:10012000882399F090E0880F991FFC01EA57FF4F50
:10013000A591B491FC01E458FF4F859194918FB73C
:10014000F894EC91E22BEC938FBF08953B9A20E05A
:1001500030E090E0AC01022E02C0559547950A941C
:10016000E2F740FF02C0439A01C04398459800005F
:10017000000000000000000000000000000000007F
:1001800000000000000000000000459A2F5F3F4F74
:1001900028303105F9F60895449A00000000000067
:1001A000000000000000000000000000000000004F
:1001B000000000000000000044980C94A600CF93BB
:1001C000DF9320E030E090E0482F50E067E070E0FF
:1001D000E1E0F0E0DA01022E02C0B595A7950A949D
:1001E000E2F7A0FF0AC0DB01A21BB30BEF0102C0C4
:1001F000CC0FDD1FAA95E2F79C2B2F5F3F4F2830D5
:10020000310541F7892FDF91CF9108953FB7F894D9
:1002100080912C0190912D01A0912E01B0912F0180
:1002200026B5A89B05C02F3F19F00196A11DB11D51
:100230003FBFBA2FA92F982F8827820F911DA11D8C
:10024000B11DBC01CD0142E0660F771F881F991FC9
:100250004A95D1F708958F929F92AF92BF92CF9215
:10026000DF92EF92FF926B017C010E9406014B012D
:100270005C01C114D104E104F104F1F00E94060113
:10028000DC01CB0188199909AA09BB09883E934072
:10029000A105B10570F321E0C21AD108E108F10807
:1002A00088EE880E83E0981EA11CB11CC114D104F5
:1002B000E104F10419F7DDCFFF90EF90DF90CF90CC
:1002C000BF90AF909F908F900895CF92DF92EF9262
:1002D000FF920F931F93CF93DF936C017A018B01F1
:1002E000C0E0D0E0CE15DF0589F0D8016D918D0119
:1002F000D601ED91FC910190F081E02DC6010995A8
:10030000892B11F47E0102C02196ECCFC701DF9149
:10031000CF911F910F91FF90EF90DF90CF900895B4
:10032000089580E090E00895FC01538D448D252FC1
:1003300030E0842F90E0821B930B541710F0CF967F
:10034000089501970895FC01918D828D981761F0B1
:10035000828DDF01A80FB11D5D968C91928D9F5FFC
:100360009F73928F90E008958FEF9FEF0895FC01A7
:10037000918D828D981731F0828DE80FF11D858D5A
:1003800090E008958FEF9FEF0895FC01918D228DED
:10039000892F90E0805C9F4F821B91098F73992772
:1003A000089589E391E00E94C50121E0892B09F4B9
:1003B00020E0822F0895FC01848DDF01A80FB11D7C
:1003C000A35ABF4F2C91848D90E001968F7399278B
:1003D000848FA689B7892C93A089B1898C91806478
:1003E0008C93938D848D981306C00288F389E02D39
:1003F00080818F7D80830895EF92FF920F931F93EA
:10040000CF93DF93EC0181E0888F9B8D8C8D9813C7
:1004100005C0E889F989808185FD24C0F62E0B8D01
:1004200010E00F5F1F4F0F731127E02E8C8DE81225
:100430000CC00FB607FCFACFE889F989808185FFE7
:10044000F5CFCE010E94DB01F1CF8B8DFE01E80FCD
:10045000F11DE35AFF4FF0820B8FEA89FB898081FF
:10046000806207C0EE89FF896083E889F98980810D
:100470008064808381E090E0DF91CF911F910F91A4
:10048000FF90EF900895CF93DF93EC01888D882340
:10049000C9F0EA89FB89808185FD05C0A889B989F1
:1004A0008C9186FD0FC00FB607FCF5CF808185FFCC
:1004B000F2CFA889B9898C9185FFEDCFCE010E943A
:1004C000DB01E7CFDF91CF91089580E090E0892BA9
:1004D00029F00E94D10181110C9400000895382F59
:1004E000282F2F7D803309F4C5C0813351F082332A
:1004F00079F08333A1F080E090E0343309F4BDC09B
:1005000003C082E094E01FC0353309F4B9C003C0D2
:1005100081E696E818C0363309F4B5C003C082E41A
:1005200096E811C0373309F4B1C0383339F03933A4
:1005300041F0313459F0313649F005C083E696EC8C
:1005400002C083E496EC223419F405C083E296ECF1
:10055000233421F406C085E69AE40895243421F476
:1005600006C080E692E40895253421F406C080E3B5
:1005700090E60895263421F406C081E692E40895B9
:10058000273421F406C081E292E40895283421F44E
:1005900006C082E692EC0895293421F406C083E275
:1005A00094EC08952A3421F406C088E492E1089579
:1005B0002B3421F406C082E494E008952C3421F415
:1005C00006C085E298E408952D3421F406C080E643
:1005D00090E408952E3421F406C082E29CE608954A
:1005E0002F3421F406C086E294E60895203521F4E4
:1005F00006C082E696E40895213521F406C081E222
:1006000096EC0895223521F406C086E696E4089516
:10061000233521F406C085E29AE40895243521F4B7
:1006200006C085E492E40895253521F406C088E0EB
:1006300092E10895263521F406C082E694E40895F7
:10064000273521F406C080E398E40895283521F485
:1006500006C086E394E40895293521F408C084E1B6
:1006600098E208952A35A9F480E59AE0089588E093
:1006700098E2089582E79EE466CF83E094EC63CF2E
:1006800083E492EC60CF83E692EC5DCF82E096E06B
:100690005ACF08952F923F924F925F926F927F921E
:1006A0008F929F92AF92BF92CF92DF92EF92FF9282
:1006B0000F931F93CF93DF93CDB7DEB72F970FB66E
:1006C000F894DEBF0FBECDBF2C01B42EF22ED02E7B
:1006D0001A8219821C821B821E821D8218861F822A
:1006E0001A8619861C861B861E861D861C01FC0127
:1006F000862F90E09617C9F021912E3231F4933075
:1007000069F4815021E029A70EC02A3361F49330A7
:1007100009F01AC1815021E02FA305C0963019F4C9
:10072000815021E02AA79F5FE5CF883008F04AC0BA
:1007300082010E5F1F4FCE0101963C0197E0490EEA
:10074000511C912CF10181911F018E3211F08A33DD
:1007500071F4F2E09F1202C0F80101C0F101808142
:100760000E946F02F30191838083939418C0F1E09B
:100770009F1210C0F10180818E3211F08A3351F442
:10078000F80180810E946F02F3019183808392E0DF
:10079000992E05C00E946F02F301918380830F5F41
:1007A0001F4FF2E06F0E711C2414350459F680E4DB
:1007B0000E94CC0080EC0E94CC008E85BB2021F1F1
:1007C000816022C08E010F5F1F4F87E0782E9090CE
:1007D000D601961658F4F201E90DF11D80816F875C
:1007E0000E946F02F801918380836F85961203C087
:1007F0001092D60103C093949092D6017A940E5F22
:100800001F4F7110E4CFD3CF0E94A60081EC0E944D
:10081000CC008D850E94A60083EC0E94CC008C85C4
:10082000F11081600E94A60084EC0E94CC008B85B0
:100830000E94A60086EC0E94CC008A8528A5211182
:1008400081600E94A60087EC0E94CC002AA58985C1
:10085000211180680E94A60089EC0E94CC00888546
:10086000D11081600E94A6008AEC0E94CC008F818A
:10087000E11080680E94A6008CEC0E94CC008E8162
:100880002FA1211181600E94A6008DEC0E94CC0056
:1008900029A58D81211180680E94A6008FEC0E94FD
:1008A000CC001B818C81CC2049F081600E94A60085
:1008B00080ED0E94CC00812F806806C00E94A600B7
:1008C00080ED0E94CC00812F0E94A60082ED0E9444
:1008D000CC0019818A810E94A60083ED0E94CC0081
:1008E000812F0E94A60085EDAA2021F00E94CC0055
:1008F00080E203C00E94CC0080E00E94A60086ED4A
:10090000882021F00E94CC0084E003C00E94CC002B
:1009100080E00E94A60088ED0E94CC008FEF0E942C
:10092000A60089ED0E94CC008DA1882319F087E1F3
:100930000E94A6008CA1882381F08EA1882359F003
:100940008FE40E94A60007C0963009F0ECCE8150DB
:1009500021E028A7E8CE87E401C087E00E94A60036
:1009600088E00E94CC008FE80E94CC00449A2F9629
:100970000FB6F894DEBF0FBECDBFDF91CF911F91B0
:100980000F91FF90EF90DF90CF90BF90AF909F902E
:100990008F907F906F905F904F903F902F90089531
:1009A00008958EBD00000DB407FEFDCF8EB50895ED
:1009B000CF93DF9300D01F92CDB7DEB72A98000007
:1009C0000000000000000000000000000000000027
:1009D00000000000000000002B834A8369830E940E
:1009E000D104000000000000000000000000000032
:1009F0000000000000000000000000002A9A698149
:100A0000862F0E94D1044A81842F0E94D1042B8119
:100A1000822F0E94D1042A980000000000000000EC
:100A200000000000000000000000000000000000C6
:100A300000000F900F900F90DF91CF910895CF930A
:100A4000DF932A9800000000000000000000000072
:100A5000000000000000000000000000000084E52D
:100A60000E94D1040000000000000000000000000F
:100A700000000000000000000000000000002A9AB2
:100A800080E00E94D104C82F80E00E94D104D82FBA
:100A900080E00E94D104482F2A9800000000000046
:100AA0000000000000000000000000000000000046
:100AB00000000000E0E3F1E02C2F30E084E0359509
:100AC00027958A95E1F7248385819681A781B08552
:100AD0008C2BBA2FA92F982F88278D2BBA2FA92FAF
:100AE000982F8827842B9F70AA27BB2785839683FE
:100AF000A783B087DF91CF9108950E940B091F92C1
:100B00000F920FB60F9211242F933F938F939F93C1
:100B1000AF93BF938091280190912901A0912A0160
:100B2000B0912B013091270123E0230F2D3720F4C2
:100B30000196A11DB11D05C026E8230F0296A11D37
:100B4000B11D209327018093280190932901A09340
:100B50002A01B0932B0180912C0190912D01A0913D
:100B60002E01B0912F010196A11DB11D80932C0182
:100B700090932D01A0932E01B0932F01BF91AF91BF
:100B80009F918F913F912F910F900FBE0F901F90CB
:100B900018951F920F920FB60F9211242F933F9327
:100BA0004F935F936F937F938F939F93AF93BF9375
:100BB000EF93FF9389E391E00E94DB01FF91EF91B6
:100BC000BF91AF919F918F917F916F915F914F9165
:100BD0003F912F910F900FBE0F901F9018951F926D
:100BE0000F920FB60F9211242F938F939F93EF9331
:100BF000FF93E0914901F0914A018081E0914F011A
:100C0000F091500182FD12C09081809152018F5F5E
:100C10008F7320915301821751F0E0915201F0E05F
:100C2000E75CFE4F958F8093520101C08081FF9158
:100C3000EF919F918F912F910F900FBE0F901F906A
:100C40001895E9E3F1E01382128288EE93E0A0E0C8
:100C5000B0E084839583A683B78384E091E0918399
:100C6000808385EC90E09587848784EC90E097877B
:100C7000868780EC90E0918B808B81EC90E0938B69
:100C8000828B82EC90E0958B848B86EC90E0978B46
:100C9000868B118E128E138E148EE6EDF1E010828B
:100CA000118283E10E94870082E10E94870081E136
:100CB0000E948700449A459A439A0895CF93DF9300
:100CC000CDB7DEB7A2970FB6F894DEBF0FBECDBF8B
:100CD000789484B5826084BD84B5816084BD85B517
:100CE000826085BD85B5816085BD80916E00816023
:100CF00080936E00109281008091810082608093C9
:100D000081008091810081608093810080918000CA
:100D10008160809380008091B10084608093B100F5
:100D20008091B00081608093B00080917A008460EF
:100D300080937A0080917A00826080937A0080911B
:100D40007A00816080937A0080917A008068809335
:100D50007A001092C100E0914901F0914A0182E0CD
:100D60008083E0914501F09146011082E0914701B6
:100D7000F09148018FEC808310925101E0914D0178
:100D8000F0914E0186E08083E0914B01F0914C019F
:100D9000808180618083E0914B01F0914C018081E2
:100DA00088608083E0914B01F0914C0180818068E4
:100DB0008083E0914B01F0914C0180818F7D808395
:100DC00068EC70E080E090E00E942B0180E40E94DB
:100DD000CC0080EC0E94CC001AE180E00E94A600CA
:100DE0001150D9F788E00E94CC008FE80E94CC0017
:100DF000449A1F921F921F921F921F921F928091DE
:100E000024018F93812CA0902501C0902601E12C14
:100E10000091230120E040E066E082E191E00E9441
:100E20004A031FB7F8940FB6F894DEBF0FBECDBFCC
:100E300080912201811163C08AE990E0FC01249134
:100E40004EEA50E0FA01649130E0220F331F2A5736
:100E50003F4FF901A591B4912C91622309F040C054
:100E6000E2E7F0E02491FA014491FC019491992386
:100E7000B9F1222339F1233091F038F42130A9F06F
:100E8000223001F584B58F7D12C0273091F02830D3
:100E9000A1F02430B9F4809180008F7D03C080914F
:100EA00080008F77809380000DC084B58F7784BDDC
:100EB00009C08091B0008F7703C08091B0008F7D12
:100EC0008093B000E92FF0E0EE0FFF1FE458FF4FD2
:100ED000A591B4918FB7F8949C91492B4C938FBFF7
:100EE0008AE00E9487008CB580618CBD8CB58064DF
:100EF0008CBD8DE00E9487008BE00E94870080916E
:100F000022018F5F809322011FBF82E58CBD81E0AB
:100F10008DBD8CEA97E090933101809330019093DE
:100F20003301809332018AE0482E512C612C712CC0
:100F3000FF24F39464EF71E080E090E00E942B01C5
:100F4000209135013091360140913701509138019F
:100F500019A28E010F5D1F4FCA01B901A3019201B1
:100F60000E94E308605DF80162938F01211531054D
:100F70004105510589F7309761F001900020E9F7AC
:100F80003197AF01401B510BB80189E391E00E94FA
:100F9000650142E050E069E171E089E391E00E947F
:100FA000650182E40E94CC003B9898E0339B05C029
:100FB0008091D70181608093D7018091D701880FFC
:100FC0008093D70145980000000000000000000059
:100FD0000000000000000000000000000000000011
:100FE00000000000459A0000000000009150F1F65A
:100FF000449A803241F1843039F5809130019091EA
:1010000031018D3A9740F8F000913201109133018F
:101010000A5011091093310100933001812F0E9471
:10102000DF00482F802F4AA30E94DF00682F20E4B2
:101030004AA184E10E94D80428E248EA67E584E9ED
:101040000E94D80401C000008091D701823039F598
:10105000809130019091310186349940F8F40091EB
:10106000320110913301065F1F4F1093310100933D
:101070003001812F0E94DF00482F802F4AA30E9459
:10108000DF00682F20E44AA184E10E94D80428E20E
:1010900048EA67E584E90E94D80401C00000809115
:1010A000D701803111F4000061C0803809F05EC0C2
:1010B00088E00E94DF00082F8CEB0E94DF00182FD1
:1010C00020E4402F682F84E10E94D80428E248EAF7
:1010D00067E584E90E94D8040E941F0565E070E07E
:1010E00080E090E00E942B018091340182FF02C0D9
:1010F00080FFF2CF20E6402F612F84E10E94D804C8
:101100001C99FECF65E070E080E090E00E942B012A
:101110000E941F058091340182FD06C0F0922601D5
:10112000F0922501F09224018091340183FFF09226
:1011300023011F921F921F921F921F921F92809154
:1011400024018F93812CA0902501C0902601E12CD1
:101150000091230120E040E066E082E191E00E94FE
:101160004A030FB6F894DEBF0FBECDBF8091D70102
:10117000803431F528E248EA68E084E90E94D80426
:101180001092230110922601109225011092240141
:101190001F921F921F921F921F921F921F92812CCB
:1011A000A12CC12CE12C00E020E040E065E08CE1C6
:1011B00091E00E944A030FB6F894DEBF0FBECDBF88
:1011C0000E946502B7CEA1E21A2EAA1BBB1BFD012D
:1011D0000DC0AA1FBB1FEE1FFF1FA217B307E40716
:1011E000F50720F0A21BB30BE40BF50B661F771F6E
:1011F000881F991F1A9469F760957095809590954E
:101200009B01AC01BD01CF010895EE0FFF1F0590BA
:10121000F491E02D099481E090E0F8940C94100989
:04122000F894FFCF70
:1012240000000000FC01650194014302C501A30113
:10123400B7012054554E4552000D0A00204D555417
:02124400450063
:00000001FF
