:100000000C945C000C946E000C946E000C94D50162
:100010000C94D5010C94D5010C946E000C946E00D8
:100020000C946E000C946E000C946E000C946E0098
:100030000C946E000C946E000C946E000C946E0088
:100040000C948B010C946E000C946E000C946E005A
:100050000C946E000C946E000C946E000C946E0068
:100060000C946E000C946E00000000080002010069
:100070000003040700000000000000000000000072
:10008000250028002B0000000000240027002A0083
:10009000040404040404040402020202020203032E
:1000A0000303030301020408102040800102040836
:1000B000102001020408102011241FBECFEFD8E049
:1000C000DEBFCDBF21E0A0E0B1E001C01D92AB30AA
:1000D000B207E1F70E94DF010C9479020C94000052
:1000E00090E0FC01EC55FF4F2491FC01E057FF4FDD
:1000F0008491882399F090E0880F991FFC01EA57BA
:10010000FF4FA591B491FC01E458FF4F8591949164
:100110008FB7F894EC91E22BEC938FBF089590E0A9
:10012000FC01E859FF4F3491FC01EC55FF4F24913D
:10013000FC01E057FF4FE491EE2309F43BC0332369
:1001400039F1333091F038F43130A9F0323001F523
:1001500084B58F7D12C0373091F03830A1F0343043
:10016000B9F4809180008F7D03C0809180008F77EB
:10017000809380000DC084B58F7784BD09C08091C5
:10018000B0008F7703C08091B0008F7D8093B00066
:10019000F0E0EE0FFF1FE458FF4FA591B4918FB729
:1001A000F894EC91611103C020952E2301C02E2BF1
:1001B0002C938FBF08950F931F93CF93DF93082F36
:1001C00082E10E94700060E084E10E948F000000E4
:1001D000000000000000000000000000C0E0D0E0CF
:1001E00010E0C8010C2E01C0880F0A94EAF787FFBF
:1001F00002C061E001C060E082E10E948F0061E026
:1002000084E10E948F000000000000000000000058
:100210000000000060E084E10E948F000000000008
:10022000000000000000000000002196C830D10549
:10023000C1F6DF91CF911F910F910895CF93C82FF1
:1002400061E083E10E948F0060E083E10E948F0003
:100250008C2FCF910C94DB003FB7F894809107016D
:1002600090910801A0910901B0910A0126B5A89BBF
:1002700005C02F3F19F00196A11DB11D3FBFBA2F38
:10028000A92F982F8827820F911DA11DB11DBC0198
:10029000CD0142E0660F771F881F991F4A95D1F75D
:1002A00008958F929F92AF92BF92CF92DF92EF927A
:1002B000FF926B017C010E942C014B015C01C11477
:1002C000D104E104F104F1F00E942C01DC01CB0126
:1002D00088199909AA09BB09883E9340A105B1056F
:1002E00070F321E0C21AD108E108F10888EE880E07
:1002F00083E0981EA11CB11CC114D104E104F104D7
:1003000019F7DDCFFF90EF90DF90CF90BF90AF90C7
:100310009F908F9008951F920F920FB60F92112405
:100320002F933F938F939F93AF93BF93809103013C
:1003300090910401A0910501B09106013091020154
:1003400023E0230F2D3720F40196A11DB11D05C018
:1003500026E8230F0296A11DB11D20930201809370
:10036000030190930401A0930501B09306018091CD
:10037000070190910801A0910901B0910A0101962D
:10038000A11DB11D8093070190930801A09309015D
:10039000B0930A01BF91AF919F918F913F912F919F
:1003A0000F900FBE0F901F9018951F920F920FB6CF
:1003B0000F9211240F900FBE0F901F9018957894F4
:1003C00084B5826084BD84B5816084BD85B582605A
:1003D00085BD85B5816085BD80916E00816080930B
:1003E0006E00109281008091810082608093810074
:1003F0008091810081608093810080918000816084
:10040000809380008091B10084608093B1008091DE
:10041000B00081608093B00080917A008460809306
:100420007A0080917A00826080937A0080917A00CD
:10043000816080937A0080917A00806880937A004E
:100440001092C1008DE00E94700084E10E94700053
:1004500083E10E94700082E10E94700068EC70E00D
:1004600080E090E00E94510180E40E941E0180EC37
:100470000E941E01C0E380E00E94DB00C150D9F75A
:100480008EE00E941E018BE80E941E0161E083E164
:100490000E948F0000E010E061E08DE00E948F007C
:1004A00068EE73E080E090E00E94510160E08DE032
:1004B0000E948F0068EE73E080E090E00E9451019E
:1004C00080E40E941E0180EC0E941E01C0E08C2F7F
:1004D0000E94DB00CF5FC033D1F78EE00E941E0187
:1004E0008BE80E941E0101151105B1F20E94000067
:0604F000D3CFF894FFCF0A
:00000001FF
