:100000000C945D000C947A000C947A000C947A00A5
:100010000C947A000C947A000C947A000C947A0078
:100020000C947A000C947A000C947A000C947A0068
:100030000C947A000C947A000C947A000C947A0058
:100040000C94F9000C947A000C947A000C947A00C9
:100050000C947A000C947A000C947A000C947A0038
:100060000C947A000C947A00000000080002010051
:100070000003040700000000000000000000000072
:10008000250028002B0000000000240027002A0083
:10009000040404040404040402020202020203032E
:1000A0000303030301020408102040800102040836
:1000B0001020010204081020A30211241FBECFEF5C
:1000C000D8E0DEBFCDBF21E0A0E0B1E001C01D92CD
:1000D000AB30B207E1F710E0CDE5D0E004C02197E6
:1000E000FE010E94B202CC35D107C9F70E9443013C
:1000F0000C94B8020C94000090E0FC01EC55FF4F0A
:100100002491FC01E057FF4F8491882399F090E0FF
:10011000880F991FFC01EA57FF4FA591B491FC018C
:10012000E458FF4F859194918FB7F894EC91E22BAE
:10013000EC938FBF08953B9A20E030E090E0AC0153
:10014000022E02C0559547950A94E2F740FF02C07F
:10015000439A01C043984598000000000000000049
:10016000000000000000000000000000000000008F
:1001700000000000459A2F5F3F4F28303105F9F607
:100180000895449A000000000000000000000000F4
:10019000000000000000000000000000000000005F
:1001A000000044980C949B003FB7F894809106019E
:1001B00090910701A0910801B091090126B5A89B73
:1001C00005C02F3F19F00196A11DB11D3FBFBA2FE9
:1001D000A92F982F8827820F911DA11DB11DBC0149
:1001E000CD0142E0660F771F881F991F4A95D1F70E
:1001F00008951F920F920FB60F9211242F933F93E1
:100200008F939F93AF93BF938091020190910301CD
:10021000A0910401B09105013091010123E0230F69
:100220002D3720F40196A11DB11D05C026E8230F2E
:100230000296A11DB11D20930101809302019093AC
:100240000301A0930401B0930501809106019091F0
:100250000701A0910801B09109010196A11DB11DEE
:100260008093060190930701A0930801B0930901C0
:10027000BF91AF919F918F913F912F910F900FBEA2
:100280000F901F901895789484B5826084BD84B5D2
:10029000816084BD85B5826085BD85B5816085BD81
:1002A00080916E00816080936E0010928100809139
:1002B00081008260809381008091810081608093C1
:1002C0008100809180008160809380008091B100E6
:1002D00084608093B1008091B00081608093B00011
:1002E00080917A00846080937A0080917A008260A5
:1002F00080937A0080917A00816080937A00809167
:100300007A00806880937A001092C1000E94D40025
:100310004B015C01E8ECCE2ED12CE12CF12C0E949B
:10032000D400DC01CB0188199909AA09BB09883ED0
:100330009340A105B10558F021E0C21AD108E108A7
:10034000F10888EE880E83E0981EA11CB11CC11430
:10035000D104E104F10419F780E40E94C10080ECAB
:100360000E94C100CAE180E00E949B00C150D9F701
:1003700088E00E94C1008FE80E94C100449A80E496
:100380000E94C10080EC0E94C10080E00E949B009E
:1003900081EC0E94C10080E00E949B0083EC0E94DF
:1003A000C10080E00E949B0084EC0E94C10080E0BC
:1003B0000E949B0086EC0E94C10080E00E949B008E
:1003C00087EC0E94C10080E00E949B0089EC0E94A3
:1003D000C10080E00E949B008AEC0E94C10080E086
:1003E0000E949B008CEC0E94C10080E00E949B0058
:1003F0008DEC0E94C10080E00E949B008FEC0E9467
:10040000C10080E00E949B0080ED0E94C10080E05E
:100410000E949B0082ED0E94C10080E00E949B0030
:1004200083ED0E94C10080E00E949B0088ED0E9445
:10043000C1008FEF0E949B0089ED0E94C10087E000
:100440000E949B0088E00E94C1008FE80E94C100CA
:10045000449ACFB7F89480910001811163C08AE972
:1004600090E0FC0124914EEA50E0FA01649130E002
:10047000220F331F2A573F4FF901A591B4912C91B8
:10048000622309F040C0E2E7F0E02491FA014491D0
:10049000FC0194919923B9F1222339F1233091F091
:1004A00038F42130A9F0223001F584B58F7D12C0D7
:1004B000273091F02830A1F02430B9F480918000E9
:1004C0008F7D03C0809180008F77809380000DC066
:1004D00084B58F7784BD09C08091B0008F7703C049
:1004E0008091B0008F7D8093B000E92FF0E0EE0F97
:1004F000FF1FE458FF4FA591B4918FB7F8949C91DA
:10050000492B4C938FBF8AE00E947C008CB58061A0
:100510008CBD8CB580648CBD8DE00E947C008BE02E
:100520000E947C00809100018F5F80930001CFBF0B
:1005300082E58CBD81E08DBDC0E0D0E02097F1F375
:100540000E940000FBCF10920A0183E10E947C0010
:1005500082E10E947C0081E10E947C00449A459ADD
:10056000439A0895EE0FFF1F0590F491E02D099432
:04057000F894FFCF2D
:00000001FF
