:100000000C9462000C948A000C948A000C948A0070
:100010000C948A000C948A000C948A000C948A0038
:100020000C948A000C948A000C948A000C948A0028
:100030000C948A000C948A000C948A000C948A0018
:100040000C94C6020C948A000C9436030C94100392
:100050000C948A000C948A000C948A000C948A00F8
:100060000C948A000C948A000000000023002600F3
:10007000290000000000240027002A0000000000E2
:10008000250028002B0004040404040404040202D4
:100090000202020203030303030301020408102007
:1000A0004080010204081020010204081020000012
:1000B0000008000201000003040700000000000027
:1000C0000000680311241FBECFEFD8E0DEBFCDBF14
:1000D00011E0A0E0B1E0EAEEFAE002C005900D9276
:1000E000A631B107D9F721E0A6E1B1E001C01D9228
:1000F000AD3BB207E1F710E0C2E6D0E004C02197C3
:10010000FE010E946805C136D107C9F70E94AE03FF
:100110000C9473050C940000833081F028F4813036
:1001200099F08230A1F008958730A9F08830B9F0B5
:100130008430D1F4809180008F7D03C08091800055
:100140008F7780938000089584B58F7702C084B53F
:100150008F7D84BD08958091B0008F7703C080911A
:10016000B0008F7D8093B00008951F93CF93DF93ED
:10017000282F30E0F901E255FF4F8491F901E6564E
:10018000FF4FD491F901EA57FF4FC491CC23C9F036
:10019000162F81110E948C00EC2FF0E0EE0FFF1F54
:1001A000E458FF4FA591B4918FB7F894111105C091
:1001B0009C91ED2FE095E92302C0EC91ED2BEC939F
:1001C0008FBFDF91CF911F910895CF93DF9390E080
:1001D000FC01E656FF4F2491FC01EA57FF4F849142
:1001E000882361F190E0880F991FFC01EE58FF4FC2
:1001F000C591D491FC01E458FF4FA591B4916111D0
:1002000009C09FB7F8948881209582238883EC9158
:100210002E230BC0623061F49FB7F8943881822F8F
:10022000809583238883EC912E2B2C939FBF06C04F
:100230008FB7F894E8812E2B28838FBFDF91CF9161
:1002400008950F931F93CF93DF93082F61E081E10F
:100250000E94E500C0E0D0E010E0C8010C2E02C012
:10026000959587950A94E2F780FF02C061E001C08E
:1002700060E081E10E94B50060E083E10E94B5008A
:1002800061E083E10E94B5002196C830D10529F7CD
:10029000DF91CF911F910F910895CF93C82F61E007
:1002A00082E10E94B50060E082E10E94B5008C2FDF
:1002B000CF910C9421013FB7F89480911B0190914C
:1002C0001C01A0911D01B0911E0126B5A89B05C07F
:1002D0002F3F19F00196A11DB11D3FBFBA2FA92FC5
:1002E000982F8827820F911DA11DB11DBC01CD0142
:1002F00042E0660F771F881F991F4A95D1F708952E
:100300008F929F92AF92BF92CF92DF92EF92FF9225
:100310006B017C010E945B014B015C01C114D104A3
:10032000E104F104F1F00E945B01DC01CB018819CA
:100330009909AA09BB09883E9340A105B10570F34C
:1003400021E0C21AD108E108F10888EE880E83E0A6
:10035000981EA11CB11CC114D104E104F10419F7C9
:10036000DDCFFF90EF90DF90CF90BF90AF909F9048
:100370008F900895CF92DF92EF92FF920F931F9389
:10038000CF93DF936C017A018B01C0E0D0E0CE15F2
:10039000DF0589F0D8016D918D01D601ED91FC91B9
:1003A0000190F081E02DC6010995892B11F47E01A1
:1003B00002C02196ECCFC701DF91CF911F910F9121
:1003C000FF90EF90DF90CF900895089580E090E047
:1003D0000895FC01538D448D252F30E0842F90E04B
:1003E000821B930B541710F0CF9608950197089530
:1003F000FC01918D828D981761F0828DDF01A80F2D
:10040000B11D5D968C91928D9F5F9F73928F90E04E
:1004100008958FEF9FEF0895FC01918D828D9817BD
:1004200031F0828DE80FF11D858D90E008958FEFFA
:100430009FEF0895FC01918D228D892F90E0805CC3
:100440009F4F821B91098F73992708958FE191E047
:100450000E941A0221E0892B09F420E0822F0895DE
:10046000FC01848DDF01A80FB11DA35ABF4F2C9151
:10047000848D90E001968F739927848FA689B78920
:100480002C93A089B1898C9180648C93938D848DF9
:10049000981306C00288F389E02D80818F7D8083C8
:1004A0000895EF92FF920F931F93CF93DF93EC0188
:1004B00081E0888F9B8D8C8D981305C0E889F98920
:1004C000808185FD24C0F62E0B8D10E00F5F1F4F3D
:1004D0000F731127E02E8C8DE8120CC00FB607FCAD
:1004E000FACFE889F989808185FFF5CFCE010E9496
:1004F0003002F1CF8B8DFE01E80FF11DE35AFF4F63
:10050000F0820B8FEA89FB898081806207C0EE89C7
:10051000FF896083E889F98980818064808381E034
:1005200090E0DF91CF911F910F91FF90EF90089590
:10053000CF93DF93EC01888D8823C9F0EA89FB898A
:10054000808185FD05C0A889B9898C9186FD0FC081
:100550000FB607FCF5CF808185FFF2CFA889B98956
:100560008C9185FFEDCFCE010E943002E7CFDF9165
:10057000CF91089580E090E0892B29F00E94260217
:1005800081110C94000008950E946E051F920F9235
:100590000FB60F9211242F933F938F939F93AF9396
:1005A000BF938091170190911801A0911901B0910A
:1005B0001A013091160123E0230F2D3720F4019604
:1005C000A11DB11D05C026E8230F0296A11DB11D76
:1005D000209316018093170190931801A09319019D
:1005E000B0931A0180911B0190911C01A0911D01F3
:1005F000B0911E010196A11DB11D80931B01909326
:100600001C01A0931D01B0931E01BF91AF919F915A
:100610008F913F912F910F900FBE0F901F901895C3
:100620001F920F920FB60F9211242F933F934F9367
:100630005F936F937F938F939F93AF93BF93EF934A
:10064000FF938FE191E00E943002FF91EF91BF9103
:10065000AF919F918F917F916F915F914F913F915A
:100660002F910F900FBE0F901F9018951F920F9211
:100670000FB60F9211242F938F939F93EF93FF93B5
:10068000E0912F01F09130018081E0913501F091EE
:10069000360182FD12C09081809138018F5F8F7387
:1006A00020913901821751F0E0913801F0E0E15ECC
:1006B000FE4F958F8093380101C08081FF91EF91AB
:1006C0009F918F912F910F900FBE0F901F901895B3
:1006D000EFE1F1E01382128288EE93E0A0E0B0E057
:1006E00084839583A683B78384E091E0918380839C
:1006F00085EC90E09587848784EC90E097878687E7
:1007000080EC90E0918B808B81EC90E0938B828BDE
:1007100082EC90E0958B848B86EC90E0978B868BB7
:10072000118E128E138E148E1092BC0161E083E143
:100730000E94E50061E082E10E94E50061E081E164
:100740000E94E50061E082E10E94B50061E083E182
:100750000E94B50061E081E10C94B500CF93DF9376
:10076000CDB7DEB7A1970FB6F894DEBF0FBECDBFF1
:10077000789484B5826084BD84B5816084BD85B57C
:10078000826085BD85B5816085BD80916E00816088
:1007900080936E001092810080918100826080932E
:1007A0008100809181008160809381008091800030
:1007B0008160809380008091B10084608093B1005B
:1007C0008091B00081608093B00080917A00846055
:1007D00080937A0080917A00826080937A00809181
:1007E0007A00816080937A0080917A00806880939B
:1007F0007A001092C100E0912F01F091300182E067
:100800008083E0912B01F0912C011082E0912D0169
:10081000F0912E018FEC808310923701E09133012B
:10082000F091340186E08083E0913101F091320152
:10083000808180618083E0913101F091320180817B
:1008400088608083E0913101F0913201808180687D
:100850008083E0913101F091320180818F7D80832E
:1008600068EC70E080E090E00E94800180E40E94EB
:100870004D0180EC0E944D011AE180E00E942101AF
:100880001150D9F788E00E944D018FE80E944D0178
:1008900061E082E10E94B50080E40E944D0180EC9D
:1008A0000E944D018FE40E94210181EC0E944D01C4
:1008B00082E70E94210183EC0E944D018FE40E9497
:1008C000210184EC0E944D0182E70E94210186EC07
:1008D0000E944D018FE40E94210187EC0E944D018E
:1008E00082E70E94210189EC0E944D0183EC0E9465
:1008F00021018AEC0E944D0183EE0E9421018CECC3
:100900000E944D0187E80E9421018DEC0E944D015B
:1009100082E40E9421018FEC0E944D018FE40E942D
:10092000210180ED0E944D0182EF0E94210182EDA4
:100930000E944D0184E00E94210183ED0E944D013F
:1009400082E00E94210185ED0E944D0180E20E941B
:10095000210186ED0E944D0187E00E94210188ED72
:100960000E944D018FEF0E94210189ED0E944D01EF
:100970008FE70E94210188E00E944D018FE80E94CC
:100980004D0161E082E10E94B5003FEBE32E30E0D3
:10099000F32E4BEAC42E40E0D42E57E9A52E50E0AA
:1009A000B52E6AE0462E512C612C712C82E40E94F7
:1009B0004D0160E081E10E94E50008E0F7018491CB
:1009C000F6019490F5011491112381F081110E9498
:1009D0008C00812F90E0880F991F88599F4FFC0150
:1009E000A591B4918C91982209F04AC08091BC01E4
:1009F000880F8093BC0160E083E10E94B50061E054
:100A000083E10E94B5000150C9F661E082E10E94D5
:100A1000B5002091BC0130E040E050E019A28E0109
:100A20000F5D1F4FCA01B901A30192010E94460543
:100A3000605DF80162938F01211531054105510573
:100A400089F7309761F001900020E9F73197AF0105
:100A5000401B510BB8018FE191E00E94BA0142E0C6
:100A600050E062E171E08FE191E00E94BA0164EF31
:100A700071E080E090E00E9480010E94BA0296CF6F
:100A80008091BC0181608093BC01B0CFA1E21A2E9D
:100A9000AA1BBB1BFD010DC0AA1FBB1FEE1FFF1F22
:100AA000A217B307E407F50720F0A21BB30BE40B72
:100AB000F50B661F771F881F991F1A9469F76095B9
:100AC0007095809590959B01AC01BD01CF01089573
:100AD000EE0FFF1F0590F491E02D099481E090E066
:0A0AE000F8940C947305F894FFCF0E
:100AEA00000000005102BA01E90198021A02F80155
:060AFA000C020D0A0000D1
:00000001FF
