:100000000C9462000C94FB170C94D3170C948A0088
:100010000C948A000C948A000C948A000C946D1540
:100020000C948A000C948A000C948A000C948A0028
:100030000C948A000C948A000C948A000C948A0018
:100040000C9423150C948A000C948A000C948A005A
:100050000C948A000C948A000C948A000C948A00F8
:100060000C948A000C948A000000000024002700F1
:100070002A0000000000250028002B0004040404CE
:100080000404040402020202020203030303030342
:10009000010204081020408001020408102001021F
:1000A00004081020000000080002010000030407FB
:1000B00000000000000000000000000023002600F7
:1000C0002900151A11241FBECFEFD8E0DEBFCDBF27
:1000D00011E0A0E0B1E0E2E2FEE302C005900D9283
:1000E000AC33B107D9F722E0ACE3B1E001C01D9217
:1000F000AE37B207E1F710E0C2E6D0E004C02197C6
:10010000FE010E94AA1DC136D107C9F70E946718D7
:100110000C940F1F0C9400002F923F924F925F920D
:100120006F927F928F929F92AF92BF92CF92DF9207
:10013000EF92FF920F931F93CF93DF93CDB7DEB76C
:1001400027970FB6F894DEBF0FBECDBF8CE991E0C4
:1001500090935A01809359018091990190E0909376
:100160005C0180935B018091660290E090935E0158
:1001700080935D0180919501853009F00DC28091D9
:100180009E0190919F01885891098D35910598F4B1
:1001900080919901843049F48091A0019091A1014E
:1001A0008097479710F40C94380A80919901843411
:1001B00010F00C941D0A809199018A3108F456C000
:1001C00080919C0190919D01843F914080F4109218
:1001D0005801109257018FEF9FEFDC01809353017C
:1001E00090935401A0935501B09356015EC0809145
:1001F0009E0190919F0185974B97C0F5E2EAF1E04F
:1002000082E090E040E050E0BA018C010F5F1F4FA8
:100210002091990130E00217130774F49F012250D6
:100220003109D9012D913C912750310927303105F1
:1002300010F40C94720AC8010197959587959093D4
:100240005801809357010C972CF41092580110928A
:1002500057010CC0409353015093540160935501D2
:100260007093560184E090E00C94A10B8091990169
:100270008A3108F44CC080919C0190919D0180329C
:10028000934008F4A4CF80919E0190919F01C6975E
:10029000869710F40C94900A3AC0409353015093FF
:1002A000540160935501709356018BE090E00C94DB
:1002B000A10B8081918185974B9710F00C94A50A32
:1002C000440F551F661F771F41602E5F3F4F3496C6
:1002D000C9010196A0919901B0E08A179B0714F01B
:1002E0000C94A20ADF0112970D90BC91A02D1C97CF
:1002F0001B97F8F2019795958795909358018093F5
:1003000057010C9754F610925801109257018091A2
:100310009901823208F44EC080919E0190919F0114
:100320000697079708F046C0E2EAF1E082E090E025
:1003300040E050E0BA018C010F5F1F4F20919901FE
:1003400030E002171307E4F4DF0112972D913C917E
:1003500011972E5131092731310510F00C94B20A52
:10036000440F551F661F771F4160208131813496ED
:10037000235031092530310510F40296DCCFC80135
:1003800001979595879590935801809357014097D1
:100390002CF410925801109257010CC04093530155
:1003A0005093540160935501709356018CE090E096
:1003B0000C94A10B1C821B8281E090E09A838983BC
:1003C000809199018D3008F46CC049E753E0BE017B
:1003D0006D5F7F4FCE0101960E948113892B09F03A
:1003E00060C049E753E0BE016D5F7F4FCE010196CB
:1003F0000E948113019709F054C049E753E0BE0100
:100400006D5F7F4FCE0101960E948113892B09F009
:1004100048C0C12CD12C760100E010E080919901F8
:1004200090E029813A81281739075CF549E753E0C4
:10043000BE016D5F7F4FCE0101960E9481135C016A
:1004400049E753E0BE016D5F7F4FCE0101960E94E8
:100450008113E1E0AE16B10449F4892B11F5CC0CFF
:10046000DD1CEE1CFF1C6894C0F808C0AB28C9F462
:100470000197B9F4CC0CDD1CEE1CFF1C0F5F1F4F65
:10048000CDCF1093580100935701C0925301D092E1
:100490005401E0925501F092560181E090E00C94F5
:1004A000A10B1C821B8281E090E09A83898380915A
:1004B0005B0190915C01181619060CF05BC0E0918D
:1004C0005901F0915A0182E090E09A8389838281F8
:1004D000938189974E9708F04DC083E090E09A830E
:1004E0008983848195810B970A9708F043C04CEB70
:1004F00051E0BE016D5F7F4FCE0101960E948113D6
:10050000892BC1F54CEB51E0BE016D5F7F4FCE01F1
:1005100001960E948113019769F5C12CD12C7601B7
:1005200000E010E029813A8180915B0190915C01AB
:100530002817390714F00C94FC0A4CEB51E0BE016B
:100540006D5F7F4FCE0101960E9481134C010330F5
:10055000110511F00C94C10A4CEB51E0BE016D5F26
:100560007F4FCE0101960E9481138816990611F4DF
:100570000C94C10AE0915901F0915A018281938152
:10058000C697869710F40C940B0B0C94B50B82E075
:10059000809395011092990180914E018823C1F1B9
:1005A0008091530190915401A0915501B091560151
:1005B0008439FBE69F07A105B10551F1843F2BE08B
:1005C0009207A105B10521F1843A4BE59407A105F5
:1005D000B105F1F0843EEBE19E07A105B105C1F044
:1005E0008C3EF3E19F07A105B10591F08C3823E71C
:1005F0009207A105B10561F08C3A9345A105B105BB
:1006000039F082E0809395011092990110924E0189
:1006100080914E018823F1F0809180018823D1F0F0
:100620008091530190915401A0915501B0915601D0
:10063000843AEBE59E07A105B10529F0843E9B4174
:10064000A105B10539F482E08093950110929901DA
:1006500010924E0182E40E941F0F3B9800000000A0
:10066000000000000000000000000000000000008A
:10067000000000000000000000000000000000007A
:100680000000000088E0339B05C090916A019160F2
:1006900090936A0190916A01990F90936A0145982D
:1006A000000000000000000000000000000000004A
:1006B0000000000000000000000000000000459A5B
:1006C0000000000000008150F1F6449A0E941715C6
:1006D00060934A0170934B0180934C0190934D01BC
:1006E0000091460110914701209148013091490144
:1006F0006B017C01C01AD10AE20AF30A49EBC41665
:100700004BE0D406E104F10408F45AC060934601BA
:100710007093470180934801909349018091800133
:10072000811122C080916301909164018E529440A6
:10073000909368028093670211E010936F02109308
:100740006E0210936D0210936C0210936B02109363
:100750006A02109369020E9423181F921F931F922E
:100760001F921F921F9319C010926F0210926E0277
:1007700011E010936D0210936C0210936B021093B2
:100780006A02109369028BE191E00E9464111F924A
:100790001F921F921F921F921F921F93882483946F
:1007A000AA24A394CC24C394E12C01E020E040E0EF
:1007B00067E00E94370F0FB6F894DEBF0FBECDBFC3
:1007C00010914501123009F41DC130F4112359F084
:1007D000113009F454C0B3C2133009F4E5C1143028
:1007E00009F43BC2ACC20E94C90E6B017C0170933C
:1007F00044016093430180914101909142018C1525
:100800009D0509F49CC2D0924201C092410161E071
:1008100086E00E941E14C6010E94251310926F02EA
:1008200010926E0201E000936D0200936C0200933F
:100830006B0200936A02009369028FE191E00E94CB
:1008400064111F921F921F921F921F921F920F936B
:1008500088248394AA24A394CC24C394E12C20E07C
:1008600040E067E00E94370F0E9417156093460131
:1008700070934701809348019093490157C21092A9
:100880006F0210926E0210936D0210936C0210931F
:100890006B0210936A021093690283E291E00E9456
:1008A00064111F921F921F921F921F921F921F93FB
:1008B00088248394AA24A394CC24C394E12C01E03B
:1008C00020E040E067E00E94370F0E94C90E4B0114
:1008D0005C0170934401609343010FB6F894DEBF4E
:1008E0000FBECDBF809141019091420188169906BB
:1008F00009F425C2909242018092410161E086E0B4
:100900000E941E14809172019091730188159905BF
:1009100024F580917401909175019C012054310956
:100920002038334028F47C01B0E8EB0EF11C23C0E2
:10093000892B09F045C080917801909179018264FA
:1009400090936D0180936C010E94DE0E80E490E034
:10095000909375018093740134C0881699068CF5C4
:10096000809174019091750181349105B0F07C0102
:10097000E0E8EE1AF10880917801909179018260A7
:100980008E299F2990936D0180936C010E94DE0E49
:10099000F0927501E092740114C08034910581F4E5
:1009A0008091780190917901826090936D0180939C
:1009B0006C010E94DE0E109275011092740101C04C
:1009C0000000909273018092720180917001909169
:1009D0007101816090936D0180936C010E94DE0E25
:1009E00010926F0210926E0201E000936D0200936C
:1009F0006C0200936B0200936A020093690283E227
:100A000091E0C1C010926F0210926E0201E000935B
:100A10006D0200936C0200936B0200936A020093D4
:100A2000690287E291E00E9464111F921F921F9257
:100A30001F921F921F920F9388248394AA24A39439
:100A4000CC24C394E12C20E040E067E00E94370F03
:100A50000E94C90E4B015C017093440160934301F5
:100A60000FB6F894DEBF0FBECDBF809141019091CB
:100A700042018816990609F462C19092420180925F
:100A8000410161E086E00E941E1480917601909100
:100A900077018815990524F5809178019091790165
:100AA0009C01245031092833310528F47C01B8E039
:100AB000EB0EF11C23C0892B09F044C08091740116
:100AC00090917501866090936D0180936C010E94F6
:100AD000DE0E84E090E0909379018093780133C03A
:100AE0008816990684F58091780190917901853076
:100AF0009105B0F07C01E8E0EE1AF10880917401F4
:100B00009091750182608E299F2990936D01809349
:100B10006C010E94DE0EF0927901E092780113C020
:100B2000049781F480917401909175018260909393
:100B30006D0180936C010E94DE0E1092790110927B
:100B4000780101C000009092770180927601809137
:100B5000700190917101816090936D0180936C019F
:100B60000E94DE0E10926F0210926E0201E000935E
:100B70006D0200936C0200936B0200936A02009373
:100B8000690287E291E00E9464111F921F921F92F6
:100B90001F921F921F920F9388248394AA24A394D8
:100BA000CC24C394E12CBDC010926F0210926E024F
:100BB000FF24F394F0926D02F0926C02F0926B02BB
:100BC000F0926A02F09269028BE291E00E94641155
:100BD0001F921F921F921F921F921F92FF928824B2
:100BE0008394AA24A394CC24C394E12C01E020E0B4
:100BF00040E067E00E94370F0E94C90E4B015C0184
:100C000070934401609343010FB6F894DEBF0FBEAA
:100C1000CDBF80914101909142018815990509F459
:100C20008EC0909242018092410161E086E00E9474
:100C30001E14C4010E94ED1210926F0210926E02F7
:100C4000F0926D02F0926C02F0926B02F0926A02E6
:100C5000F09269028BE291E057C010926F021092FD
:100C60006E02FF24F394F0926D02F0926C02F09207
:100C70006B02F0926A02F09269028BE191E00E94AD
:100C800064111F921F921F921F921F921F92FF9238
:100C900088248394AA24A394CC24C394E12C01E057
:100CA00020E040E067E00E94370F0E94C90E4B0130
:100CB0005C0170934401609343010FB6F894DEBF6A
:100CC0000FBECDBF809141019091420188159905D9
:100CD000B1F1909242018092410161E086E00E9470
:100CE0001E14C4010E94AE1210926F0210926E0286
:100CF000F0926D02F0926C02F0926B02F0926A0236
:100D0000F09269028BE191E00E9464111F921F92A0
:100D10001F921F921F921F92FF9288248394AA24ED
:100D2000A39420E040E067E00E94370F60E086E097
:100D30000E941E140FB6F894DEBF0FBECDBF809187
:100D40006A01882309F479C1803249F4143020F40F
:100D50001F5F109345016FC1109245016CC188302F
:100D600059F480918001811168C16091620180E035
:100D700090E00E94F11A5FC1843091F4809180016B
:100D800081115BC100916301109164010D35B6E2E0
:100D90001B0718F00A50110914C08EE59EE22CC002
:100DA000823009F05DC080918001811146C10091BF
:100DB0006301109164010E35FEE21F07D8F4065F4F
:100DC0001F4F1093640100936301812F0E94A710AD
:100DD000482F802F4F830E94A710682F21E44F8156
:100DE00084E10E94CE1028E248EA67E584E90E9487
:100DF000CE1006C08CE596E2909364018093630167
:100E000080916301909164018E52944090936802A6
:100E10008093670211E010936F0210926E0210939C
:100E20006D0210936C0210936B0210936A02109380
:100E300069020E9423181F921F931F921F921F92F4
:100E40001F921F9388248394AA24A394CC24C39430
:100E5000E12C01E020E040E067E00E94370F67C02E
:100E6000803101F5809180018111E7C0809162019C
:100E700090916101891710F48F5F01C081E0809328
:100E8000620110916201110F609164018FEF810F77
:100E900090E00E94F11A60916301812F90E00E941E
:100EA000F11A14C0803809F048C080918001811186
:100EB000C4C08091620190916101891710F48F5F25
:100EC00001C081E0809362010E941511809163014D
:100ED000909164018E5294409093680280936702CF
:100EE00011E010936F0210936E0210936D02109335
:100EF0006C0210936B0210936A02109369020E94B5
:100F000023181F921F931F921F921F921F931F93CC
:100F100088248394AA24A394CC24C394E12C01E0D4
:100F200020E040E067E00E94370F0E94C4140FB633
:100F3000F894DEBF0FBECDBF80C0803409F07DC005
:100F400082E0809395011092990110924E01809158
:100F500040018823C1F1109240010E941511809137
:100F60006301909164018E52944090936802809343
:100F7000670211E010936F0210936E0210936D02DE
:100F800010936C0210936B0210936A021093690223
:100F90000E9423181F921F931F921F921F921F934C
:100FA0001F9388248394AA24A394CC24C394E12C73
:100FB00001E020E040E067E00E94370F60E086E05B
:100FC0000E941E1429C061E086E00E941E1481E088
:100FD0008093400110926F0210926E0280936D0216
:100FE00080936C0210926B0210926A021092690256
:100FF0001F921F921F921F921F921F928F938824FD
:101000008394A12CC12CE12C00E020E040E065E0BD
:101010008FE291E00E94370F0FB6F894DEBF0FBE4B
:10102000CDBF0E94171560934601709347018093CE
:101030004801909349010E94C41480914E01882375
:1010400009F48EC68091530190915401A0915501ED
:10105000B0915601843AEBE59E07A105B10599F4DC
:101060008091800181117CC682E08093950110926D
:10107000990110924E01809162019091610189174E
:10108000D0F48F5F19C0843EEBE19E07A105B10546
:1010900009F046C080918001811162C682E0809390
:1010A00095011092990110924E0180916201823057
:1010B00010F0815001C081E0809362010E941511FF
:1010C00080916301909164018E52944090936802E4
:1010D0008093670211E010936F0210936E021093D9
:1010E0006D0210936C0210936B0210936A021093BE
:1010F00069020E9423181F921F931F921F921F9232
:101100001F931F9388248394AA24A394CC24C3946C
:10111000E12C01E020E040E067E00E94370F01C1D0
:101120008439EBE69E07A105B10571F482E0809356
:1011300095011092990110924E0100913E0110917B
:101140003F010F5F1F4F14C0843FEBE09E07A105D6
:10115000B10509F040C082E0809395011092990199
:1011600010924E0100913E0110913F010150110972
:1011700010933F0100933E0161E086E00E941E143F
:10118000C8010E94251310926F0210926E0211E0A6
:1011900010936D0210936C0210936B0210936A020D
:1011A000109369028FE191E00E9464111F921F92D7
:1011B0001F921F921F921F921F9388248394AA2428
:1011C000A394CC24C394E12C01E020E040E067E04C
:1011D0000E94370FA2C08C3AE3E59E07A105B10536
:1011E000D9F582E0809395011092990110924E01F9
:1011F00020913D0180913E0190913F01211109C054
:10120000019690933F0180933E0181E080933D01E0
:1012100007C0019790933F0180933E0110923D01DA
:1012200061E086E00E941E1480913E0190913F0192
:101230000E94ED1210926F0210926E0211E0109354
:101240006D0210936C0210936B0210936A0210935C
:1012500069028BE291E041C08C38E3E79E07A1056B
:10126000B10509F066C082E0809395011092990162
:1012700010924E0120913C0180913E0190913F01DE
:10128000211109C0019690933F0180933E0181E0B6
:1012900080933C0107C0019790933F0180933E01EA
:1012A00010923C0161E086E00E941E1480913E0194
:1012B00090913F010E94AE1210926F0210926E0246
:1012C00011E010936D0210936C0210936B02109357
:1012D0006A02109369028BE191E00E9464111F92EF
:1012E0001F921F921F921F921F921F938824839414
:1012F000AA24A394CC24C394E12C01E020E040E094
:1013000067E00E94370F0E941715609346017093A3
:101310004701809348019093490160E086E00E9474
:101320001E140E94C4140FB6F894DEBF0FBECDBFCA
:1013300017C58C3E9341A105B10509F011C582E0A6
:10134000809395011092990110924E018091400175
:101350008823C1F1109240010E9415118091630110
:10136000909164018E52944090936802809367023A
:1013700011E010936F0210936E0210936D021093A0
:101380006C0210936B0210936A02109369020E9420
:1013900023181F921F931F921F921F921F931F9338
:1013A00088248394AA24A394CC24C394E12C01E040
:1013B00020E040E067E00E94370F60E086E00E9496
:1013C0001E1429C061E086E00E941E1481E0809313
:1013D000400110926F0210926E0280936D02809312
:1013E0006C0210926B0210926A02109269021F92B4
:1013F0001F921F921F921F921F928F938824839493
:10140000A12CC12CE12C00E020E040E065E08FE25F
:1014100091E00E94370F0FB6F894DEBF0FBECDBF2C
:101420000E9417156093460170934701809348010D
:10143000909349010E94C41493C48091A00190919B
:10144000A101825491098E9710F00C94DB0020E0EA
:1014500030E080E090E0DC01F901EE55FE4F408184
:101460005181495051094930510598F00C94DB00E5
:101470008091A2019091A3010997099710F00C9413
:10148000D50010925801109257018FEF9FEFDC01A9
:1014900061C1F901EC55FE4F40815181475151091D
:1014A0004231510588F4880F991FAA1FBB1F816024
:1014B0002C5F3F4F2038310579F620E230E0309341
:1014C00058012093570146C140815181465051092E
:1014D0004730510510F00C94DB00880F991FAA1FAC
:1014E000BB1FE6CF20813181235131092F303105D7
:1014F00048F4440F551F661F771F416002963496CB
:101500000C940501208131812A503109293031059F
:1015100010F00C943601440F551F661F771FEECF55
:101520008091A0019091A101C697869710F00C942C
:101530008701E4EAF1E023E030E040E050E0BA0166
:101540000C946801C9010C947A01808191810C97F7
:101550000A9710F00C948701440F551F661F771FE0
:101560000C9465012D913C912C5031092B303105A3
:1015700010F00C94DA01440F551F661F771F0C946E
:10158000B5014CEB51E0BE016D5F7F4FCE0101967E
:101590000E9481135C010330110571F44CEB51E0A2
:1015A000BE016D5F7F4FCE0101960E948113A81688
:1015B000B90611F00C94BA028114910461F4AA9452
:1015C000AB2811F00C94BA02CC0CDD1CEE1CFF1CF5
:1015D0006894C0F80DC08A94892811F00C94BA025E
:1015E000AB2811F00C94BA02CC0CDD1CEE1CFF1CD5
:1015F0000F5F1F4F0C9492021093580100935701F4
:10160000C0925301D0925401E0925501F0925601DC
:1016100082E090E096C0848195814B97459708F0D1
:10162000A4C0DF0116967F0126ECE20EF11C20E03B
:1016300030E040E050E060E070E080E090E00D914C
:101640001C911197095011090830110508F08DC03F
:1016500012960D911C911397015111090D3011052E
:1016600020F501E00E94731D21601496AE15BF05A0
:1016700031F7209353013093540140935501509317
:10168000560100E20E948E1D2093510130935201B9
:1016900085E090E09093500180934F0180E390E0CB
:1016A000909358018093570150C012960D911C9150
:1016B0001397045011090530110508F056C001E0D8
:1016C0000E94731DD2CF980122503109D9012D916A
:1016D0003C91295031092830310508F0F4C0BC0193
:1016E0006F5F7F4FD8012D913C91275031092730F2
:1016F000310508F0E7C2440F551F416002960C5FA8
:101700001F4F2091990130E024503109821793072F
:10171000D4F201979595879590935801809357013E
:101720008A970CF4D0C0052E000C660B770B409303
:10173000530150935401609355017093560189E011
:1017400090E09093500180934F0181E080934E018F
:101750000C94CC028093530190935401A0935501B3
:10176000B093560183E090E0ECCF809199018933EA
:1017700070F182819381895791098335910508F42D
:1017800042C125C0D90112966D917C911397665183
:1017900071096131710508F062C1D701C601880F76
:1017A000991FAA1FBB1F6C017D016894C0F84E5F92
:1017B0005F4F2C5F3F4F4B33510509F433C1D901C3
:1017C0006D917C916A50710969307105D8F28091F0
:1017D0009901823231F4828193810A97099708F442
:1017E0004EC1828193818957910983359105D0F447
:1017F000809199018132B0F084819581CA9789974F
:1018000088F49F012A5F3F4FC12CD12C760143E021
:1018100050E0D9016D917C916A5071096930710570
:1018200008F44CC1828193818C549109C59778F456
:1018300080919901843031F4848195818097479714
:1018400008F49BC180919901843408F07DC1809196
:101850009901863460F1828193810C970B9708F48B
:10186000DAC125C0D90112966D917C9113976E5102
:1018700071096731710508F006C2D701C601880FEA
:10188000991FAA1FBB1F6C017D016894C0F84E5FB1
:101890005F4F2C5F3F4F4534510509F4D7C1D90143
:1018A0006D917C916C5071096B307105D8F280910B
:1018B0009901883540F082819381855891098B3553
:1018C000910508F4F0C1809199018032E1F48281A0
:1018D000938106970697B8F48481958109970997B3
:1018E00090F49F012A5F3F4FBF01625C7F4FC12C84
:1018F000D12C7601D9014D915C9146505109463069
:10190000510508F4ECC1C0905B01D0905C01DE820F
:10191000CD82C601069714F40C94C7028F010A5FAA
:101920001F4F73E0272E312CE5ECCE2EEDE9DE2E95
:10193000ECE1EE2EE1E8FE2ED8016D917C91F801EC
:101940003497A080B18080E090E00E94191C2B01A8
:101950003C01B50180E090E00E94191C4B015C0144
:101960002DEC3CEC4CE45FE30E94CB1C9B01AC01F2
:10197000C301B2010E946C1B87FD17C02DEC3CEC2B
:101980004CE45FE3C301B2010E94CB1C9B01AC019C
:10199000C501B4010E946C1BE82F880FFF0BEE27D6
:1019A000FF0FEE1FFF27319602C0E0E0F0E0A70135
:1019B000960163E971E080E091E00E94381D6F01BB
:1019C000FF0FEE08FF08C626D726E826F926BFEF48
:1019D0002B1A3B0A0E5F1F4FED81FE812E163F062C
:1019E00009F0AACFC0925301D0925401E092550160
:1019F000F092560180E290E0909358018093570155
:101A00008FEF9FEF9ECE84819581CA97899708F0CA
:101A1000DECE9F012A5F3F4FC12CD12C760143E0DF
:101A200050E0CDCE9F012A583F4FD9012D913C91D6
:101A30002A5031092930310508F0C9CE2CE130E0B7
:101A40003093580120935701C0925301D092540112
:101A5000E0925501F09256018AE090E072CED901F1
:101A600012966D917C9113976650710967307105DC
:101A700008F0ADCECC0CDD1CEE1CFF1C98CE2091E6
:101A80009901CF01820F911D820F911DDC011297E8
:101A90008D919C910A97099708F0A3CE1092580156
:101AA000109257018FEF9FEFDC01809353019093C9
:101AB0005401A0935501B09356014CC1D90112961F
:101AC0006D917C911397665171096131710588F1AF
:101AD00012966D917C91139766507109673071056C
:101AE00008F0A0CECC0CDD1CEE1CFF1C4E5F5F4F3F
:101AF0002C5F3F4F4332510509F08BCE9F012A5B8B
:101B00003F4FD9012D913C912A503109293031059F
:101B100008F088CE20E130E030935801209357013F
:101B2000C0925301D0925401E0925501F0925601B7
:101B300011C1D701C601880F991FAA1FBB1F6C01D5
:101B40007D016894C0F8D2CF848195818954910930
:101B5000C39708F07CCE9F012A5F3F4FBF016A57B1
:101B60007F4FC12CD12C7601D9014D915C91495008
:101B7000510949305105B8F06ACE8681978109979D
:101B8000099708F05FCE10925801109257018FEF1D
:101B90009FEFDC018093530190935401A093550172
:101BA000B0935601DAC0D90112964D915C9113970A
:101BB0004651510941315105F0F4D701C601880F52
:101BC000991FAA1FBB1F6C017D016894C0F82C5F90
:101BD0003F4F2617370741F620E230E03093580197
:101BE00020935701C0925301D0925401E0925501C5
:101BF000F0925601B2C0D90112964D915C911397A3
:101C0000465051094730510508F021CECC0CDD1C5F
:101C1000EE1CFF1CDCCF848195810997099708F0A1
:101C200046CE868197818C974F9708F040CE80856D
:101C3000918589974D9708F03ACE9F01265F3F4FD7
:101C4000C12CD12C760145E050E029CE9F012657CA
:101C50003F4FD9012D913C912C5031092B3031054A
:101C600008F025CE20E230E0309358012093570150
:101C7000C0925301D0925401E0925501F092560166
:101C800088E090E05ECDD90112966D917C9113971A
:101C9000695071096930710508F009CECC0CDD1C62
:101CA000EE1CFF1CF4CD84819581825491098E979E
:101CB00008F009CE8F01045C1F4F8DE190E040E0F9
:101CC00050E01FCDD8012D913C912851310922318E
:101CD000310510F0CB011DCD440F551F0FCDD9019B
:101CE00012964D915C911397495151094331510519
:101CF00008F5D701C601880F991FAA1FBB1F6C01E9
:101D00007D016894C0F82C5F3F4F2617370709F014
:101D1000F1CD2EE030E03093580120935701C0926E
:101D20005301D0925401E0925501F09256018FE098
:101D300090E007CDD90112964D915C9113974950CF
:101D400051094930510508F0DECDCC0CDD1CEE1CEC
:101D5000FF1CD9CF86E090E0F4CC87E090E0F1CC96
:101D600027960FB6F894DEBF0FBECDBFDF91CF919F
:101D70001F910F91FF90EF90DF90CF90BF90AF90A9
:101D80009F908F907F906F905F904F903F902F909B
:101D9000089580918E01823030F4F89483E891E0C8
:101DA0000E94911701C0F89460918A0170918B0193
:101DB00080918C0190918D017894089520E030E01D
:101DC000AC01022E02C0440F551F0A94E2F751FFE6
:101DD00002C05D9A01C05D985C9A2930310509F412
:101DE0005D9A5C982F5F3F4F2A30310549F75D9827
:101DF00008953B9A20E030E090E0AC01022E02C052
:101E0000559547950A94E2F740FF02C0439A01C0F6
:101E1000439845980000000000000000000000000A
:101E200000000000000000000000000000000000B2
:101E3000459A2F5F3F4F28303105F9F60895449AAF
:101E40000000000000000000000000000000000092
:101E50000000000000000000000000000000000082
:101E6000000000000000000044980C94F90E2F922E
:101E70003F924F925F926F927F928F929F92AF921A
:101E8000BF92CF92DF92EF92FF920F931F93CF9367
:101E9000DF93CDB7DEB72E970FB6F894DEBF0FBE37
:101EA000CDBF3C01B62E942E322E2CA0DDA01A827E
:101EB00019821C821B821E821D8218861F821A862E
:101EC00019861C861B861E861D86FC01962F20E027
:101ED0002B15C9F081918E3231F4233069F4915081
:101EE00081E088A70EC08A3361F4233009F022C153
:101EF000915081E08EA305C0263019F4915081E005
:101F000089A72F5FE5CF983060F080E40E941F0F13
:101F100080EC0E941F0F8E85992009F445C08160D6
:101F200043C092E0690E711CFE0131962F0110E052
:101F3000F12CFB1458F5F301329780818E3211F0A9
:101F40008A3361F4F301123009F0319780810E94E5
:101F50009416F201918380831F5F1BC0113081F4BE
:101F6000F301319780818E3211F08A3349F4F30105
:101F700080810E949416F2019183808312E009C04F
:101F80000E949416F2019183808303C0F2011182B2
:101F90001082F394FFEF6F1A7F0A82E0480E511C03
:101FA00097E0F912C6CFB1CF0E94F90E81EC0E94E2
:101FB0001F0F8D850E94F90E83EC0E941F0F8C85E8
:101FC000311081600E94F90E84EC0E941F0F8B85F6
:101FD0000E94F90E86EC0E941F0F8A85EFA1E11185
:101FE00081600E94F90E87EC0E941F0FF9A5898578
:101FF000F11180680E94F90E89EC0E941F0F8885FC
:10200000011181600E94F90E8AEC0E941F0F8F81DE
:10201000E11080680E94F90E8CEC0E941F0F8E81E7
:102020009EA1911181600E94F90E8DEC0E941F0FFC
:10203000E8A58D81E11180680E94F90E8FEC0E9465
:102040001F0F1B818C81CC2049F081600E94F90E0A
:1020500080ED0E941F0F812F806806C00E94F90E3C
:1020600080ED0E941F0F812F0E94F90E82ED0E94C9
:102070001F0F19818A810E94F90E83ED0E941F0FA4
:10208000812F0E94F90E85EDAA2021F00E941F0FDA
:1020900080E203C00E941F0F80E00E94F90E86EDCF
:1020A000882021F00E941F0F84E003C00E941F0FB0
:1020B00080E00E94F90E88ED0E941F0F8FEF0E94B2
:1020C000F90E89ED0E941F0F8BA1882371F0222049
:1020D00031F0DD2011F08FE50BC087E509C0DD2070
:1020E00011F08FE405C087E403C0222051F187E19D
:1020F0000E94F90E88E00E941F0F8FE80E941F0FB8
:10210000449A2E960FB6F894DEBF0FBECDBFDF9176
:10211000CF911F910F91FF90EF90DF90CF90BF90E4
:10212000AF909F908F907F906F905F904F903F9077
:102130002F900895263009F0E4CE915081E08FA3CE
:10214000E0CEDD2011F08FE0D3CF87E0D1CFCF9369
:10215000DF9320E030E090E0482F50E067E070E04F
:10216000E1E0F0E0DA01022E02C0B595A7950A94ED
:10217000E2F7A0FF0AC0DB01A21BB30BEF0102C014
:10218000CC0FDD1FAA95E2F79C2B2F5F3F4F283025
:10219000310541F7892FDF91CF910895CF93DF93D8
:1021A00000D01F92CDB7DEB72A98000000000000D3
:1021B000000000000000000000000000000000001F
:1021C000000000002B834A8369830E948A17000065
:1021D00000000000000000000000000000000000FF
:1021E00000000000000000002A9A6981862F0E94EA
:1021F0008A174A81842F0E948A172B81822F0E947E
:102200008A172A980000000000000000000000006B
:1022100000000000000000000000000000000F901F
:102220000F900F90DF91CF910895EF92FF921F933F
:10223000CF93DF931F92CDB7DEB710916201110FDC
:1022400010926401109263018FEF810F90E00E9461
:10225000E91AE82EF12CFE2CEE24F0926401E092B3
:102260006301812F90E00E94E91AE82AC7018C558A
:1022700096428330984028F4F0926401E092630122
:1022800006C08CE596E290936401809363011091FF
:102290006301809164010E94A710482F812F498318
:1022A0000E94A710682F21E4498184E10E94CE108A
:1022B00028E248EA67E584E90F90DF91CF911F910A
:1022C000FF90EF900C94CE10CF93FC01A091810170
:1022D000B091820180818C93A0918101B0918201A3
:1022E000818111968C93A0918101B09182018281AC
:1022F00012968C938081863509F07BC080917001A5
:10230000909171010097B9F4E0918101F0918201FF
:102310001382E0918101F09182018DE48483E09148
:102320008101F091820181E48583E0918101F09146
:10233000820188E51AC0883F23E09207C1F4E0914A
:102340008101F09182011382E0918101F09182017B
:102350008DE48483E0918101F091820189E4858399
:10236000E0918101F09182018EE48683F1C064E501
:1023700070E00E94541D2CE0261B43E050E033E047
:10238000A5E2B3E2C4E2211108C0E0918101F0911D
:102390008201E40FF51F108226C0233070F4809173
:1023A000810190918201FC01E40FF51F223011F4AC
:1023B000C08301C0B08320E016C0233031F0822FEB
:1023C000632F0E94481D911106C0822F632F0E9427
:1023D000481D911108C0E0918101F0918201E40F44
:1023E000F51FA08323504F5F5F4F4730510559F6CB
:1023F000AFC0E0918101F0918201823419F58091A2
:10240000740190917501880F892F881F990B919500
:10241000882331F1813041F1823051F1833061F113
:10242000843099F18530D1F1863009F443C087308A
:1024300009F048C081E38383E0918101F09182013A
:1024400084E33FC0843509F049C0809178019091C0
:10245000790123E0969587952A95E1F7811102C0CD
:1024600013821EC0813011F4138226C0823011F411
:102470001382E2CF833039F41382E0918101F0912D
:10248000820186E31EC0843039F41382E091810119
:10249000F091820188E315C0853041F481E38383A4
:1024A000E0918101F091820180E30BC0863011F050
:1024B000873041F481E38383E0918101F0918201CF
:1024C00082E38483E0918101F091820184E6858337
:1024D000E0918101F091820182E447CF8335C1F41C
:1024E00080916B011382E0918101F0918201882338
:1024F00011F08FE419C08FE48483E0918101F091A1
:10250000820186E48583E0918101F09182012DCFE3
:102510008134F1F4809180011382E0918101F09186
:102520008201882341F089E48483E0918101F09164
:1025300082018EE407C086E48483E0918101F091FA
:1025400082018DE48583E0918101F0918201168200
:102550008091810190918201CF910895CF93DF9373
:10256000EC0180917C0190917D018C179D0724F4F2
:1025700081E08093800105C0C817D90714F4109238
:10258000800180918001882329F010927F011092B0
:102590007E0106C080E091E090937F0180937E01F0
:1025A00080917E0190917F0190936D0180936C01E9
:1025B0000E94DE0E2091700130917101C90181608D
:1025C00090936D0180936C010E94DE0ED0937D018B
:1025D000C0937C01DF91CF910895CF93DF93EC01FD
:1025E00080917A0190917B018C179D0724F481E002
:1025F00080936B0105C0C817D90714F410926B01C2
:1026000080916B0120917E0130917F0181112062C8
:1026100030936D0120936C0180916C0190916D015C
:102620000E94DE0E2091700130917101C90181601C
:1026300090936D0180936C010E94DE0ED0937B011C
:10264000C0937A01DF91CF9108950F931F93CF9399
:10265000DF938C0180916E0190916F01801791073B
:10266000D4F420917001309171012930310518F0B6
:10267000E90160971EC028303105C9F581E090E07E
:1026800090936D0180936C010E94DE0E1092710197
:10269000109270012DC00817190754F52091700190
:1026A00030917101C9010897803F934078F4E901A6
:1026B0006096CE01816090936D0180936C010E94C1
:1026C000DE0ED0937101C093700112C0232B79F4F8
:1026D00089E090E090936D0180936C010E94DE0E82
:1026E00088E090E0909371018093700101C0000038
:1026F00010936F0100936E01DF91CF911F910F91A5
:1027000008958F929F92AF92BF92CF92DF92EF92F5
:10271000FF920F931F93CF93DF93FC01C081D18170
:1027200020915B0130915C01C217D3070CF04BC0C4
:102730009E01220F331FE0915901F0915A01E20FDF
:10274000F31F80809180C170DD27F1E0CF272097B3
:1027500019F404E610E002C00CE91FEF7A015B01F6
:102760006C01040F151FB801C4010E945016892B7B
:1027700099F40E0D1F1DB801C4010E945016892B3B
:1027800071F4B8016E0D7F1DC4010E945016892B93
:10279000E9F023E030E005C021E030E002C022E0B3
:1027A00030E0F501808191810196821793073CF01A
:1027B000F50111821082F601808191810196918349
:1027C0008083CE0105C081E090E002C08FEF9FEFD3
:1027D000DF91CF911F910F91FF90EF90DF90CF90FD
:1027E000BF90AF909F908F900895833081F028F430
:1027F000813099F08230A1F008958730A9F08830B7
:10280000B9F08430D1F4809180008F7D03C0809135
:1028100080008F7780938000089584B58F7702C001
:1028200084B58F7D84BD08958091B0008F7703C0FB
:102830008091B0008F7D8093B00008951F93CF9357
:10284000DF93282F30E0F901EC55FF4F8491F90117
:10285000E057FF4FD491F901E458FF4FC491CC23C6
:10286000C9F0162F81110E94F513EC2FF0E0EE0F46
:10287000FF1FEE58FF4FA591B4918FB7F894111137
:1028800005C09C91ED2FE095E92302C0EC91ED2B62
:10289000EC938FBFDF91CF911F910895CF93DF937A
:1028A00090E0FC01E057FF4F2491FC01E458FF4FFA
:1028B0008491882361F190E0880F991FFC01E85909
:1028C000FF4FC591D491FC01EE58FF4FA591B491F3
:1028D000611109C09FB7F89488812095822388836D
:1028E000EC912E230BC0623061F49FB7F8943881CD
:1028F000822F809583238883EC912E2B2C939FBF6E
:1029000006C08FB7F894E8812E2B28838FBFDF9104
:10291000CF9108958F929F92AF92BF92CF92DF9204
:10292000EF92FF926B017C010E94F2144B015C015B
:10293000C114D104E104F104F1F00E94F214DC01AD
:10294000CB0188199909AA09BB09883E9340A105C2
:10295000B10570F321E0C21AD108E108F10888EE50
:10296000880E83E0981EA11CB11CC114D104E1049F
:10297000F10419F7DDCFFF90EF90DF90CF90BF907B
:10298000AF909F908F9008951F93CF93DF93C6E0F1
:10299000D1E088ED0E941F0F188189812296816005
:1029A0000E94F90E89ED0E941F0F812F80650E9401
:1029B000F90E62E370E080E090E00E948A1481E00A
:1029C000CA31D80731F788ED0E941F0F8FEF0E94A0
:1029D000F90E89ED0E941F0F87E5DF91CF911F91BE
:1029E0000C94F90E3FB7F89480917602909177029B
:1029F000A0917802B091790226B5A89B05C02F3F1F
:102A000019F00196A11DB11D3FBFBA2FA92F982F14
:102A10008827820F911DA11DB11DBC01CD0142E08F
:102A2000660F771F881F991F4A95D1F708952FB712
:102A3000F894609172027091730280917402909187
:102A400075022FBF08951F920F920FB60F92112497
:102A50002F933F938F939F93AF93BF938091720275
:102A600090917302A0917402B0917502309171023D
:102A700023E0230F2D3720F40196A11DB11D05C0C1
:102A800026E8230F0296A11DB11D209371028093A9
:102A9000720290937302A0937402B09375028091B6
:102AA000760290917702A0917802B0917902019616
:102AB000A11DB11D8093760290937702A0937802B6
:102AC000B0937902BF91AF919F918F913F912F91D8
:102AD0000F900FBE0F901F9018951F920F920FB678
:102AE0000F9211242F933F934F935F936F937F9394
:102AF0008F939F93AF93BF93CF93DF93EF93FF9306
:102B00002091960130E0F901EC55FF4F8491F901D5
:102B1000E057FF4FD491F901E458FF4FC491CC2303
:102B2000A1F081110E94F513EC2FF0E0EE0FFF1FD2
:102B3000E854FF4FA591B491EC91ED2331E020E0F2
:102B400009F430E0832F922F02C080E090E02091C2
:102B50009A0130919B012F5F3F4F30939B0120934F
:102B60009A0120919901253618F026E020939501CD
:102B7000209195012430D9F128F4223069F02330D6
:102B8000D9F060C0253009F453C0263009F05AC08E
:102B900021E02093660253C0009709F053C02091B2
:102BA0009A0130919B012436310508F443C01092FC
:102BB0006602109299011DC08130910509F042C052
:102BC000E091990121E02E0F20939901F0E02091EE
:102BD0009A0130919B01EE0FFF1FEB56FE4F30879D
:102BE000278310929B0110929A0124E029C000973C
:102BF000B9F4E091990121E02E0F20939901F0E0C2
:102C000020919A0130919B01EE0FFF1FEB56FE4F72
:102C10003087278310929B0110929A0123E010C005
:102C200020919A0130919B012536310558F007C05B
:102C3000009741F410929B0110929A0103C025E085
:102C400020939501209198012223B9F0892B51F40A
:102C500080919701882321F08091970161E009C05C
:102C60002D9A0BC080919701882331F080919701B4
:102C700060E00E941E1401C02D98FF91EF91DF913A
:102C8000CF91BF91AF919F918F917F916F915F9104
:102C90004F913F912F910F900FBE0F901F9018955D
:102CA000CF92DF92EF92FF92CF93DF93EC01072E4A
:102CB000000C880B990B0E941B1C6B017C0120E00F
:102CC00030E040E45FE30E94CB1C20E030E048E4C9
:102CD00052E40E94711B0E94E31BC617D707D4F071
:102CE00020E030E040EA5FE3C701B6010E94CB1C60
:102CF00020E030E048E452E40E94711B20E030E024
:102D000040E85FE30E94001B0E94E31B21E06C1778
:102D10007D070CF420E0822F90E0DF91CF91FF90AF
:102D2000EF90DF90CF900895382F282F2F7D83329A
:102D300009F4D1C0843251F0853279F08D32A1F09E
:102D400080E090E0303309F4C9C003C088E290E528
:102D50002BC0313309F4C5C003C08AE294E524C016
:102D6000323309F4C1C003C081E090E81DC03333A1
:102D700009F4BDC0343309F4BDC0353309F4BDC016
:102D8000363309F4BDC0373309F4BDC0383339F0E8
:102D9000393341F0313459F0313649F005C083E61A
:102DA00096EC02C083E496EC223419F405C083E269
:102DB00096EC233419F4AAC085E69AE4343439F049
:102DC000343641F0353459F0353631F408C080E3FB
:102DD00090E602C083E694E8263419F405C081E643
:102DE00092E4273421F406C081E292E40895283465
:102DF00021F406C082E692EC0895293421F406C03D
:102E000083E294EC08952A3421F406C088E492E128
:102E100008952B3421F406C082E494E008952C3404
:102E200021F406C085E298E408952D3421F406C00B
:102E300080E690E408952E3421F406C082E29CE6F8
:102E400008952F3421F406C086E294E608952035D3
:102E500021F406C082E696E40895213521F406C0E7
:102E600081E296EC0895223521F406C086E696E4C8
:102E70000895233521F406C085E29AE408952435A7
:102E800021F406C085E492E40895253521F406C0B6
:102E900088E092E10895263521F406C082E694E4A4
:102EA0000895273521F406C080E398E40895283575
:102EB00021F406C086E394E40895293521F408C07E
:102EC00084E198E208952A3521F580E59AE0089595
:102ED00088E098E2089580E290E466CF82E79EE47D
:102EE00063CF82E094E060CF81E696E85DCF82E434
:102EF00096E85ACF83E094EC57CF83E492EC54CF1A
:102F000083E692EC51CF82E096E04ECF80E692E4E9
:102F100059CF08958EBD00000DB407FEFDCF8EB5CC
:102F20000895DC01ED91FD918081ED91FD919081FD
:102F3000ED91FD916C9163708E2309F064609F2385
:102F400009F06860EEEAF7E1E60FF11D6595659519
:102F50006D936D917D918D919D91099423C01AC0BF
:102F600012C016C010C01EC009C014C013C006C0D5
:102F700019C009C00DC007C00DC014C06250704018
:102F8000804090400BC0615070408040904006C02F
:102F90006E5F01C06F5F7F4F8F4F9F4F9E938E93E9
:102FA0007E936E9308951F920F920FB60F92112485
:102FB0002F933F934F935F936F937F938F939F9341
:102FC000AF93BF93EF93FF93809191019091920102
:102FD0000E949117FF91EF91BF91AF919F918F91B7
:102FE0007F916F915F914F913F912F910F900FBE05
:102FF0000F901F9018951F920F920FB60F921124E9
:103000002F933F934F935F936F937F938F939F93F0
:10301000AF93BF93EF93FF9380918F0190919001B5
:103020000E949117FF91EF91BF91AF919F918F9166
:103030007F916F915F914F913F912F910F900FBEB4
:103040000F901F9018950F931F93CF93DF93E091EC
:103050009301F0919401108220E030E0C4E0D0E0D0
:103060000AE010E040919301509194012530310520
:1030700070F4009761F0FE01E21BF30BE40FF51F03
:10308000B8010E94541D805D8083CB0104C0FA0109
:10309000E20FF31F10822F5F3F4F2730310511F7EA
:1030A000E0919301F09194018081803309F41082C2
:1030B0008091930190919401FC012481211102C01F
:1030C00020E32483DF91CF911F910F910895CF9337
:1030D000DF931F92CDB7DEB7789484B5826084BD4C
:1030E00084B5816084BD85B5826085BD85B581600C
:1030F00085BD80916E00816080936E00109281008A
:103100008091810082608093810080918100816044
:103110008093810080918000816080938000809105
:10312000B10084608093B1008091B0008160809391
:10313000B00080917A00846080937A0080917A0058
:10314000826080937A0080917A00816080937A0017
:1031500080917A00806880937A001092C10061E0CB
:1031600086E00E944E1461E086E00E941E1468EC26
:1031700070E080E090E00E948A1480E40E941F0FBB
:1031800080EC0E941F0F1AE180E00E94F90E11509E
:10319000D9F788E00E941F0F8FE80E941F0F449A02
:1031A0001F9280916F028F931F921F921F928091A6
:1031B0006E028F9380916D028F9380906C02A0902D
:1031C0006B02C0906A02E12C0091690220E040E0AD
:1031D00066E085E391E00E94370F60ED77E080E0E4
:1031E00090E00E948A141FB7F8940FB6F894DEBFDF
:1031F0000FBECDBF80917002811127C0E6E8F0E0DC
:103200008491EAE9F0E09491E82FF0E0EE0FFF1FDF
:10321000E859FF4FA591B491EC91E92321F461E0C5
:103220008AE00E941E1461E08AE00E944E148CB570
:1032300080618CBD8CB580648CBD61E08DE00E94A6
:103240004E1461E08BE00E944E14809170028F5FFB
:10325000809370021FBF82E58CBD81E08DBD9CE52F
:10326000E92E96E2F92EF0926401E09263018EE17C
:103270008093610128E248EA68E084E90E94CE1068
:1032800080E090E00E94E91A80936201882309F4AB
:1032900041C0182F110F10926401109263018FEF3B
:1032A000810F90E00E94E91AC82ED12CDC2CCC248E
:1032B000D0926401C0926301812F90E00E94E91ACC
:1032C000C82AD0926401C09263019CE5C91A96E2B3
:1032D000D90A83E0C81688E0D80620F0F09264018D
:1032E000E092630110916301809164010E94A71034
:1032F000482F812F49830E94A710682F21E449811C
:1033000084E10E94CE1028E248EA67E584E90E9441
:10331000CE1001C0000080916301909164018E5233
:103320009440909368028093670211E010936F02BB
:1033300010936E0210936D0210936C0210936B0247
:1033400010936A02109369020E9423181F921F9320
:103350001F921F921F921F931F9388248394AA2465
:10336000A394CC24C394E12C01E020E040E067E08A
:103370000E94370F80917E0190917F0190936D01A3
:1033800080936C010E94DE0E89EF93E090936D01B3
:1033900080936C010E94DE0E82E090E090936D01BC
:1033A00080936C010E94DE0E83E090E090936D01AB
:1033B00080936C010E94DE0E8FE090E00197F1F7A0
:1033C0008091700190917101816090936D01809363
:1033D0006C010E94DE0EF89482E08093B00080932E
:1033E000B10094E69093B3001092B2008093700005
:1033F000789480939501109299018091960160E0F4
:103400000E944E1460E086E00E941E140FB6F894ED
:10341000DEBF0FBECDBF00E010E00E948C000115A2
:103420001105D9F30E940000F8CFCF93DF9361E03C
:1034300070E087E090E00E94BF1D9093940180931C
:10344000930110926A0161E083E10E944E1461E0F1
:1034500082E10E944E1461E081E10E944E14449A80
:10346000459A439A80E091E090937F0180937E019A
:1034700010926B011092800110926D0110926C01FC
:1034800010926F0110926E0188E092E090937101AA
:103490008093700110927301109272011092750165
:1034A00010927401109277011092760110927901B6
:1034B0001092780110927B0110927A0110927D0196
:1034C00010927C0161E070E087E090E00E94BF1DF7
:1034D000909382018093810161E084E00E944E1408
:1034E00061E085E00E944E1460E084E00E941E14BA
:1034F00060E085E00E941E1462E083E00E944E14AA
:1035000062E082E00E944E14EFE7F0E0E491F0E028
:10351000EE0FFF1FE854FF4FA591B491B0938401C3
:10352000A0938301E3E9F0E0849180938701EEE7C3
:10353000F0E0E491F0E0EE0FFF1FE854FF4FC5917B
:10354000D491D0938601C0938501E2E9F0E0E49143
:10355000E093880110928A0110928B0110928C01E5
:1035600010928D01EBE3FFE13197F1F7EC91E82345
:1035700081E009F480E0288190918801922309F08C
:10358000826023E831E08093890130939201209397
:10359000910180916900837F846080936900E99A3A
:1035A00081E080938E013093900120938F01809170
:1035B00069008C7F816080936900E89A82E0809343
:1035C0008E0187E08093960110929801DF91CF9150
:1035D0000895F999FECF92BD81BDF89A992780B5DB
:1035E0000895262FF999FECF1FBA92BD81BD20BD47
:1035F0000FB6F894FA9AF99A0FBE019608955058AA
:10360000BB27AA270E94171B0C94911C0E94831CA5
:1036100038F00E948A1C20F039F49F3F19F426F4F8
:103620000C94801C0EF4E095E7FB0C947A1CE92FB7
:103630000E94A21C58F3BA17620773078407950704
:1036400020F079F4A6F50C94C41C0EF4E0950B2E32
:10365000BA2FA02D0B01B90190010C01CA01A001E4
:103660001124FF27591B99F0593F50F4503E68F13F
:103670001A16F040A22F232F342F4427585FF3CF80
:10368000469537952795A795F0405395C9F77EF451
:103690001F16BA0B620B730B840BBAF09150A1F09A
:1036A000FF0FBB1F661F771F881FC2F70EC0BA0F20
:1036B000621F731F841F48F4879577956795B795A8
:1036C000F7959E3F08F0B0CF9395880F08F09927A3
:1036D000EE0F9795879508950E94561C08F481E097
:1036E00008950E94851B0C94911C0E948A1C58F01E
:1036F0000E94831C40F029F45F3F29F00C947A1C4F
:1037000051110C94C51C0C94801C0E94A21C68F3DF
:103710009923B1F3552391F3951B550BBB27AA278A
:1037200062177307840738F09F5F5F4F220F331FC4
:10373000441FAA1FA9F335D00E2E3AF0E0E832D08C
:1037400091505040E695001CCAF72BD0FE2F29D08F
:10375000660F771F881FBB1F261737074807AB0761
:10376000B0E809F0BB0B802DBF01FF2793585F4FD6
:103770003AF09E3F510578F00C947A1C0C94C51CCD
:103780005F3FE4F3983ED4F3869577956795B795B8
:10379000F7959F5FC9F7880F911D9695879597F9C3
:1037A0000895E1E0660F771F881FBB1F621773073C
:1037B0008407BA0720F0621B730B840BBA0BEE1F51
:1037C00088F7E09508950E94EA1B6894B1110C9463
:1037D000C51C08950E94AA1C88F09F5798F0B92F25
:1037E0009927B751B0F0E1F0660F771F881F991F36
:1037F0001AF0BA95C9F714C0B13091F00E94C41CF8
:10380000B1E008950C94C41C672F782F8827B85F07
:1038100039F0B93FCCF3869577956795B395D9F78D
:103820003EF490958095709561957F4F8F4F9F4F97
:103830000895E89409C097FB3EF4909580957095A3
:1038400061957F4F8F4F9F4F9923A9F0F92F96E9EC
:10385000BB279395F695879577956795B795F11161
:10386000F8CFFAF4BB0F11F460FF1BC06F5F7F4FFE
:103870008F4F9F4F16C0882311F096E911C0772310
:1038800021F09EE8872F762F05C0662371F096E819
:10389000862F70E060E02AF09A95660F771F881FE8
:1038A000DAF7880F9695879597F90895990F00088C
:1038B000550FAA0BE0E8FEEF16161706E807F90702
:1038C000C0F012161306E407F50798F0621B730B9D
:1038D000840B950B39F40A2661F0232B242B252B1E
:1038E00021F408950A2609F4A140A6958FEF811DC1
:1038F000811D089597F99F6780E870E060E0089562
:103900009FEF80EC089500240A94161617061806F7
:103910000906089500240A941216130614060506D3
:103920000895092E0394000C11F4882352F0BB0F64
:1039300040F4BF2B11F460FF04C06F5F7F4F8F4FC7
:103940009F4F089557FD9058440F551F59F05F3F02
:1039500071F04795880F97FB991F61F09F3F79F0B1
:1039600087950895121613061406551FF2CF469533
:10397000F1DF08C0161617061806991FF1CF8695B5
:103980007105610508940895E894BB276627772799
:10399000CB0197F908950E94DE1C0C94911C0E94A3
:1039A000831C38F00E948A1C20F0952311F00C949F
:1039B0007A1C0C94801C11240C94C51C0E94A21C1F
:1039C00070F3959FC1F3950F50E0551F629FF00172
:1039D000729FBB27F00DB11D639FAA27F00DB11D8B
:1039E000AA1F649F6627B00DA11D661F829F222714
:1039F000B00DA11D621F739FB00DA11D621F839F9B
:103A0000A00D611D221F749F3327A00D611D231F70
:103A1000849F600D211D822F762F6A2F11249F57BE
:103A200050409AF0F1F088234AF0EE0FFF1FBB1FC1
:103A3000661F771F881F91505040A9F79E3F510580
:103A400080F00C947A1C0C94C51C5F3FE4F3983E04
:103A5000D4F3869577956795B795F795E7959F5F2A
:103A6000C1F7FE2B880F911D9695879597F90895BC
:103A7000DB018F939F930E94681DBF91AF91A29F1E
:103A8000800D911DA39F900DB29F900D112408955C
:103A9000991B79E004C0991F961708F0961B881FA0
:103AA0007A95C9F780950895AA1BBB1B51E107C001
:103AB000AA1FBB1FA617B70710F0A61BB70B881FBE
:103AC000991F5A95A9F780959095BC01CD0108954D
:103AD0000E94B01DA59F900DB49F900DA49F800DD6
:103AE000911D112408950F93083090F0982F872F7F
:103AF000762F652F542F432F322F22270850F4CFD3
:103B0000220F331F441F551F661F771F881F991FE1
:103B10000A95B2F70F91089597FB10F816940008D4
:103B20000F93083098F00850232F342F452F562F2D
:103B3000672F782F892F902DF4CF0594979587952F
:103B40007795679557954795379527950A95AAF7DD
:103B50000F910895EE0FFF1F0590F491E02D099449
:103B6000A29FB001B39FC001A39F700D811D1124BE
:103B7000911DB29F700D811D1124911D08950F9309
:103B80001F93CF93DF93869F8001879F100D969F91
:103B9000100D1124C8010E94DB1DEC01009729F0D3
:103BA000A80160E070E00E94081FCE01DF91CF9174
:103BB0001F910F910895CF93DF938230910510F4F8
:103BC00082E090E0E0917C02F0917D0220E030E024
:103BD000C0E0D0E0309711F140815181481759077A
:103BE000C0F04817590761F482819381209719F03A
:103BF0009B838A832BC090937D0280937C0226C096
:103C00002115310519F04217530718F49A01BE0126
:103C1000DF01EF010280F381E02DDCCF21153105BA
:103C200009F1281B390B2430310590F412968D913F
:103C30009C9113976115710521F0FB019383828399
:103C400004C090937D0280937C02FD01329644C0B3
:103C5000FD01E20FF31F81939193225031092D93BF
:103C60003C933AC020917A0230917B02232B41F49D
:103C7000209102013091030130937B0220937A025C
:103C800020910001309101012115310541F42DB73A
:103C90003EB74091040150910501241B350BE09182
:103CA0007A02F0917B02E217F307A0F42E1B3F0B80
:103CB0002817390778F0AC014E5F5F4F241735079E
:103CC00048F04E0F5F1F50937B0240937A0281931E
:103CD000919302C0E0E0F0E0CF01DF91CF91089531
:103CE0000F931F93CF93DF93009709F48CC0FC01CF
:103CF00032971382128200917C0210917D0201158D
:103D0000110581F420813181820F931F20917A0265
:103D100030917B022817390779F5F0937B02E09305
:103D20007A0271C0D80140E050E0AE17BF0750F4EE
:103D300012962D913C911397AD012115310509F192
:103D4000D901F3CF9D01DA01338322836081718130
:103D5000860F971F8217930769F4EC012881398138
:103D6000260F371F2E5F3F4F318320838A819B812F
:103D700093838283452B29F4F0937D02E0937C02A8
:103D800042C01396FC93EE931297ED01499159911D
:103D90009E01240F351FE217F30771F48081918192
:103DA000840F951F029611969C938E938281938126
:103DB00013969C938E931297E0E0F0E0D801129650
:103DC0008D919C911397009719F0F8018C01F6CF13
:103DD0008D919C9198012E5F3F4F820F931F2091F0
:103DE0007A0230917B022817390769F4309729F459
:103DF00010927D0210927C0202C0138212821093F4
:103E00007B0200937A02DF91CF911F910F91089569
:103E1000DC0101C06D9341505040E0F70895F894E3
:023E2000FFCFD2
:103E220000007E02800006FE05FE03FE07FC07FA84
:103E320007F607EE07DE07BE077E0041555800561B
:103E42004F4C0042415300545245005355520020FA
:0C3E52004D555445002054554E4552007B
:00000001FF
