:100000000C945D000C9485000C9485000C94850084
:100010000C9485000C9485000C9485000C9485004C
:100020000C9485000C9485000C9485000C9485003C
:100030000C9485000C9485000C9485000C9485002C
:100040000C94A3030C9485000C9413040C94ED03FE
:100050000C9485000C9485000C9485000C9485000C
:100060000C9485000C94850000000008000201003B
:100070000003040700000000000000000000000072
:10008000250028002B0000000000240027002A0083
:10009000040404040404040402020202020203032E
:1000A0000303030301020408102040800102040836
:1000B0001020010204081020450411241FBECFEFB8
:1000C000D8E0DEBFCDBF11E0A0E0B1E0ECEBFCE09A
:1000D00002C005900D92AA32B107D9F721E0AAE239
:1000E000B1E001C01D92A53DB207E1F710E0CDE5FA
:1000F000D0E004C02197FE010E945106CC35D10703
:10010000C9F70E9488040C945C060C94000090E0EF
:10011000FC01EC55FF4F2491FC01E057FF4F849107
:10012000882399F090E0880F991FFC01EA57FF4F50
:10013000A591B491FC01E458FF4F859194918FB73C
:10014000F894EC91E22BEC938FBF089590E0FC01C2
:10015000E859FF4F3491FC01EC55FF4F2491FC010D
:10016000E057FF4FE491EE2309F43BC0332339F10C
:10017000333091F038F43130A9F0323001F584B5E4
:100180008F7D12C0373091F03830A1F03430B9F49F
:10019000809180008F7D03C0809180008F77809355
:1001A00080000DC084B58F7784BD09C08091B000F8
:1001B0008F7703C08091B0008F7D8093B000F0E016
:1001C000EE0FFF1FE458FF4FA591B4918FB7F8943D
:1001D000EC91611103C020952E2301C02E2B2C938E
:1001E0008FBF08950F931F93CF93DF93082F81E163
:1001F0000E948700C0E0D0E010E0C8010C2E02C0D1
:10020000959587950A94E2F780FF02C061E001C0EE
:1002100060E081E10E94A60060E083E10E94A60008
:1002200061E083E10E94A6002196C830D10529F73C
:10023000DF91CF911F910F910895CF93C82F61E067
:1002400082E10E94A60060E082E10E94A6008C2F5D
:10025000CF910C94F2003FB7F894809130019091C7
:100260003101A0913201B091330126B5A89B05C0A0
:100270002F3F19F00196A11DB11D3FBFBA2FA92F25
:10028000982F8827820F911DA11DB11DBC01CD01A2
:1002900042E0660F771F881F991F4A95D1F708958E
:1002A0008F929F92AF92BF92CF92DF92EF92FF9286
:1002B0006B017C010E942B014B015C01C114D10434
:1002C000E104F104F1F00E942B01DC01CB0188195B
:1002D0009909AA09BB09883E9340A105B10570F3AD
:1002E00021E0C21AD108E108F10888EE880E83E007
:1002F000981EA11CB11CC114D104E104F10419F72A
:10030000DDCFFF90EF90DF90CF90BF90AF909F90A8
:100310008F900895CF92DF92EF92FF920F931F93E9
:10032000CF93DF936C017A018B01C0E0D0E0CE1552
:10033000DF0589F0D8016D918D01D601ED91FC9119
:100340000190F081E02DC6010995892B11F47E0101
:1003500002C02196ECCFC701DF91CF911F910F9181
:10036000FF90EF90DF90CF900895089580E090E0A7
:100370000895FC01538D448D252F30E0842F90E0AB
:10038000821B930B541710F0CF9608950197089590
:10039000FC01918D828D981761F0828DDF01A80F8D
:1003A000B11D5D968C91928D9F5F9F73928F90E0AF
:1003B00008958FEF9FEF0895FC01918D828D98171E
:1003C00031F0828DE80FF11D858D90E008958FEF5B
:1003D0009FEF0895FC01918D228D892F90E0805C24
:1003E0009F4F821B91098F739927089587E391E0AE
:1003F0000E94EA0121E0892B09F420E0822F089570
:10040000FC01848DDF01A80FB11DA35ABF4F2C91B1
:10041000848D90E001968F739927848FA689B78980
:100420002C93A089B1898C9180648C93938D848D59
:10043000981306C00288F389E02D80818F7D808328
:100440000895EF92FF920F931F93CF93DF93EC01E8
:1004500081E0888F9B8D8C8D981305C0E889F98980
:10046000808185FD24C0F62E0B8D10E00F5F1F4F9D
:100470000F731127E02E8C8DE8120CC00FB607FC0D
:10048000FACFE889F989808185FFF5CFCE010E94F6
:100490000002F1CF8B8DFE01E80FF11DE35AFF4FF3
:1004A000F0820B8FEA89FB898081806207C0EE8928
:1004B000FF896083E889F98980818064808381E095
:1004C00090E0DF91CF911F910F91FF90EF900895F1
:1004D000CF93DF93EC01888D8823C9F0EA89FB89EB
:1004E000808185FD05C0A889B9898C9186FD0FC0E2
:1004F0000FB607FCF5CF808185FFF2CFA889B989B7
:100500008C9185FFEDCFCE010E940002E7CFDF91F5
:10051000CF91089580E090E0892B29F00E94F601A8
:1005200081110C940000089508958EBD00000DB453
:1005300007FEFDCF8EB50895CF93DF9300D01F92B5
:10054000CDB7DEB72A9800000000000000000000D0
:10055000000000000000000000000000000000009B
:100560002B834A8369830E949502000000000000EB
:10057000000000000000000000000000000000007B
:10058000000000002A9A6981862F0E9495024A8104
:10059000842F0E9495022B81822F0E9495022A9817
:1005A000000000000000000000000000000000004B
:1005B000000000000000000000000F900F900F905E
:1005C000DF91CF910895CF93DF932A980000000028
:1005D000000000000000000000000000000000001B
:1005E00000000000000084E50E9495020000000069
:1005F00000000000000000000000000000000000FB
:100600000000000000002A9A80E00E949502C4E3E6
:10061000D1E0888380E00E949502898380E00E9477
:1006200095028A832A980000000000000000000064
:1006300000000000000000000000000000000000BA
:10064000DF91CF910895CF93DF9320E030E090E0E9
:10065000482F50E067E070E0E1E0F0E0DA01022EC0
:1006600002C0B595A7950A94E2F7A0FF0AC0DB0186
:10067000A21BB30BEF0102C0CC0FDD1FAA95E2F75E
:100680009C2B2F5F3F4F2830310541F7892FDF9199
:10069000CF910895CF92DF92EF92FF920F931F9325
:1006A000CF93DF93CDB7DEB7A1970FB6F894DEBF37
:1006B0000FBECDBF282F30E040E050E019A28E01E0
:1006C0000F5D1F4F8AE0C82ED12CE12CF12CCA01FE
:1006D000B901A70196010E942F06605DF80162939F
:1006E0008F01211531054105510589F7309771F0CA
:1006F00001900020E9F73197AF01401B510BB80181
:1007000087E391E00E948A018C0102C000E010E0C2
:1007100042E050E066E271E087E391E00E948A01E6
:10072000800F911FA1960FB6F894DEBF0FBECDBF0C
:10073000DF91CF911F910F91FF90EF90DF90CF90BD
:1007400008950E9457061F920F920FB60F92112420
:100750002F933F938F939F93AF93BF9380912C01DF
:1007600090912D01A0912E01B0912F0130912B017C
:1007700023E0230F2D3720F40196A11DB11D05C0E4
:1007800026E8230F0296A11DB11D20932B01809313
:100790002C0190932D01A0932E01B0932F018091F5
:1007A000300190913101A0913201B0913301019655
:1007B000A11DB11D8093300190933101A0933201AE
:1007C000B0933301BF91AF919F918F913F912F9142
:1007D0000F900FBE0F901F9018951F920F920FB69B
:1007E0000F9211242F933F934F935F936F937F93B7
:1007F0008F939F93AF93BF93EF93FF9387E391E022
:100800000E940002FF91EF91BF91AF919F918F9154
:100810007F916F915F914F913F912F910F900FBEFC
:100820000F901F9018951F920F920FB60F921124E0
:100830002F938F939F93EF93FF93E0914701F09154
:1008400048018081E0914D01F0914E0182FD12C07E
:100850009081809150018F5F8F7320915101821799
:1008600051F0E0915001F0E0E95CFE4F958F8093EC
:10087000500101C08081FF91EF919F918F912F9145
:100880000F900FBE0F901F901895E7E3F1E01382D1
:10089000128288EE93E0A0E0B0E084839583A68383
:1008A000B78388E191E09183808385EC90E0958720
:1008B000848784EC90E09787868780EC90E0918B2A
:1008C000808B81EC90E0938B828B82EC90E0958B17
:1008D000848B86EC90E0978B868B118E128E138E14
:1008E000148E1092D40183E10E94870082E10E945D
:1008F000870081E10E94870061E082E10E94A600FA
:1009000061E083E10E94A60061E081E10C94A60011
:10091000789484B5826084BD84B5816084BD85B5DA
:10092000826085BD85B5816085BD80916E008160E6
:1009300080936E001092810080918100826080938C
:10094000810080918100816080938100809180008E
:100950008160809380008091B10084608093B100B9
:100960008091B00081608093B00080917A008460B3
:1009700080937A0080917A00826080937A008091DF
:100980007A00816080937A0080917A0080688093F9
:100990007A001092C100E0914701F091480182E095
:1009A0008083E0914301F09144011082E091450180
:1009B000F09146018FEC808310924F01E0914B0142
:1009C000F0914C0186E08083E0914901F0914A0169
:1009D000808180618083E0914901F0914A018081AA
:1009E00088608083E0914901F0914A0180818068AC
:1009F0008083E0914901F0914A0180818F7D80835D
:100A000068EC70E080E090E00E94500180E40E9479
:100A10001D0180EC0E941D01CAE180E00E94F200ED
:100A2000C150D9F788E00E941D018FE80E941D0186
:100A300061E082E10E94A600CFB7F89480912A017C
:100A4000811124C0EAE9F0E08491EEEAF0E09491AB
:100A5000E82FF0E0EE0FFF1FEA57FF4FA591B4918A
:100A6000EC91E92321F461E08AE00E94A6008AE08B
:100A70000E9487008CB580618CBD8CB580648CBD74
:100A80008DE00E9487008BE00E94870080912A0100
:100A90008F5F80932A01CFBF82E58CBD81E08DBD41
:100AA00080E40E941D0180EC0E941D018FE40E94E1
:100AB000F20081EC0E941D0182E70E94F20083ECAB
:100AC0000E941D018FE40E94F20084EC0E941D012F
:100AD00082E70E94F20086EC0E941D018FE40E94D2
:100AE000F20087EC0E941D0182E70E94F20089EC6F
:100AF0000E941D0183EC0E94F2008AEC0E941D01FD
:100B000083EE0E94F2008CEC0E941D0187E80E9497
:100B1000F2008DEC0E941D0182E40E94F2008FEC35
:100B20000E941D018FE40E94F20080ED0E941D01D1
:100B300082EF0E94F20082ED0E941D0184E00E947B
:100B4000F20083ED0E941D0182E00E94F20085ED1B
:100B50000E941D0180E20E94F20086ED0E941D01AC
:100B600087E00E94F20088ED0E941D018FEF0E9435
:100B7000F20089ED0E941D018FE70E94F20088E0DB
:100B80000E941D018FE80E941D0161E082E10E9428
:100B9000A60088E00E942303C82F8CEB0E94230349
:100BA000D82F20E44C2F682F84E10E949C0228E279
:100BB00048EA67E584E90E949C020E94E302809172
:100BC000340186FDFACF20E64C2F6D2F84E10E9480
:100BD0009C021C99FECF64E070E080E090E00E94EF
:100BE00050010E94E30260E177E280E090E00E9421
:100BF00050018EEE0E94230320E44C2F682F84E1E5
:100C00000E949C02C0E0D1E088ED0E941D01188185
:100C100089812296809581600E94F20089ED0E9470
:100C20001D01812F809588670E94F20064E670E0C4
:100C300080E090E00E94500181E0C431D80721F7A4
:100C4000809134010E944A03809135010E944A0339
:100C5000809136010E944A030E948A02D3CFA1E20A
:100C60001A2EAA1BBB1BFD010DC0AA1FBB1FEE1F26
:100C7000FF1FA217B307E407F50720F0A21BB30B71
:100C8000E40BF50B661F771F881F991F1A9469F7ED
:100C900060957095809590959B01AC01BD01CF0149
:100CA0000895EE0FFF1F0590F491E02D099481E067
:0C0CB00090E0F8940C945C06F894FFCFE0
:100CBC0006FE05FE03FE07FC07FA07F607EE07DE45
:100CCC0007BE077E0000000021028A01B9016802FC
:0A0CDC00EA01C801DC010D0A000066
:00000001FF
